:020000040800F2
:1000000000040020470100085501000857010008BE
:10001000590100085B0100085D01000800000000B4
:100020000000000000000000000000005F01000868
:10003000610100080000000063010008650100087C
:1000400067010008670100086701000867010008F0
:1000500067010008670100086701000867010008E0
:1000600067010008670100086701000867010008D0
:1000700067010008670100086701000867010008C0
:1000800067010008670100086701000867010008B0
:1000900067010008670100086701000867010008A0
:1000A0006701000867010008670100086701000890
:1000B0006701000867010008670100086701000880
:1000C0006701000867010008670100086701000870
:1000D00067010008190500085F050008A50500086C
:1000E0006701000867010008670100086701000850
:1000F0006701000867010008670100086701000840
:10010000670100086701000867010008670100082F
:10011000670100086701000867010008670100081F
:10012000670100086701000867010008670100080F
:10013000DFF80CD001F0E4FE00480047750100082C
:10014000B8020020704708488047084981F30888B2
:1001500007480047FEE7FEE7FEE7FEE7FEE7FEE7AB
:10016000FEE7FEE7FEE7FEE745010008B8020020D3
:10017000310100082DE9F04100F018FE482000F0A0
:1001800081FD4FF4165000F0A1FB01225103DA4823
:1001900000F036FA4FF40050D749086101224110AF
:1001A000D54800F02DFA01220421D44800F028FAA5
:1001B0000122D102D04800F023FA00224FF48061DE
:1001C000CD4800F01DFA01220221CD4800F018FAB6
:1001D00001224021C84800F013FA4020C6490861B6
:1001E0000A2000F087FD01228021C34800F008FAB0
:1001F00001221102C04800F003FA01225102BE4858
:1002000000F0FEF90220BE49143108600A2000F017
:1002100071FD0220BA49103108604FF000080A2031
:1002200000F068FD002577E00420B4491031086033
:100230000A2000F05FFD0420B049143108600A2054
:1002400000F058FD4FF48050AB4948610A2000F09F
:1002500051FD4446002723E00A2000F04BFD04F046
:10026000800020B14FF40060A349086103E04FF41F
:100270000060A14948610A2000F03CFD4FF4805025
:100280009D4948610A2000F035FD4FF480509A499D
:1002900008610A2000F02EFD6006040E781CC7B22B
:1002A000082FD9DB9748445D0A2000F023FD002683
:1002B00020E004F0800020B14FF400608E49086116
:1002C00003E04FF400608C4948610A2000F012FD01
:1002D0004FF48050884948610A2000F00BFD4FF42C
:1002E0008050854908610A2000F004FD6006040E74
:1002F000701CC6B2082EDCDB0A2000F0FBFC0420D8
:100300007E49103108600A2000F0F4FC08F1010079
:1003100000F0FF08681CC5B2202D85DB002585E0B4
:1003200000240A2000F0E6FC042074491031086023
:100330000A2000F0DFFC04207049143108600A2014
:1003400000F0D8FC4FF480506B4948610A2000F05F
:10035000D1FC6D480478002720E004F0800020B133
:100360004FF400606449086103E04FF400606249A3
:1003700048610A2000F0BEFC4FF480505E4948619D
:100380000A2000F0B7FC4FF480505B4908610A2056
:1003900000F0B0FC6006040E781CC7B2082FDCDB4E
:1003A0000A2000F0A7FC58480078401C5649087005
:1003B0004FF48050504908610A2000F09BFC002651
:1003C00024E00A2000F096FC6006040E0A2000F0EB
:1003D00091FC4FF48050484908610A2000F08AFCE3
:1003E0004FF48050444948610A2000F083FC4248A1
:1003F0008068C0F3802010B144F0010401E004F0F3
:10040000FE040A2000F076FC701CC6B2082ED8DB71
:100410000A2000F06FFC04203849103108600A20DF
:1004200000F068FC39484455681CC5B2202DFFF621
:1004300077AF802030490861012000F03FFC802028
:100440002D494861012647E0701E31490C5C0025AA
:1004500014E004F0800020B14FF480702649086158
:1004600003E04FF48070244948614FF40070224942
:10047000486108616006040E681CC5B2082DE8DBFF
:10048000032E0BD180201C490861042000F016FCCB
:10049000802019494861142000F010FC062E0BD171
:1004A000802015490861042000F008FC80201249D2
:1004B0004861142000F002FC092E0BD180200E4967
:1004C0000861042000F0FAFB80200B4948611420E9
:1004D00000F0F4FB701CC6B20A2EB5DB002506E066
:1004E0000A48415D0BA001F03DFD681CC5B2202DFE
:1004F000F6DB0020BDE8F08100100140001401404F
:100500000018014015000020360000209400002053
:100510000C0000202025780010B540F2255133480A
:1005200001F086FCD0B1314801F023FCC1B2304863
:1005300002780078401C2E4B18702E48815440F2EF
:1005400025512A4801F09AFC294800783C2805D119
:10055000002240F22551254801F0ABFB10BD10B53B
:1005600040F22551244801F063FCD0B1224801F04B
:1005700000FCC1B21E4802780078401C1C4B187069
:100580001C48815440F225511B4801F077FC184863
:1005900000783C2805D1002240F22551164801F090
:1005A00088FB10BD10B540F22551144801F040FC05
:1005B000D0B1124801F0DDFBC1B20D4802780078DD
:1005C000401C0B4B18700B48815440F225510B48CE
:1005D00001F054FC064800783C2805D1002240F286
:1005E0002551064801F065FB10BD000000380140B0
:1005F0000000002058000020004400400048004057
:10060000F8B504460D4616462848844204D1012117
:10061000042001F023FA2EE02548844204D1012170
:10062000082001F01BFA26E02248844204D101216F
:10063000102001F013FA1EE01F48844204D101216A
:10064000202001F00BFA16E01C48844204D101215D
:10065000402001F003FA0EE01948844204D1012140
:10066000802001F0FBF906E01648844203D1012105
:10067000801501F0F3F9012E0CD1ADF800500320E4
:100680008DF8020010208DF803006946204600F026
:100690004FFF09E046B9ADF8005048208DF803003F
:1006A0006946204600F044FFF8BD00000008014004
:1006B000000C0140001001400014014000180140EE
:1006C000001C01400020014010B586B004464FF4E4
:1006D000407000F0C1FB25208DF800000A208DF845
:1006E000010001208DF80300684600F0BAFB0121EB
:1006F00044F2050001F0B2F94FF40070ADF81400B7
:1007000018208DF8170003208DF8160005A9FB4866
:1007100000F00EFF4FF48060ADF8140004208DF857
:10072000170005A9F54800F003FF01940020ADF87B
:100730000800ADF80A00ADF80C00ADF810000C2070
:10074000ADF80E0001A9EE4801F039FA012240F29D
:100750002551EB4801F0ADFA0121E94801F09DFA7D
:100760000120E8490870E8A001F0FCFB06B010BDCC
:1007700010B586B004464FF4407000F06DFB2620A3
:100780008DF800000B208DF8010001208DF803008A
:10079000684600F066FB0121252001F05FF9012188
:1007A000480401F068F90420ADF8140018208DF811
:1007B000170003208DF8160005A9D04800F0B8FEF8
:1007C0000820ADF8140004208DF8170005A9CB48C7
:1007D00000F0AEFE01940020ADF80800ADF80A006C
:1007E000ADF80C00ADF810000C20ADF80E0001A91A
:1007F000CD4801F0E4F9012240F22551CA4801F048
:1008000058FA0121C84801F048FA0220BD49087091
:10081000C6A001F0A7FB06B010BD10B586B0044617
:100820004FF4407000F018FB26208DF800000B20DC
:100830008DF8010001208DF80300684600F011FBDF
:100840000121252001F00AF90121480401F013F9E2
:100850000121082000F03BFF2020ADF814001820F3
:100860008DF8170003208DF8160005A9B74800F091
:100870005FFE4020ADF8140004208DF8170005A994
:10088000B24800F055FE01940020ADF80800ADF824
:100890000A00ADF80C00ADF810000C20ADF80E0009
:1008A00001A9A14801F08BF9012240F225519E488F
:1008B00001F0FFF901219C4801F0EFF90220914974
:1008C0000870A3A001F04EFB06B010BD10B586B0B5
:1008D00004464FF4407000F0BFFA27208DF8000066
:1008E0000C208DF8010001208DF80300684600F00F
:1008F000B8FA012144F2090001F0B0F8012188049E
:1009000001F0B9F84FF48060ADF8140018208DF8AC
:10091000170003208DF8160005A9954800F008FE81
:100920004FF40060ADF8140004208DF8170005A9FD
:100930008F4800F0FDFD01940020ADF80800ADF8EF
:100940000A00ADF80C00ADF810000C20ADF80E0058
:1009500001A9884801F033F9012240F22551854868
:1009600001F0A7F90121834801F097F903206549B7
:10097000087006B010BD10B586B004464FF4407044
:1009800000F06AFA34208DF800000D208DF8010087
:1009900001208DF80300684600F063FA0121102061
:1009A00001F05CF80121C80401F065F84FF48060A3
:1009B000ADF8140003208DF8160018208DF81700EC
:1009C00005A96D4800F0B4FD4FF40060ADF81400C7
:1009D00004208DF8170005A9674800F0A9FD0194CF
:1009E0000020ADF80800ADF80A00ADF80C00ADF835
:1009F00010000C20ADF80E0001A9604801F0DFF8EE
:100A000001215E4801F049F904203E4908705CA0CC
:100A100001F0A8FA06B010BD10B586B004464FF438
:100A2000407000F019FA35208DF800000E208DF886
:100A3000010001208DF80300684600F012FA012140
:100A4000102001F00BF80121080501F014F84FF413
:100A50008050ADF8140003208DF8160018208DF892
:100A6000170005A9444800F063FD0420ADF8140008
:100A70008DF8170005A9404800F05AFD01940020A8
:100A8000ADF80800ADF80A00ADF80C00ADF81000A4
:100A90000C20ADF80E0001A9414801F090F80121A9
:100AA0003F4801F0FAF80520164908703DA001F012
:100AB00059FA06B010BD70B504460D4611480078CD
:100AC00001280BD1E1B20E4801F04FF900BF0C48EC
:100AD000008800F080000028F9D0A3E009480078E1
:100AE000022870D1E1B2104801F03FF900BF0E4872
:100AF000008800F080000028F9D093E00008014051
:100B000000380140380000200D0A2055534152544E
:100B10003120436F6E66696775726174696F6E200C
:100B20004F4B0D0A00000000004400400D0A205504
:100B300053415254323120436F6E6669677572615A
:100B400074696F6E204F4B0D0A00000000140140C5
:100B50000D0A205553415254323220436F6E66695C
:100B60006775726174696F6E204F4B0D0A0000004B
:100B7000000C01400048004000100140004C0040C3
:100B80000D0A2055534152543420436F6E666967F5
:100B900075726174696F6E204F4B0D0A0000000082
:100BA000005000400D0A2055534152543520436FE8
:100BB0006E66696775726174696F6E204F4B0D0ABE
:100BC00000000000FFE72848007803280BD1E1B2BD
:100BD000264801F0CAF800BF2448008800F08000D1
:100BE0000028F9D01EE02048007804280BD1E1B29B
:100BF0001F4801F0BAF800BF1D48008800F08000CF
:100C00000028F9D00EE01848007805280AD1E1B292
:100C1000184801F0AAF800BF1648008800F08000CC
:100C20000028F9D0204670BD1348007830384FF4C2
:100C30007A71484310494978303901EBC10202EB1F
:100C4000011100EB81010C488078303800EB800006
:100C500001EB40010848C078303808440749086073
:100C60000020074908707047380000200048004005
:100C7000004C0040005000405800002004000020BC
:100C8000000000204FF0E021096921F004014FF03D
:100C9000E0221161C21700EB5272C2F3C7026A4B25
:100CA0001A701946097801EB4102C2EBC1114FF6E7
:100CB000FF7202EAC101654A118070470146634A2A
:100CC00012884A434FF0E0235A6100229A610122C0
:100CD0001A6100BF4FF0E022106900F001021AB162
:100CE00000F48032002AF5D000224FF0E0231A6190
:100CF0009A6170470146544A12784A434FF0E02304
:100D00005A6100229A6101221A6100BF4FF0E0226D
:100D1000106900F001021AB100F48032002AF5D007
:100D200000224FF0E0231A619A61704710B5044623
:100D30000B2C39D2DFE804F038332E29241F1A1582
:100D4000100B06004FF47A70FFF7B8FF00BF4FF4A6
:100D50007A70FFF7B3FF00BF4FF47A70FFF7AEFF72
:100D600000BF4FF47A70FFF7A9FF00BF4FF47A700D
:100D7000FFF7A4FF00BF4FF47A70FFF79FFF00BF9B
:100D80004FF47A70FFF79AFF00BF4FF47A70FFF7C5
:100D900095FF00BF4FF47A70FFF790FF00BF4FF44C
:100DA0007A70FFF78BFF00BF00BF10BD10B500F0D9
:100DB000EDFC4FF4803000F008FD00F045FD0446E6
:100DC000012C27D1002000F084FD002000F093FDCD
:100DD000A00200F087FDE00300F0A7FD022000F074
:100DE000A9F8102000F0BAF84FF4E011200400F048
:100DF00053FD012000F05CFD00BF392000F008FD2C
:100E00000028FAD0022000F056FD00BF00F05CFD83
:100E10000828FBD101217C2000F020FE01210802DE
:100E200000F00FFE10BD012080F3138800BF00BF4B
:100E30000748006800F4E06006490843001D0449C3
:100E4000086000BF704700003A0000203C0000200E
:100E50000CED00E00000FA0531490143314A116010
:100E6000704770B5002100230F22C4780CB32D4CBD
:100E7000246804F4E064C4F5E064210AC1F10403C9
:100E8000CA40447804FA03F18478144021430901EC
:100E9000254C0678A155047804F01F050124AC40C8
:100EA00005786D114FF0E02606EB8505C5F8004189
:100EB00009E0047804F01F050124AC401B4D0678BE
:100EC000761145F8264070BD194A0A400243154B79
:100ED0001B1F1A60704739B1124A121D1268024373
:100EE000104B1B1D1A6006E00E4A121D1268824349
:100EF0000C4B1B1D1A607047042808D14FF0E021ED
:100F0000096941F004014FF0E022116107E04FF060
:100F1000E021096921F004014FF0E02211617047DE
:100F20000000FA050CED00E000E400E080E100E0E4
:100F300080FFFF1F01460020FB4A106800F03800C8
:100F4000084310607047F849096821F00801F64A23
:100F5000116011460968014311607047F249096840
:100F600021F01001F04A1160114609680143116037
:100F70007047EE48EC494860ED4848607047EA48E1
:100F8000006940F08000E849086170470420E649A4
:100F9000C96811F0010F01D001200EE0E249C968D3
:100FA00011F0040F01D0022007E0DF49C96811F0F9
:100FB000100F01D0032000E00420704708B5002086
:100FC0000090FF20009002E00098401E00900098E2
:100FD0000028F9D108BD70B504460425FFF7D6FFF7
:100FE000054605E0FFF7EAFFFFF7D0FF0546641E60
:100FF000012D01D1002CF5D104B90525284670BD7D
:1010000070B50546042440F6FF70FFF7E4FF044680
:10101000042C19D1C448006940F00200C24908619B
:1010200008464561006940F04000086140F6FF70E5
:10103000FFF7D1FF0446012C06D0BB48006941F6FA
:10104000FD710840B8490861204670BD10B5042400
:1010500040F6FF70FFF7BFFF0446042C18D1B248DA
:10106000006940F00400B04908610846006940F09A
:101070004000086140F6FF70FFF7ADFF0446012C09
:1010800006D0A948006941F6FB710840A6490861ED
:10109000204610BD10B5042440F6FF70FFF79BFFFB
:1010A0000446042C3BD1A1489F498860A048886031
:1010B0000846006940F0200008610846006940F0D9
:1010C0004000086140F6FF70FFF785FF0446042CDE
:1010D0001CD19548006941F6DF71084092490861CA
:1010E0000846006940F010000861A5209149088079
:1010F0000F20FFF770FF0446012C10D08A480069CA
:1011000041F6EF7108408849086108E0012C06D0DB
:101110008548006941F6EF7108408349086120461F
:1011200010BD70B505460E4604240F20FFF753FF8F
:101130000446042C25D17C48006940F001007A491E
:1011400008612E800F20FFF746FF0446042C0FD1C4
:10115000300C68800F20FFF73EFF0446012C10D0B2
:101160007148006941F6FE7108406F49086108E066
:10117000012C06D06C48006941F6FE7108406A49AE
:101180000861204670BD70B505460E4604240F2048
:10119000FFF721FF0446042C13D16348006940F097
:1011A0000100614908612E800F20FFF714FF0446FB
:1011B000012C06D05C48006941F6FE7108405A498E
:1011C0000861204670BD70B505460E4604240F2008
:1011D000FFF701FF0446042C17D154485249886098
:1011E000534888600846006940F0100008612E806E
:1011F0000F20FFF7F0FE0446012C06D04A48006994
:1012000041F6EF71084048490861204670BD2DE95C
:10121000F04704464FF6FF763746B046B146042500
:10122000E443E6B2C4F30727C4F307484FEA14695E
:101230000F20FFF7D0FE0546042D40D13B483A4928
:1012400088603B4888600846006940F010000861EB
:10125000FF2E06D03748083006800F20FFF7BBFE70
:101260000546042D08D1FF2F06D032480A300780EA
:101270000F20FFF7B0FE0546042D0AD1B8F1FF0F8D
:1012800007D02C480C30A0F800800F20FFF7A3FEF9
:101290000546042D0AD1B9F1FF0F07D025480E30BD
:1012A000A0F800900F20FFF796FE0546012D06D00E
:1012B0001D48006941F6EF7108401B490861284646
:1012C000BDE8F08770B50546042440F6FF70FFF7CF
:1012D00082FE0446042C4AD11448134988601448FD
:1012E00088600846006940F02000086108460069EF
:1012F00040F04000086140F6FF70FFF76CFE0446C6
:10130000042C2BD10848006941F6DF7108400649DA
:1013100008610846006940F01000086165B10020CE
:10132000044908800BE000000020024023016745CB
:10133000AB89EFCD00F8FF1FA5204549088040F696
:10134000FF70FFF748FE0446012C10D041480069A9
:1013500041F6EF7108403F49086108E0012C06D0D2
:101360003C48006941F6DF7108403A49086120466F
:1013700070BD2DE9F04107460D4616460424364857
:1013800034498860354888600F20FFF724FE044602
:10139000042C1AD12F48006940F010002D49086133
:1013A00047EA0500304340F0F8002949891C0880CD
:1013B0000F20FFF710FE0446012C06D025480069D7
:1013C00041F6EF710840234908612046BDE8F081ED
:1013D0002048C069800870471E48006A7047002096
:1013E0001C49C96911F0020F01D0012000E0002062
:1013F000704700201749096811F0200F01D0012023
:1014000000E00020704729B1124A12690243114BD3
:101410001A6104E00F4A126982430E4B1A61704749
:1014200001460020012908D10A4AD26912F0010FB1
:1014300001D0012008E0002006E0064AD2680A42F6
:1014400001D0012000E0002070470249C8607047C9
:1014500000F8FF1F0020024023016745AB89EFCD54
:1014600010B50446C549601A8C422FD009DCC44827
:10147000201810D0B0F5806F16D0B0F5006F4AD1AB
:101480001BE0B0F5806F2AD0B0F5006F30D0B0F51A
:10149000406F40D135E00121042000F0F9FA00212D
:1014A000042000F0F5FA37E00121082000F0F0FAFE
:1014B0000021082000F0ECFA2EE00121102000F0BD
:1014C000E7FA0021102000F0E3FA25E001212020B6
:1014D00000F0DEFA0021202000F0DAFA1CE0012101
:1014E000402000F0D5FA0021402000F0D1FA13E0AE
:1014F0000121802000F0CCFA0021802000F0C8FA01
:101500000AE00121080200F0C3FA00214FF48070C4
:1015100000F0BEFA00E000BF00BF10BD10B5012111
:10152000084600F0B5FA0021012000F0B1FA10BD24
:101530002DE9F0410246002500260020002300246A
:10154000002791F803C00CF00F0591F803C01CF0C0
:10155000100F03D091F802C04CEA050591F800C0C5
:10156000BCF1000F31D0146800202BE04FF0010CCB
:101570000CFA00F3B1F800C00CEA03069E4220D139
:1015800083004FF00F0C0CFA03F7BC4305FA03FC81
:101590004CEA040491F803C0BCF1280F06D14FF0C7
:1015A000010C0CFA00FCC2F814C00AE091F803C068
:1015B000BCF1480F05D14FF0010C0CFA00FCC2F849
:1015C00010C0401C0828D1D31460B1F800C0BCF191
:1015D000FF0F34DD546800202EE000F1080C4FF0BE
:1015E000010808FA0CF3B1F800C00CEA03069E42A9
:1015F00021D183004FF00F0C0CFA03F7BC4305FA1E
:1016000003FC4CEA040491F803C0BCF1280F05D197
:1016100000F1080C08FA0CF8C2F8148091F803C025
:10162000BCF1480F07D100F1080C4FF0010808FA8F
:101630000CF8C2F81080401C0828CED35460BDE8D6
:10164000F0814FF6FF710180022181700421C17089
:1016500070470246002093680B4201D0012000E051
:10166000002070470146886880B27047024600201B
:10167000D3680B4201D0012000E0002070470146F2
:10168000C86880B2704701617047416170470AB114
:10169000016100E041617047C16070474FF48032E2
:1016A0000A43826181618261826982697047024670
:1016B0000020344B18684FF68073184040EA02103F
:1016C0000843304B186070472F49C8617047F0B528
:1016D0000A4600230024002100252A4E7168C0F329
:1016E000034583B200F44016B6F5401F08D121F03F
:1016F0007061244E766826F07066224F7E6012E09C
:1017000000F48016B6F5801F06D1032606FA05F40C
:10171000A14341F0706106E0460D360103FA06F67A
:10172000B14341F0706122B1460D360103FA06F66D
:101730003143144E7160F0BD30B500228B071C0F91
:101740000F2303FA04F20F4B08338C1053F82430A4
:1017500093430C4C08348D1044F8253023468C10EC
:1017600053F824308C07240F00FA04F42343054C6B
:1017700008348D1044F8253030BD000000140140BD
:1017800000F8FEBF0000014000002042DC48006875
:1017900040F00100DA49086008464068D94908402D
:1017A000D749486008460068D7490840D4490860CE
:1017B0000846006820F4802008600846406820F44D
:1017C000FE004860002088607047CD49096821F418
:1017D0008031CB4A11601146096821F480211160E3
:1017E000B0F5803F03D0B0F5802F0ED106E0C4499C
:1017F000096841F48031C24A116007E0C0490968B4
:1018000041F4A021BE4A116000E000BF00BF704754
:1018100010B501460022002300204A11012A02D1FE
:10182000B74C236806E0022A02D1B54C236A01E0D6
:10183000B34C636A01F01F02012494401C4201D0A2
:10184000012000E0002010BD38B5002000900024E9
:10185000002500BF3120FFF7DBFF05460098401C44
:1018600000901DB90098B0F5A06FF3D13120FFF7BB
:10187000CFFF08B1012400E00024204638BD014616
:1018800000209F4A106820F0F80040EAC100106074
:1018900070479E490860704702460020984B586880
:1018A00020F47C1042EA01031843954B58607047BE
:1018B00096490866704701460020914A506820F01A
:1018C00003000843506070478D48406800F00C00EA
:1018D0007047014600208A4A506820F0F000084313
:1018E0005060704701460020854A506820F4E0604F
:1018F00008435060704701460020814A506820F438
:10190000605040EAC1005060704729B17C4A527A69
:1019100002437B4B5A7204E0794A527A8243784BF5
:101920005A7270477A490860704701460020744A2D
:10193000506820F440400843506070470021754AC9
:1019400011706F4A82F82010012802D0042808D1B3
:1019500003E001216F4A117004E005216D4A117006
:1019600000E000BF00BF70476B49086070476449E2
:10197000096A0143624A1162704767494439086045
:10198000704730B500210022002400235C4D6D68B3
:1019900005F00C0121B1042905D0082923D105E067
:1019A0005E4D056022E05D4D05601FE0544D6D68A1
:1019B00005F47012022505EB9242514D6D6805F455
:1019C00080341CB9564D554305600BE04C4D6D6895
:1019D00015F4003F03D0524D5543056002E04F4DD2
:1019E0005543056002E04D4D056000BF00BF444D0A
:1019F0006D6805F0F00109094A4D6B5C0568DD4032
:101A000045603F4D6D6805F4E061090A454D6B5C2A
:101A10004568DD4085603A4D6D6805F46051C90A3E
:101A2000404D6B5C4568DD40C560354D6D6805F423
:101A30004041890B3C4D6B5CC568B5FBF3F5056116
:101A400030BD29B12E4A526902432D4B5A6104E040
:101A50002B4A526982432A4B5A61704729B1284A5E
:101A600092690243264B9A6104E0254A92698243B7
:101A7000234B9A61704729B1214AD2690243204B16
:101A8000DA6104E01E4AD26982431D4BDA61704775
:101A900029B11B4AD2680243194BDA6004E0184AA4
:101AA000D2688243164BDA60704729B1144A126932
:101AB0000243134B1A6104E0114A12698243104B2E
:101AC0001A61704714494039086070470F49C8646B
:101AD00070470B49C87170470948406A40F08070F0
:101AE00007494862704701460020054A92680A4249
:101AF00001D0012000E00020704701498872704742
:101B0000001002400000FFF8FFFFF6FE0000424216
:101B1000D8004242201002408004424200127A0063
:101B200000093D003E0000204E00002010B5044694
:101B3000D749601A8C422BD006DCD648201813D027
:101B4000B0F5806F38D119E0B0F5806F2AD0B0F5CC
:101B50006C4F31D101218803FFF79AFF00214FF428
:101B60008040FFF795FF28E001214804FFF79DFF23
:101B700000214FF40030FFF798FF1EE00121880498
:101B8000FFF793FF00214FF48020FFF78EFF14E052
:101B90000121C804FFF789FF00214FF40020FFF75F
:101BA00084FF0AE001210805FFF77FFF00214FF4C1
:101BB0008010FFF77AFF00E000BF00BF10BD2DE9E5
:101BC000F04786B005460E460024A24600BF00BF7F
:101BD00000272F462C8A4CF6FF700440F0880443FF
:101BE0002C82AC894EF6F3100440B088318908434A
:101BF000718908430443AC81AC8A4FF6FF4004402E
:101C0000B0890443AC8201A8FFF7BBFEA24887421B
:101C100002D1DDF810A001E0DDF80CA00AEBCA004B
:101C200000EB0A1031688900B0FBF1F86420B8FBC2
:101C3000F0F004012009642101FB1089322000EB3F
:101C40000910B0FBF1F000F00F0004432C8106B046
:101C5000BDE8F0874FF41651016000218180C180FA
:101C600001810C21418100218181704710B502461C
:101C70000020108A4FF2FF0318400B884C88234342
:101C80008C882343CC8823431843108210BD002145
:101C9000018041808180C180704721B1828942F4F6
:101CA0000052828104E082894DF6FF731A408281DE
:101CB0007047F0B503460024002600250020184692
:101CC000C1F3421401F01F06012707FA06F5012CA3
:101CD00001D10C3004E0022C01D1103000E01430AE
:101CE0001AB107682F43076002E00768AF43076037
:101CF000F0BD1AB1838A0B43838202E0838A8B434F
:101D000083827047028A4FF6F0731A400282028A79
:101D10000A430282704782894FF2FF731A40828120
:101D200082890A438281704721B1828942F002028E
:101D3000828104E082894FF6FD731A4082817047E8
:101D4000028A4FF6DF731A400282028A0A43028235
:101D5000704721B1028A42F48042028204E0028A82
:101D60004BF6FF731A4002827047C1F3080282806B
:101D7000704701468888C0F308007047818941F0A8
:101D8000010181817047028BD2B20283028B42EA49
:101D9000012202837047028B02F47F420283028B8E
:101DA0000A430283704721B1828A42F02002828274
:101DB00004E0828A4FF6DF731A408282704721B1B5
:101DC000828A42F01002828204E0828A4FF6EF7328
:101DD0001A408282704721B1828A42F008028282D0
:101DE00004E0828A4FF6F7731A4082827047828A33
:101DF0004FF6FB731A408282828A0A4382827047BE
:101E000021B1828A42F00202828204E0828A4FF685
:101E1000FD731A40828270470246002013880B42ED
:101E200001D0012000E000207047CA4302807047C3
:101E300070B502460B460024002100250020C3F3A4
:101E4000421503F01F01012606FA01F1012D02D10E
:101E50009689314006E0022D02D1168A314001E018
:101E6000968A31401C12012606FA04F41688344082
:101E700011B10CB1012000E0002070BD10B50022AE
:101E800000230A1201249440A3B2DC43048010BD55
:101E9000004C004000BCFFBF003801402DE9F05F5E
:101EA0000546002092469B468846064681464024C9
:101EB0001BE0284641464746224600F042F853467A
:101EC0005A46C01A914110D311461846224600F0D6
:101ED00029F82D1A67EB01084F4622460120002100
:101EE00000F020F817EB00094E41201EA4F1010478
:101EF000DFDC484631462A464346BDE8F09F0000F5
:101F0000064C074D06E0E06840F0010394E8070046
:101F100098471034AC42F6D3FEF70EF9642200085D
:101F200084220008202A04DB203A00FA02F1002073
:101F300070479140C2F1200320FA03F31943904007
:101F40007047202A04DB203A21FA02F00021704772
:101F500021FA02F3D040C2F1200291400843194611
:101F6000704700000FB4054B10B503A9044A02984E
:101F700000F018F810BC5DF814FB0000B70A000868
:101F80005400002002E008C8121F08C1002AFAD13C
:101F900070477047002001E001C1121F002AFBD1E9
:101FA000704700002DE9FF4F8DB09B460F46044659
:101FB000002606E025280BD05A460F999047641C4E
:101FC000761C20780028F5D111B03046BDE8F08F9E
:101FD0000025A8460122984900E0054314F8013F76
:101FE000203B02FA03F00842F7D120782E2817D1BF
:101FF00014F8010F45F004052A280ED06FF02F02C7
:102000002078A0F1300109290AD808EB880102EBF9
:10201000410100EB0108641CF2E757F8048B641CD3
:1020200020786C280DD004DC4C2812D06A2811D1FD
:1020300004E074280DD07A280CD10AE045F400158C
:1020400007E0617845F48015814202D1641C05F5F2
:102050008015641C2278692A45D008DC002AB3D098
:10206000582A69D0632A10D0642A08D13BE0702A2C
:1020700067D0732A13D0752A5CD0782A5CD01046BA
:102080005A460F999047761CD3E017F8040B8DF849
:10209000000000208DF80100E946012003E057F818
:1020A000049B4FF0FF3069074FF0000501D40AE0B0
:1020B0006D1C45450DDA8542FADB19F8051000293B
:1020C000F6D106E06D1C8542FCDB19F805100029ED
:1020D000F8D12E4404E019F8010B5A460F999047A5
:1020E0006D1EF8D2A5E00A200021CDE90801C5F354
:1020F000025002280DD001CFC117031E71F1000359
:102100000DDA4FF0000CD0EB0C006CEB01012D232D
:1021100008E0FF1D27F00707F7E80201EDE72B05B0
:1021200004D52B238DF8283001233BE0EB0739D071
:102130002023F7E70A2000E010200021CDE9080164
:1021400007E01020002145F00405CDE908014FF01B
:102150000808C5F3025002280FD001CF00214FF02C
:10216000000A2B071FD5702A0DD0DDE908C38CF0BB
:10217000100C5CEA030C0CD015E0FF1D27F00707DC
:10218000F7E80201EBE740228DF828204FF0010A22
:102190000BE050EA010306D030238DF828308DF88B
:1021A000292002239A46582A04D024A20DF120099E
:1021B0000B9209E026A2F9E7DDE90823FFF76EFE9E
:1021C0000B9B9B5C09F8013D50EA0102F4D1ADEB99
:1021D000090020300890680701D44FF001080899E1
:1021E000884502DDA8EB010000E0002080460025C4
:1021F00006E00AA85A46405D0F9990476D1C761C70
:102200005545F6DB04E030205A460F999047761C7E
:10221000B8F10001A8F10108F5DC05E019F8010B9F
:102220005A460F999047761C0899481E0890002935
:10223000F4DC641CC5E600000928010030313233AB
:1022400034353637383961626364656600000000F2
:1022500030313233343536373839414243444546DC
:102260000000000084220008000000205800000048
:10227000841F0008DC2200085800002060020000D3
:10228000941F000800000000000000000000000093
:102290003000C98FF1A8403E4203011021800000A8
:1022A000000000000000000000000000000000002E
:1022B0000000FF000000000000008000000000009F
:1022C00000000000000001020304010203040607ED
:0C22D000080902040608000000000000DD
:0400000508000131BD
:00000001FF
