:020000040800F2
:1000000090C50020B53A00087D0600087F0600086C
:1000100083060008870600088B0600080000000021
:100020000000000000000000000000008F06000833
:1000300091060008000000009306000895060008DD
:10004000CF3A0008CF3A0008CF3A0008CF3A00086C
:10005000CF3A0008CF3A0008CF3A0008CF3A00085C
:10006000CF3A0008CF3A0008CF3A0008CF3A00084C
:10007000CF3A0008CF3A0008CF3A0008CF3A00083C
:10008000CF3A0008CF3A0008CF3A0008CF3A00082C
:10009000CF3A0008CF3A0008CF3A0008CF3A00081C
:1000A000CF3A0008CF3A0008CF3A0008CF3A00080C
:1000B00003A20008CF3A0008CF3A0008CF3A000860
:1000C000CF3A0008CF3A0008CF3A0008CF3A0008EC
:1000D000CF3A0008293A0008CF3A0008CF3A000882
:1000E000CF3A0008CF3A0008CF3A0008CF3A0008CC
:1000F000CF3A0008CF3A0008CF3A0008CF3A0008BC
:10010000CF3A0008CF3A0008CF3A0008CF3A0008AB
:10011000CF3A0008CF3A0008CF3A0008CF3A00089B
:10012000CF3A0008CF3A0008CF3A0008CF3A00088B
:1001300000F002F800F06BF80AA090E8000C82448E
:100140008344AAF10107DA4501D100F060F8AFF26B
:10015000090EBAE80F0013F0010F18BFFB1A43F0A5
:1001600001031847DCCE0000FCCE00000A444FF02B
:10017000000C10F8013B13F0070408BF10F8014B06
:100180001D1108BF10F8015B641E05D010F8016B4B
:10019000641E01F8016BF9D113F0080F1EBF10F8AF
:1001A000014BAD1C0C1B09D16D1E58BF01F801CBD2
:1001B000FAD505E014F8016B01F8016B6D1EF9D555
:1001C0009142D6D37047000000230024002500266A
:1001D000103A28BF78C1FBD8520728BF30C148BFAA
:1001E0000B60704764290BF0818075290BF07E80CD
:1001F00078290BF0B78063290BF08F8273290BF0FD
:100200009482002070471FB51FBD10B510BD0BF0C4
:10021000BFFA1146FFF7F7FF00F008F80BF0DDFA20
:1002200003B4FFF7F2FF03BC03F0A0FB1FB503F01C
:100230002DFB03F095FB4FF4165003F0A6FB00F0E6
:100240001BFB00F0A5FE00F03DFBC44841684820C0
:100250008847002005F0F1FD09F09EF8C0480168CC
:10026000002007F0EFFABE484168012007F0EAFAE3
:10027000002000F041FB0646BAA010210B46C82220
:10028000CDE9001032213C2002F041FD7AE000BFB0
:100290004FF6FF7000F067FE4FF47840B5490880D4
:1002A000B0A010210B46C822CDE9001032213C201D
:1002B00002F02DFD19E0B0A010210B46C822CDE9B7
:1002C000001046213C2002F022FDC82003F01BFB59
:1002D0004FF6FF7056234FF48272462100903C2067
:1002E00002F094FAC82003F00EFB03F083F9002813
:1002F000E1D1A5A010210B46C822CDE9001046216E
:100300003C2002F004FDA3A010210B46C822CDE939
:1003100000105A213C2002F0FAFC002310226E212A
:1003200014200AF041FD064618E09FA010210B465C
:10033000C822CDE900106E213C2002F0E8FCC82064
:1003400003F0E1FA4FF6FF707E23DC226E2100906D
:10035000142002F05BFAC82003F0D5FA002EE4D195
:1003600096A010210B46C822CDE900106E213C203A
:1003700002F0CDFC40F2DC5003F0C5FA4FF6FF70FE
:1003800000F0F1FD0AF0A1FD002880D1042E3FF419
:100390007EAF4FF4784077490880002010218DA26D
:1003A0000B46CDE900210290C82232213C200AF000
:1003B000A4FE002010218CA20B46CDE90021029062
:1003C000C82246213C200AF098FE002010218AA273
:1003D0000B46CDE900210290C8225A213C200AF0A8
:1003E0008CFE0020102189A20B46CDE9002102904D
:1003F000C8226E213C200AF080FE0020102187A236
:100400000B46CDE900210290C82282213C200AF04F
:1004100074FE1F20574908800020102183A20B463C
:10042000CDE900210290C82296213C200AF065FE09
:100430000020102180A20B46CDE900210290C822A5
:10044000AA213C200AF059FE002010217DA20B4673
:10045000CDE900210290C822BE213C200AF04DFEC9
:1004600000200C217CA20B46CDE900210290C8227D
:10047000D4213C200AF041FE002010217BA20B4633
:10048000CDE900210290C822E6213C200AF035FE89
:100490004FF6FF7092234FF48272822100903C202D
:1004A00002F0B4F959E00027812554E08DF80C5092
:1004B000102003232A4696210090942002F07EFB10
:1004C000402444E07F2C00D13FE07F1C1020032318
:1004D0002246AA210090942002F070FB10200523F0
:1004E0003A46E6210090942002F068FB8DF80D401A
:1004F0000020102303AABE210090CC200AF083FD27
:1005000000200C2303AAD4210090A8200AF07BFD30
:100510004FF0C80809E0012003F0F5F9002000F0D1
:10052000EBF90646042E00D1B2E65FEA0800A8F116
:10053000010101F0FF08EED14F48006808B9012021
:1005400000E000204C49086000BF601CC4B2FE2CD3
:10055000B8DB681CC5B2FF2DA8DBA4E7F0020020C1
:10056000A4010020576172736869702053544D33A1
:1005700032000000160000205344204361726420C2
:100580004661696C656421005344204361726420B4
:100590004F4B0000466F6E74205570646174696E35
:1005A000672E2E2E00000000466F6E74205570647A
:1005B000617465204661696C65642100466F6E74E4
:1005C000205570646174652053756363657373218E
:1005D00000000000D5BDBDA22053544D3332BFAA48
:1005E000B7A2B0E50000000047424BD7D6BFE2B249
:1005F000E2CAD4B3CCD0F200D5FDB5E3D4ADD7D3A5
:1006000040414C49454E54454B0000003230313298
:10061000C4EA39D4C23138C8D5000000B0B44B4563
:1006200059302CB8FCD0C2D7D6BFE200C4DAC2EB36
:10063000B8DFD7D6BDDA3A00C4DAC2EBB5CDD7D62B
:10064000BDDA3A00B6D4D3A6BABAD7D62831362AFC
:10065000313629CEAA3A0000B6D4D3A6BABAD7D634
:100660002831322A313229CEAA3A0000BABAD7D676
:10067000BCC6CAFDC6F73A0094812142704700BF4C
:10068000FEE700BFFEE700BFFEE700BFFEE77047E2
:1006900070477047704700000CB500200190009033
:1006A0006C48006840F480306A49086000BF6948BF
:1006B000006800F4003000900198401C0190009800
:1006C00018B90198B0F5A06FF1D16248006800F444
:1006D000003010B10120009001E00020009000984F
:1006E000012843D15C48006840F010005A49086076
:1006F0000846006820F0030008600846006840F0E3
:100700000200086053484068524948600846406803
:1007100048600846406840F4806048600846406889
:1007200020F47C1048600846406840F4E8104860B7
:100730000846006840F08070086000BF45480068C7
:1007400000F000700028F9D04248406820F0030013
:10075000404948600846406840F00200486000BFD9
:100760003C48406800F00C000828F9D10CBD10B5D9
:10077000FFF792FF10BD10B53648006840F0010049
:1007800034490860084640683449084031494860A7
:1007900008460068324908402E490860084600684B
:1007A00020F4802008600846406820F4FE0048607D
:1007B0004FF41F008860FFF7DAFF4FF0006029490F
:1007C000086010BD10B5002100200022214B5B689D
:1007D00003F00C0121B1042906D0082928D107E033
:1007E000214B224C236027E01F4B204C236023E049
:1007F000184B5B6803F47010164B5B6803F480328F
:10080000022303EB904022B9194B4343174C23605A
:100810000DE0104B5B6803F4003323B1144B4343EA
:10082000124C236003E0104B4343104C236003E061
:100830000D4B0E4C236000BF00BF064B5B68C3F33B
:1008400003130C4CE15C094B1B68CB40074C236045
:1008500010BD000000100240002002400000FFF820
:10086000FFFFF6FE08ED00E000127A000000002015
:1008700000093D000400002008B50121482003F0D4
:10088000C9FF2020ADF8000010208DF803000320E0
:100890008DF802006946094803F000FD2021074851
:1008A00003F0A9FD2020ADF800006946044803F0DC
:1008B000F5FC2021024803F09EFD08BD000C01401C
:1008C0000018014008B50121442003F0A3FF1C20BB
:1008D000ADF8000048208DF803006946354803F064
:1008E000DDFC0120ADF8000028208DF803006946EA
:1008F000314803F0D3FC08BD10B5044614B1012003
:100900002E4908702D480078002837D0102129483A
:1009100003F057FD78B10821264803F052FD50B18D
:100920000421244803F04DFD28B10121224803F0A1
:1009300048FD012822D10A2002F0E5FF00201F49CE
:10094000087010211B4803F03CFD08B9012010BDC0
:100950000821184803F035FD08B90220F7E7042103
:10096000144803F02EFD08B90320F0E701211248D6
:1009700003F027FD01281BD10420E8E710210D48D2
:1009800003F01FFD012813D108210A4803F019FDC7
:1009900001280DD10421074803F013FD012807D1D8
:1009A0000121054803F00DFD10B90120034908702D
:1009B0000020CCE70018014000080140140000208E
:1009C000F74908807047F649891C08807047F44849
:1009D000801C00887047F24A1080921C118070477A
:1009E00010B504462046FFF7EBFF052002F067FF35
:1009F000FFF7EDFF10BDEB48C079E949088070476B
:100A0000E749891C0880704730B5014601F01F0492
:100A1000C1F34513CA0AE50205EB43151544A8B214
:100A200030BD00BF0100A0F10102D0B2FAD1704781
:100A300010B503460C46DB48808849F241318842B4
:100A400005D0D848808846F60401884214D1D5499B
:100A5000087AFFF7B5FF1812FFF7B5FFD8B2FFF716
:100A6000B2FFD049487AFFF7ABFF2012FFF7ABFF88
:100A7000E0B2FFF7A8FF12E0CA488079012804D14C
:100A8000C8480088401EC01A83B2C649087A194671
:100A9000FFF7A1FFC349487A2146FFF79CFF10BD2D
:100AA0002DE9F04105460E4600240027A046BD482A
:100AB0000088A84203DDBB484088B04202DC002029
:100AC000BDE8F08131462846FFF7B2FFB54880887F
:100AD00049F24131884205D0B248808846F6040187
:100AE000884203D12E20FFF76BFF02E02220FFF7A0
:100AF00067FFAC48808849F22031884202D1022049
:100B0000FFF78FFFA648801C008800B10024022058
:100B1000FFF787FFA248801C0488A248808849F21A
:100B2000413188420CD10220FFF77BFF9C48801C9A
:100B3000B0F80080E7B24FF6FF7000EA072708E040
:100B40009848808846F60401884202D19448801C67
:100B500004889448808849F22531884216D091480B
:100B6000808844F23551884210D08E488088091F11
:100B700088420BD08B48808848F68911884205D07E
:100B8000884880884BF20551884201D1204697E77A
:100B90008448808849F24131884207D1E012C0027E
:100BA000B91240EA411040EAE82089E72046FFF701
:100BB0002BFF85E700B57B48808849F241318842A8
:100BC00005D07848808846F60401884203D1292060
:100BD000FFF7F6FE04E040F273110720FFF7FBFE7B
:100BE00000BD00B56F48808849F24131884205D088
:100BF0006C48808846F60401884203D12820FFF71C
:100C0000DFFE03E000210720FFF7E5FE00BD70B521
:100C10000446002300266348807901281ED16148DC
:100C2000808846F60401884218D0082C15D2DFE8E7
:100C300004F00406080A0C0E101206240DE0072426
:100C40000BE0042409E0052407E0012405E000246A
:100C500003E0032401E0022400BF00BF5148808864
:100C600049F24131884205D04E48808846F6040159
:100C700088427CD1082C1CD2DFE804F00406090C61
:100C80000F12151800BF14E043F0800311E043F089
:100C900040030EE043F0C0030BE043F0200308E004
:100CA00043F0600305E043F0A00302E043F0E003FB
:100CB00000BF00BF362643F008033A48808846F656
:100CC0000401884201D143F0020319463046FFF780
:100CD00082FE03F0200068B132480088314949881B
:100CE000884214DA2F48058840882E490880084633
:100CF00045800CE02B4800882A494988884206DD57
:100D000028480588408827490880084645802549A5
:100D1000087AFFF755FE0020FFF755FE0020FFF789
:100D200052FE20490988491EC1F30F20FFF74BFEF0
:100D30001C490978491EC8B2FFF745FE1949487A8F
:100D4000FFF73EFE0020FFF73EFE0020FFF73BFED0
:100D500014494988491EC1F30F20FFF734FE114999
:100D60008978491EC8B2FFF72EFE36E0FFE7082C4F
:100D700020D2DFE804F004070A0D0F12191C43F01B
:100D8000300317E043F0100314E043F0200311E0B8
:100D900000BF0FE043F038030CE043F0280309E004
:100DA000FE07006CF803002043F0180302E043F054
:100DB000080300BF00BFFE48808848F689118842BA
:100DC00004D1112646F24000034302E0032643F417
:100DD000805319463046FFF7FEFD70BD30B504461E
:100DE0000D4629462046FFF723FEFFF704FEF14893
:100DF0000088F149088030BD30B503460C461546E1
:100E0000EB48808849F24131884205D0E848808823
:100E100046F60401884214D1E549087AFFF7D0FD6F
:100E20001812FFF7D0FDD8B2FFF7CDFDE049487AA0
:100E3000FFF7C6FD2012FFF7C6FDE0B2FFF7C3FDC6
:100E400012E0DB488079012804D1D9480088401E8F
:100E5000C01A83B2D649087A1946FFF7BCFDD449B7
:100E6000487A2146FFF7B7FDD148C079D249891E9B
:100E70000880881C058030BD10B50446002C3DD18B
:100E8000CB498871F02008804FF4A0704880084654
:100E9000808849F24131884205D0C548808846F6AD
:100EA0000401884214D12C20C149C8712A2008723B
:100EB0002B2048720846808846F6040188424ED1AD
:100EC0004FF4A070BA4908804FF4F070488046E0B3
:100ED000B748808848F68911884207D12220B44952
:100EE000C8714E2008724F20487238E02220B04965
:100EF000C871202008722120487230E0AC488088F8
:100F000046F6040188422AD00120A94988714FF48D
:100F1000A0700880F02048800846808849F241315E
:100F2000884207D12C20A249C8712A2008722B20A0
:100F3000487214E09E48808848F68911884207D19B
:100F400022209B49C8714F2008724E20487206E04B
:100F500022209749C8712120087220204872002061
:100F6000FFF755FE10BD70B5044600269048058871
:100F70004088454300210846FFF75AFDFFF73BFD37
:100F800000BF02E08C480480761CAE42FAD370BDEC
:100F900000B59FB00121080203F02FFC012140F2AF
:100FA000691003F037FC0120ADF8780010208DF8AF
:100FB0007B0003208DF87A001EA9804803F06EF9AB
:100FC0004CF23370ADF8780018208DF87B000320C8
:100FD0008DF87A001EA97A4803F060F94FF6807008
:100FE000ADF8780018208DF87B0003208DF87A008A
:100FF0001EA9744803F052F941F20100ADF87800DF
:1010000018208DF87B0003208DF87A001EA96E4809
:1010100003F044F901200890002009900F200A9065
:1010200000200B900C900D900E90019002900320E8
:1010300003900020049005900690079006200F90E2
:101040000020109011901020129000201390159005
:101050001490169017904FF480501890002019901B
:101060004FF480401A9000201B9008A81C9001A803
:101070001D900FA802F0F8FD0121062002F05CFF90
:10108000322002F040FC01210020FFF7A4FC3220B6
:1010900002F039FC0020FFF7A3FC45498880084690
:1010A0008088FF280ADB084680884FF6FF71884257
:1010B00004D03F488088B0F5134F4BD1D320FFF7C1
:1010C0007FFCFFF784FCFFF782FCFFF780FC3849C8
:1010D0008880084680884FF6FF7101EA0020344975
:1010E0008880FFF774FC324989880843304988803A
:1010F0000846808849F2413188421BD0BF20FFF763
:101100005FFCFFF764FCFFF762FCFFF760FCFFF792
:101110005EFC27498880084680884FF6FF7101EA07
:10112000002023498880FFF752FC21498988084321
:101130001F4988801E48808849F24131884209D081
:101140001B48808846F60401884203D049F24130AA
:1011500017498880164881881CA00AF06BF814484B
:10116000808849F2413188427ED1CF20FFF728FCA8
:101170000020FFF728FCC120FFF725FC3020FFF7F7
:1011800022FCED20FFF71CFC6420FFF71CFC032071
:10119000FFF719FC1220FFF716FC8120FFF713FC64
:1011A000E820FFF70DFC8520FFF70DFC102015E06F
:1011B000F8030020160000200008006C000C01401D
:1011C000001401400018014000200140204C43441D
:1011D0002049443A25780D0A00000000FFF7F3FB90
:1011E0007A20FFF7F0FBCB20FFF7EAFB3920FFF76F
:1011F000EAFB2C20FFF7E7FB0020FFF7E4FB34209D
:10120000FFF7E1FB0220FFF7DEFBF720FFF7D8FB3B
:101210002020FFF7D8FBEA20FFF7D2FB0020FFF7E2
:10122000D2FB0020FFF7CFFBC020FFF7C9FB1B203C
:10123000FFF7C9FBC120FFF7C3FB0120FFF7C3FB8A
:10124000C520FFF7BDFB3020FFF7BDFB3020FFF7C7
:10125000BAFBC720FFF7B4FBB720FFF7B4FB36207B
:10126000FFF7AEFB482000E0AEE0FFF7ACFB3A2012
:10127000FFF7A6FB5520FFF7A6FBB120FFF7A0FB69
:101280000020FFF7A0FB1A20FFF79DFBB620FFF719
:1012900097FB0A20FFF797FBA220FFF794FBF220B1
:1012A000FFF78EFB0020FFF78EFB2620FFF788FB61
:1012B0000120FFF788FBE020FFF782FB0F20FFF7FC
:1012C00082FB2A20FFF77FFB2820FFF77CFB08200A
:1012D000FFF779FB0E20FFF776FB0820FFF773FB83
:1012E0005420FFF770FBA920FFF76DFB4320FFF7A9
:1012F0006AFB0A20FFF767FB0F20FFF764FB002063
:10130000FFF761FB0020FFF75EFB0020FFF75BFBB0
:101310000020FFF758FBE120FFF752FB0020FFF70A
:1013200052FB1520FFF74FFB1720FFF74CFB072060
:10133000FFF749FB1120FFF746FB0620FFF743FBB1
:101340002B20FFF740FB5620FFF73DFB3C20FFF72B
:101350003AFB0520FFF737FB1020FFF734FB0F2087
:10136000FFF731FB3F20FFF72EFB3F20FFF72BFB62
:101370000F20FFF728FB2B20FFF722FB0020FFF7B1
:1013800022FB0020FFF71FFB0120FFF71CFB3F2083
:10139000FFF719FB2A20FFF713FB0020FFF713FBD1
:1013A0000020FFF710FB0020FFF70DFBEF20FFF7F9
:1013B0000AFB1120FFF704FB782002F0A4FA292091
:1013C000FFF7FEFA01F016BAFE48808846F60401DF
:1013D00088427CD11120FFF7F3FA142002F093FA2F
:1013E000D020FFF7EDFA0720FFF7EDFA4220FFF7D4
:1013F000EAFA1D20FFF7E7FAD120FFF7E1FA002013
:10140000FFF7E1FA1A20FFF7DEFA0920FFF7DBFA0F
:10141000D220FFF7D5FA0120FFF7D5FA2220FFF7F7
:10142000D2FAC020FFF7CCFA1020FFF7CCFA3B200D
:10143000FFF7C9FA0020FFF7C6FA0220FFF7C3FA48
:101440001120FFF7C0FAC520FFF7BAFA0320FFF713
:10145000BAFAC820FFF7B4FA0020FFF7B4FA252043
:10146000FFF7B1FA2120FFF7AEFA0520FFF7ABFA3C
:101470000020FFF7A8FA0A20FFF7A5FA6520FFF77A
:10148000A2FA2520FFF79FFA7720FFF79CFA502059
:10149000FFF799FA0F20FFF796FA0020FFF793FA6B
:1014A000F820FFF78DFA0120FFF78DFAFE20FFF7F5
:1014B00087FA0020FFF787FA0220FFF784FA20203E
:1014C000FFF77EFA3620FFF77BFA082000E02CE0D9
:1014D000FFF779FA3A20FFF773FA5520FFF773FA0E
:1014E0002B20FFF76DFA0020FFF76DFA0020FFF7C1
:1014F0006AFA0120FFF767FA3F20FFF764FA2A2013
:10150000FFF75EFA0020FFF75EFA0020FFF75BFAB4
:101510000120FFF758FADF20FFF755FA782002F094
:10152000F2F92920FFF74CFA4CE7A648808849F2E7
:10153000253188427ED147F6F001E520FFF74BFACE
:101540004FF480710120FFF746FA4FF4E06102206A
:10155000FFF741FA41F230010320FFF73CFA002186
:101560000420FFF738FA40F202210820FFF733FA8F
:1015700000210920FFF72FFA00210A20FFF72BFA9C
:1015800000210C20FFF727FA00210D20FFF723FA96
:1015900000210F20FFF71FFA00211020FFF71BFA90
:1015A00007211120FFF717FA00211220FFF713FA85
:1015B00000211320FFF70FFA00210720FFF70BFA95
:1015C00041F290611020FFF706FA40F22721112026
:1015D000FFF701FA9D211220FFF7FDF94FF4C851E2
:1015E0001320FFF7F8F925212920FFF7F4F90D2141
:1015F0002B20FFF7F0F907213020FFF7ECF940F23C
:1016000003313120FFF7E7F903213220FFF7E3F937
:1016100040F206213520FFF7DEF908213620FFF7DA
:10162000DAF940F206413720FFF7D5F94FF441715E
:10163000382000E057E0FFF7CEF907213920FFF707
:10164000CAF940F202613C20FFF7C5F908213D20AC
:10165000FFF7C1F900215020FFF7BDF9EF2151201C
:10166000FFF7B9F900215220FFF7B5F940F23F1119
:101670005320FFF7B0F94FF427416020FFF7ABF993
:1016800001216120FFF7A7F900216A20FFF7A3F9E4
:1016900000218020FFF79FF900218120FFF79BF9AF
:1016A00000218220FFF797F900218320FFF793F9AB
:1016B00000218420FFF78FF900218520FFF78BF9A7
:1016C00010219020FFF787F94FF4C0619220FFF7B7
:1016D00082F940F233110720FFF77DF92221002023
:1016E000FFF779F96EE63748808849F22831884259
:1016F0006AD141F28F01EC20FFF76DF941F23421FC
:10170000EF20FFF768F94FF480710120FFF763F9CC
:101710004FF4E0610220FFF75EF941F2300103204F
:10172000FFF759F900210420FFF755F940F2022193
:101730000820FFF750F900210920FFF74CF900219C
:101740000A20FFF748F901210C20FFF744F9002196
:101750000D20FFF740F900210F20FFF73CF9002191
:101760001020FFF738F907211120FFF734F9002185
:101770001220FFF730F900211320FFF72CF9012187
:101780000720FFF728F9322002F0BDF841F290411E
:101790001020FFF720F940F227211120FFF71BF955
:1017A000322002F0B0F88A211220FFF714F932201B
:1017B00002F0A9F84FF4D0511320FFF70CF90621DD
:1017C000292002E0F80300208AE0FFF704F90D2148
:1017D0002B20FFF700F9322002F095F8002120209D
:1017E000FFF7F9F800212120FFF7F5F8322002F089
:1017F0008AF800213020FFF7EEF840F20461312032
:10180000FFF7E9F840F205313220FFF7E4F8002154
:101810003520FFF7E0F840F609413620FFF7DBF806
:101820004FF401713720FFF7D6F840F2013138202C
:10183000FFF7D1F840F207713920FFF7CCF800210B
:101840003C20FFF7C8F840F60A213D20FFF7C3F817
:10185000322002F058F800215020FFF7BCF8EF21A9
:101860005120FFF7B8F800215220FFF7B4F840F2FA
:101870003F115320FFF7AFF84FF427416020FFF7E7
:10188000AAF801216120FFF7A6F800216A20FFF7DE
:10189000A2F800218020FFF79EF800218120FFF7A9
:1018A0009AF800218220FFF796F800218320FFF7A5
:1018B00092F800218420FFF78EF800218520FFF7A1
:1018C0008AF810219020FFF786F84FF4C06192202B
:1018D000FFF781F840F233110720FFF77CF871E53C
:1018E000FE48808849F2203188427DD10021084697
:1018F000FFF771F84FF480710120FFF76CF84FF497
:10190000E0610220FFF767F841F230010320FFF7A2
:1019100062F800210420FFF75EF840F2022108205F
:10192000FFF759F800210920FFF755F800210A2098
:10193000FFF751F801210C20FFF74DF800210D2091
:10194000FFF749F800210F20FFF745F8322001F09A
:10195000DAFF40F201110720FFF73DF8322001F0D5
:10196000D2FF4FF486511020FFF735F807211120E0
:10197000FFF731F84FF488711220FFF72CF84FF47D
:1019800030611320FFF727F800212920FFF723F803
:1019900044F210012B20FFF71EF800215020FFF722
:1019A0001AF8EF215120FFF716F800215220FFF717
:1019B00012F840F23F115320FFF70DF84FF41C517D
:1019C0006020FFF708F801216120FFF704F80021EB
:1019D0006A20FFF700F800218020FEF7FCFF0021BD
:1019E0008120FEF7F8FF00E02EE000218220FEF7C4
:1019F000F2FF00218320FEF7EEFF00218420FEF796
:101A0000EAFF00218520FEF7E6FF10219020FEF777
:101A1000E2FF00219220FEF7DEFF01219320FEF776
:101A2000DAFF4FF488719520FEF7D5FF002197204B
:101A3000FEF7D1FF00219820FEF7CDFF40F2731191
:101A40000720FEF7C8FFBDE4A448808849F2313181
:101A500088427DD141F21401E720FEF7BCFF4FF42C
:101A600080710120FEF7B7FF4FF400710220FEF7EE
:101A7000B2FF41F238010320FEF7ADFF40F2022130
:101A80000820FEF7A8FF00210920FEF7A4FF00218F
:101A90000A20FEF7A0FF00210C20FEF79CFF00218A
:101AA0000D20FEF798FF00210F20FEF794FF002184
:101AB0001020FEF790FF07211120FEF78CFF002178
:101AC0001220FEF788FF00211320FEF784FFC820B4
:101AD00001F019FF41F290611020FEF77CFF40F207
:101AE00027211120FEF777FF322001F00CFF0C2197
:101AF0001220FEF770FF322001F005FF4FF4006165
:101B00001320FEF768FF11212920FEF764FF0B2147
:101B10002B20FEF760FF322001F0F5FE002120208F
:101B2000FEF759FF40F23F112120FEF754FF00213C
:101B30003020FEF750FF4FF483713120FEF74BFF4A
:101B400000213220FEF747FF4FF40171352000E0FD
:101B500064E0FEF740FF41F20A613620FEF73BFFEA
:101B600040F207713720FEF736FF4FF483713820BB
:101B7000FEF731FF40F207713920FEF72CFF40F2EB
:101B800002413C20FEF727FF40F60F413D20FEF7C3
:101B900022FF00215020FEF71EFFEF215120FEF70B
:101BA0001AFF00215220FEF716FF40F23F1153208A
:101BB000FEF711FF4FF41C516020FEF70CFF0121CE
:101BC0006120FEF708FF00216A20FEF704FF0021D4
:101BD0008020FEF700FF00218120FEF7FCFE00219F
:101BE0008220FEF7F8FE00218320FEF7F4FE00219C
:101BF0008420FEF7F0FE00218520FEF7ECFE102188
:101C00009020FEF7E8FE4FF4C0619220FEF7E3FE5D
:101C100040F233110720FEF7DEFE85E42F4880886E
:101C200045F2084188427DD14FF480710120FEF7D2
:101C3000D2FE4FF4E0610220FEF7CDFE41F230010A
:101C40000320FEF7C8FE00210420FEF7C4FE40F288
:101C500007210820FEF7BFFE00210920FEF7BBFE8A
:101C600000210A20FEF7B7FE00210C20FEF7B3FE8C
:101C700000210D20FEF7AFFE00210F20FEF7ABFE86
:101C8000142001F040FE41F2B0611020FEF7A3FEE7
:101C900001211120FEF79FFE01211720FEF79BFE78
:101CA0004FF49C711220FEF796FE4FF40061132052
:101CB000FEF791FE09212920FEF78DFE09212A2039
:101CC000FEF789FE0021A420FEF785FE00215020AA
:101CD000FEF781FEEF21512002E00000F803002012
:101CE000FEF779FE00215220FEF775FE40F23F110B
:101CF0005320FEF770FE4FF41C516020FEF76BFE80
:101D000001216120FEF767FE00216A20FEF763FED5
:101D100000218020FEF75FFE00218120FEF75BFEA0
:101D2000002100E028E08220FEF755FE00218320FC
:101D3000FEF751FE00218420FEF74DFE0021852094
:101D4000FEF749FE13219020FEF745FE0021922068
:101D5000FEF741FE03219320FEF73DFE4FF488710C
:101D60009520FEF738FE40F273110720FEF733FE90
:101D7000322001F0C8FDB5E4FE48808841F20551EB
:101D800088427DD100210720FEF725FE322001F098
:101D9000BAFD4FF48E711220FEF71DFE0121A42022
:101DA000FEF719FE0F210820FEF715FE08210A2074
:101DB000FEF711FE08210D20FEF70DFE40F207711F
:101DC0003020FEF708FE07213120FEF704FE40F226
:101DD00003613220FEF7FFFD4FF4E0613320FEF790
:101DE000FAFD40F202213420FEF7F5FD02213520F4
:101DF000FEF7F1FD41F60F713620FEF7ECFD40F2E3
:101E000007713720FEF7E7FD00213820FEF7E3FDDC
:101E100000213920FEF7DFFD40F207713A20FEF77E
:101E2000DAFD00213B20FEF7D6FD07213C20FEF71E
:101E3000D2FD00213D20FEF7CEFD322001F063FDF2
:101E400001210720FEF7C7FD01211720FEF7C3FD82
:101E5000322001F058FD4FF4BD511020FEF7BBFDBC
:101E600040F217211120FEF7B6FD4FF48F711220BA
:101E7000FEF7B1FD4FF470611320FEF7ACFD00E0FA
:101E800095E000212A20FEF7A6FD0A212920FEF771
:101E9000A2FD4FF49F711220FEF79DFD00215020FE
:101EA000FEF799FDEF215120FEF795FD002152200C
:101EB000FEF791FD40F23F115320FEF78CFD4FF4E9
:101EC0001C516020FEF787FD01216120FEF783FD94
:101ED00000216A20FEF77FFD00218020FEF77BFDB8
:101EE00000218120FEF777FD00218220FEF773FD9F
:101EF00000218320FEF76FFD00218420FEF76BFD9B
:101F000000218520FEF767FD13219020FEF763FD79
:101F10004FF440719220FEF75EFD05219320FEF7FD
:101F20005AFD00219520FEF756FD00219720FEF76F
:101F300052FD00219820FEF74EFD4FF480710120E4
:101F4000FEF749FD4FF4E0610220FEF744FD41F247
:101F500038010320FEF73FFD00210420FEF73BFD82
:101F600000210C20FEF737FD00210F20FEF733FD86
:101F700000212020FEF72FFD00212120FEF72BFD60
:101F800021210720FEF727FD142001F0BCFC612170
:101F90000720FEF720FD142001F0B5FC40F273117C
:101FA0000720FEF718FD142001F0ADFC97E47148FE
:101FB00080884BF2055188427ED100210846FEF709
:101FC0000AFD00210846FEF706FD00210846FEF73F
:101FD00002FD00210846FEF7FEFC0121A420FEF7C9
:101FE000FAFC142001F08FFC4FF41C516020FEF726
:101FF000F2FC40F202210820FEF7EDFC4FF40571DF
:102000003020FEF7E8FC43F215713120FEF7E3FCC7
:1020100040F204613220FEF7DEFC40F61661332008
:10202000FEF7D9FC42F211213420FEF7D4FC4FF424
:10203000A8513520FEF7CFFC48F207513620FEF7B5
:10204000CAFC41F207413720FEF7C5FC41F20341CB
:102050003820FEF7C0FC20213920FEF7BCFC1A21F5
:102060009020FEF7B8FC00211020FEF7B4FC0721F9
:102070001120FEF7B0FC00211220FEF7ACFC00217D
:102080001320FEF7A8FC142001F03DFC4FF4E6619C
:102090001020FEF7A0FC40F237111120FEF79BFC48
:1020A000142001F030FC4FF4DC711220FEF793FC99
:1020B000142001F028FC00E087E04FF47061132049
:1020C000FEF789FC80212A20FEF785FC4821292083
:1020D000FEF781FC142001F016FC4FF48071012002
:1020E000FEF779FC4FF4E0610220FEF774FC41F248
:1020F00038010320FEF76FFC40F202210820FEF7B2
:102100006AFC00210A20FEF766FC00210C20FEF785
:1021100062FC00210D20FEF75EFC30210E20FEF750
:102120005AFC00215020FEF756FCEF215120FEF70B
:1021300052FC00215220FEF74EFC40F23F1153208A
:10214000FEF749FC4FF41C516020FEF744FC0121CE
:102150006120FEF740FC00216A20FEF73CFC1121C3
:102160009020FEF738FC4FF4C0619220FEF733FC5C
:1021700002E00000F803002040F202419320FEF745
:102180002AFC02219420FEF726FC142001F0BBFB60
:1021900001210720FEF71FFC142001F0B4FB612190
:1021A0000720FEF718FC40F273110720FEF713FC1E
:1021B00000212020FEF70FFC00212120FEF70BFC60
:1021C00022210020FEF707FC14E3FE4880884CF231
:1021D000055188427ED100210846FEF7FCFB002114
:1021E0000846FEF7F8FB142001F08DFB002108469D
:1021F000FEF7F1FB00210846FEF7EDFB0021084643
:10220000FEF7E9FB00210846FEF7E5FB0121A420CB
:10221000FEF7E1FB142001F076FB4FF41C51602027
:10222000FEF7D9FB40F606010820FEF7D4FB40F28A
:1022300003713020FEF7CFFB01213120FEF7CBFBED
:1022400004213220FEF7C7FB4FF481713320FEF7E3
:10225000C2FB4FF440713420FEF7BDFB40F2031186
:102260003520FEF7B8FB1F213620FEF7B4FB40F205
:1022700003713720FEF7AFFB01213820FEF7ABFBDF
:1022800004213920FEF7A7FB15219020FEF7A3FBC0
:102290004FF482611020FEF79EFB40F2472111208F
:1022A000FEF799FB4FF4DE711220FEF794FB4FF41A
:1022B00060611320FEF78FFB782001F024FB4FF4C0
:1022C00080710120FEF787FB4FF400710220FEF7BA
:1022D00082FB00E050E041F230010320FEF77BFB7F
:1022E00008210A20FEF777FB00210C20FEF773FB84
:1022F00020210E20FEF76FFB00210F20FEF76BFB65
:1023000000212020FEF767FB00212120FEF763FB60
:102310003D212A20FEF75FFB142001F0F4FA2D2165
:102320002920FEF758FB00215020FEF754FB4DF208
:10233000EF015120FEF74FFB00215220FEF74BFB2F
:1023400040F23F115320FEF746FB00216120FEF7CB
:1023500042FB00216A20FEF73EFB4FF440719220C1
:10236000FEF739FB05219320FEF735FB4FF4807112
:102370000720FEF730FB3DE29248808848F689113D
:1023800088427DD101210020FEF725FB4AF6A401F9
:102390000320FEF720FB00210C20FEF71CFB40F67B
:1023A0000C010D20FEF717FB4FF42C510E20FEF709
:1023B00012FBB0211E20FEF70EFB42F63F3101203A
:1023C000FEF709FB4FF4C0610220FEF704FB002179
:1023D0001020FEF700FB46F278011120FEF7FBFA11
:1023E00000210520FEF7F7FA00210620FEF7F3FA98
:1023F0004EF61C711620FEF7EEFA03211720FEF7A9
:10240000EAFA40F233210720FEF7E5FA00210B201B
:10241000FEF7E1FA00210F20FEF7DDFA002141204E
:10242000FEF7D9FA00214220FEF7D5FA0021482014
:10243000FEF7D1FA40F23F114920FEF7CCFA002115
:102440004A20FEF7C8FA00214B20FEF7C4FA4FF4E9
:102450006F414420FEF7BFFA00214520FEF7BBFA8A
:1024600040F23F114620FEF7B6FA40F207713020E5
:10247000FEF7B1FA4FF401713120FEF7ACFA00E03B
:102480003DE04FF401713220FEF7A5FA40F202510F
:102490003320FEF7A0FA40F207513420FEF79BFAF2
:1024A0004FF401713520FEF796FA4FF40171362092
:1024B000FEF791FA40F202513720FEF78CFA40F213
:1024C00002313A20FEF787FA40F202313B20FEF754
:1024D00082FA00212320FEF77EFA00212420FEF755
:1024E0007AFA4FF400412520FEF775FA00214F20BB
:1024F000FEF771FA00214E20FEF76DFA7AE13148BD
:10250000808844F2315188427DD101210020FEF7BC
:1025100062FA0A2001F0F7F941F228611020FEF773
:102520005AFA0E211220FEF756FA40F639211320EE
:10253000FEF751FA0A2001F0E6F940211120FEF7DA
:102540004AFA50211520FEF746FA0A2001F0DBF97D
:102550001E211220FEF73FFA0A2001F0D4F94FF4B1
:10256000B1511020FEF737FA42F639211320FEF759
:1025700032FA0A2001F0C7F94FF480710120FEF70A
:102580002AFA4FF440710220FEF725FA41F2380191
:102590000320FEF720FA40F202210820FEF71BFA82
:1025A00008210A20FEF717FA00213020FEF713FA5F
:1025B00040F202413120FEF70EFA4FF483713220CF
:1025C00002E00000F8030020FEF705FA40F2035194
:1025D0003320FEF700FA4FF482713420FEF7FBF946
:1025E00040F201313520FEF7F6F940F2077136204E
:1025F000FEF7F1F940F205313720FEF7ECF94FF420
:102600000271382000E040E0FEF7E5F940F60B717A
:102610003920FEF7E0F902214120FEF7DCF94FF402
:102620001C516020FEF7D7F901216120FEF7D3F994
:102630004FF404719020FEF7CEF94FF4857192208B
:10264000FEF7C9F904219320FEF7C5F94FF4807114
:10265000A020FEF7C0F901210720FEF7BCF92121D7
:102660000720FEF7B8F923210720FEF7B4F933213C
:102670000720FEF7B0F940F233110720FEF7ABF95F
:102680000021A020FEF7A7F9B4E0FB48808844F2BF
:1026900035518842F8D130211520FEF79CF91021E0
:1026A0009A20FEF798F920211120FEF794F943F2C1
:1026B00028411020FEF78FF902211220FEF78BF936
:1026C00041F238011320FEF786F9282001F01BF9AA
:1026D00012210846FEF77FF9282001F014F943F291
:1026E00020411020FEF777F943F238011320FEF75E
:1026F00072F9462001F007F900213020FEF76BF94E
:1027000040F202413120FEF766F940F207313220F3
:10271000FEF761F94FF441713320FEF75CF90421B3
:102720003420FEF758F940F201413520FEF753F905
:1027300040F207713620FEF74EF940F2053137209E
:10274000FEF749F94FF4C2613820FEF744F94FF41F
:10275000C2613920FEF73FF94FF480710120FEF786
:102760003AF94FF440710220FEF735F941F2300199
:102770000320FEF730F940F608010820FEF72BF998
:1027800008210A20FEF727F94FF41C516020FEF7BC
:1027900022F901216120FEF71EF94FF49F7190206C
:1027A000FEF719F94FF480719220FEF714F94FF4F7
:1027B00080719320FEF70FF94FF44051A020FEF7EF
:1027C0000AF91021A320FEF706F901210720FEF7E0
:1027D00002F921210720FEF7FEF823210720FEF74A
:1027E000FAF833210720FEF7F6F840F233110720FC
:1027F000FEF7F1F80020FEF73FFB01209F4908603B
:102800004FF6FF70FEF7AFFB1FB000BD2DE9F04F94
:1028100005460E4617469846DDF824A04FF0000BFB
:10282000781B401C1FFA80FB344613E021462846E3
:10283000FEF7FEF8FEF7DFF84FF0000906E050461D
:10284000FEF7C1F809F101001FFA80F9D945F6DB5E
:10285000601C84B24445E9DDBDE8F08F2DE9F84FF6
:1028600007460D4690469946DDF828B0A8EB0700CC
:10287000401C80B20090A9EB0500401C1FFA80FAB2
:10288000002415E0281981B23846FEF7D1F8FEF78A
:10289000B2F8002607E004FB0A603BF81000784914
:1028A0000880701C86B200988642F4DB601C84B2FB
:1028B0005445E7DBBDE8F88F2DE9FF4F84B0814632
:1028C0008A460020039002900698A0EB090507981D
:1028D000A0EB0A06CDF80490CDF800A0002D01DD94
:1028E000012705E00DB9002702E04FF0FF376D42E8
:1028F000002E02DD4FF0010806E016B94FF0000887
:1029000002E04FF0FF387642B54201DD2C4600E090
:1029100034464FF0000B21E0009A91B2019A90B238
:10292000FEF75CFA03982844039002983044029022
:102930000398A04205DD0398001B039001983844DA
:1029400001900298A04205DD0298001B02900098B9
:10295000404400900BF101001FFA80FB601C83458E
:10296000DADD08B0BDE8F08FF0B504460D46164636
:102970001F462B46324629462046FFF79DFF3B4621
:10298000224629462046FFF797FF3B463246394606
:102990002046FFF791FF3B46324629463046FFF777
:1029A0008BFFF0BD2DE9F04306460F46904600240C
:1029B00045460320A0EB48093CE07A1B91B232194E
:1029C00090B2FEF70BFA3A1B91B2721990B2FEF771
:1029D00005FA3A1991B2721990B2FEF7FFF97A1915
:1029E00091B2321990B2FEF7F9F97A1991B2321B0D
:1029F00090B2FEF7F3F93A1991B2721B90B2FEF75A
:102A0000EDF97A1B91B2321B90B2FEF7E7F93A1B4F
:102A100091B2721B90B2FEF7E1F9641CB9F1000F9C
:102A200003DAA000801D814404E0601B80000A30AE
:102A300081446D1EAC42C0DDBDE8F0832DE9F84F46
:102A400005460F4690461E4600970E48B0F8009087
:102A5000A8F1200000F0FF080A98002859D10024AE
:102A600054E00C2E12D108EB4800074901EB80001E
:102A700010F804A00FE00000F8030020808121423C
:102A80000008006C1600002004BC0008B94800EBE8
:102A9000081010F804A04FF0000B31E00AF080009D
:102AA00018B1B548A0F8009003E0B4480088B249D6
:102AB000088039462846FEF791F94FEA4A604FEA06
:102AC000106A781C87B2AE480088A84204DCAA4885
:102AD000A0F80090BDE8F88F0098381AB0420BD1EA
:102AE000009F681C85B2A6480088A84203DCA24863
:102AF000A0F80090EEE706E00BF1010000F0FF0BFC
:102B0000BBF1080FCADB00BF601CC4B2B442A8DB33
:102B100044E0002440E00C2E07D108EB480099491E
:102B200001EB800010F804A004E0924800EB0810CC
:102B300010F804A04FF0000B28E00AF0800018B154
:102B400039462846FEF74AF94FEA4A604FEA106ACA
:102B5000781C87B28A484088A84203DC8648A0F8DF
:102B60000090B7E70098381AB0420BD1009F681C5C
:102B700085B283480088A84203DC7F48A0F8009013
:102B8000A8E706E00BF1010000F0FF0BBBF1080F16
:102B9000D3DB00BF601CC4B2B442BCDB7648A0F8F3
:102BA000009000BF96E710B50246012000E05043B8
:102BB0000B00A1F10104E1B2F9D110BD2DE9FF4FE5
:102BC00081B0074691461E460E9D4FF0000A002434
:102BD00039E0301B401EC1B20A20FFF7E4FFB9FB09
:102BE000F0F00A21B0FBF1F201FB1208BAF1000F7C
:102BF00016D1701EA04213DDB8F1000F0ED10020D7
:102C0000AB4605EBDB71491001FB0471009088B203
:102C10002B4620220299FFF711FF12E04FF0010A24
:102C20000020AB4605EBDB71491001FB04710090FD
:102C300088B208F13001CAB22B460299FFF7FEFEB6
:102C400000BF601CC4B2B442C3DB05B0BDE8F08F66
:102C50002DE9FF4F82B0064692461F46DDE90F4838
:102C60000020019000254DE0781B401EC1B20A20D3
:102C7000FFF799FFBAFBF0F00A21B0FBF1F201FB7C
:102C80001209019850BB781EA84227DDB9F1000F48
:102C900022D108F0800078B108F00100A34604EBCF
:102CA000DB71491001FB0561009088B22346302298
:102CB0000399FFF7C3FE0EE008F00100A34604EB02
:102CC000DB71491001FB0561009088B22346202288
:102CD0000399FFF7B3FE13E00120019008F0010013
:102CE000A34604EBDB71491001FB0561009088B23B
:102CF00009F13001CAB223460399FFF79FFE00BFD6
:102D0000681CC5B2BD42AFDB06B0BDE8F08F2DE94F
:102D1000F84704460D4690469946DDE9096704F0F8
:102D2000FF0A08EB04001FFA80F809EB05001FFA00
:102D300080F916E0444502DB5446A81985B24D459A
:102D400000DB14E0002000903A7833462946204604
:102D5000FFF774FE304606EBD07104EB61018CB2D4
:102D60007F1C38787E2802DC38782028E2DA00BF21
:102D7000BDE8F88778C00008160000201800002081
:102D8000F803002004BC000870B50546002405E0E7
:102D9000601CC4B2C82C01DD002070BD02213A487D
:102DA00001F0EBFE0028F3D02946374801F092FEEF
:102DB000002405E0601CC4B2C82C01DD0020ECE753
:102DC0000121314801F0D9FE0028F3D02E4801F04E
:102DD00083FEC0B2E1E700B587B00121082001F011
:102DE00019FD0121880301F022FD4FF46040ADF888
:102DF000180018208DF81B0003208DF81A0006A972
:102E0000224801F04BFA4FF46041204801F0F3FAF8
:102E10000020ADF804004FF48270ADF806000020E9
:102E2000ADF808000220ADF80A000120ADF80C0052
:102E30004002ADF80E003820ADF810000020ADF8CB
:102E400012000720ADF8140001A90F4801F06CFD35
:102E500001210D4801F00DFEFF20FFF795FF07B09F
:102E600000BD10B50446084800884FF6C7710840F9
:102E7000054908800846008820430880012102484F
:102E800001F0F7FD10BD000000380040000C0140CB
:102E900010B500240020D84908609020FFF774FF87
:102EA0000020FFF771FF0020FFF76EFF0020FFF703
:102EB0006BFFFF20FFF768FF44EA0024FF20FFF7C5
:102EC00063FF04430120CD49C1F8B001204610BD85
:102ED00008B501214FF4947001F09CFC4FF4805030
:102EE000ADF8000010208DF8030003208DF80200DB
:102EF0006946C34801F0D2F94FF48051C04801F04F
:102F00007AFA0420ADF800006946BE4801F0C6F91F
:102F10000421BC4801F06FFA8020ADF8000069463A
:102F2000B94801F0BBF98021B74801F064FAFFF716
:102F300052FF0020FFF795FFFFF7AAFFB349088073
:102F400008BD10B500240020AB4908600520FFF73C
:102F50001BFFFF20FFF718FF04460120A749C1F817
:102F6000B001204610BD10B504460020A2490860FB
:102F70000120FFF709FF2046FFF706FF01209F49C8
:102F8000C1F8B00110BD10B500209B4908600620B3
:102F9000FFF7FAFE01209949C1F8B00110BD10B544
:102FA0000020954908600420FFF7EEFE01209349B8
:102FB000C1F8B00110BD2DE9F04106460C46174698
:102FC00000208D4908600320FFF7DEFEC4F30740B0
:102FD000FFF7DAFEC4F30720FFF7D6FEE0B2FFF7F3
:102FE000D3FE002505E0FF20FFF7CEFE7055681CDC
:102FF00085B2BD42F7DB01207F490860BDE8F08162
:1030000010B500BFFFF79DFF00F001000028F9D1C7
:1030100010BD2DE9F04106460C461746FFF7B3FFF9
:103020000020754908600220FFF7AEFEC4F3074098
:10303000FFF7AAFEC4F30720FFF7A6FEE0B2FFF7F2
:10304000A3FE002504E0705DFFF79EFE681C85B2BC
:10305000BD42F8DB012068490860FFF7D1FFBDE8F9
:10306000F0812DE9F04107460E461446F0B2C0F556
:103070008075AC4200DC254612E02A4631463846CF
:10308000FFF7C7FFAC4200D10BE02F442E44601B7A
:1030900084B2B4F5807F02DD4FF4807500E02546F0
:1030A000EBE700BFBDE8F08110B504462403FFF74D
:1030B0006AFFFFF7A5FF00204F4908602020FFF7B7
:1030C00063FEC4F30740FFF75FFEC4F30720FFF77A
:1030D0005BFEE0B2FFF758FE01204849C1F8B0019D
:1030E000FFF78EFF10BD2DE9F04781460F461646CB
:1030F0004FEA1738C7F30B0ACAF58054A64200DC22
:10310000344644E04FEA08314FF480524048FFF71C
:1031100052FF002508E00AEB05003D49085CFF2846
:1031200000D003E0681C85B2A542F4DB00BFA542D5
:1031300016DA4046FFF7B8FF002507E019F805004A
:1031400005EB0A01324A5054681C85B2A542F5DBF2
:103150004FEA08314FF480522D48FFF782FF04E018
:10316000224639464846FFF77CFFA64200D10FE0D1
:1031700008F101084FF0000AA1442744301B86B231
:10318000B6F5805F02DD4FF4805400E03446B9E7C5
:1031900000BFBDE8F08710B5FFF7F5FEFFF730FF81
:1031A000002015490860C720FFF7EEFD01201349F4
:1031B000C1F8B001FFF724FF10BD10B500200E4983
:1031C0000860B920FFF7E0FD01200C49C1F8B0010B
:1031D000032000F074FB10BD10B500200649086004
:1031E000AB20FFF7D1FD01200449C1F8B001032055
:1031F00000F065FB10BD0000B0812142008021423B
:10320000000C014000140140002001401A00002081
:103210000204002000B597B001214FF4F07001F0D6
:10322000F9FA0121080201F0E8FA4FF63370ADF81F
:10323000000018208DF8030003208DF80200694675
:10324000364801F02BF84FF68370ADF80000694660
:10325000334801F023F84FF23F00ADF80000694613
:10326000304801F01BF840F23F40ADF800006946DD
:103270002D4801F013F800200190029003200390E4
:1032800000200490059006900790042008900020EC
:1032900009900A9010200B9000200C900E900D9039
:1032A0000F9010904FF480501190002012901390C6
:1032B000149001A81590169008A800F0D5FC0121E3
:1032C000042000F039FE17B000BD10B506E0047808
:1032D0004FF0D0435C54891C401C521E002AF6D18A
:1032E00010BD06E04FF0D0435B5C00F8013B891C49
:1032F000521E002AF6D1704713B50C460122214612
:103300006846FFF7E2FF1CBD18B5044601222146BE
:103310006846FFF7E6FF9DF8000018BD0014014065
:1033200000180140001C01400020014010B5044677
:103330002046FFF729FD10BD10B53820FFF791FD9D
:1033400010BD10B50020FFF78CFD10BD08B50121A0
:103350004FF4947001F05EFA4FF48050ADF8000025
:1033600010208DF8030003208DF802006946FE4806
:1033700000F094FF4FF48051FB4801F03CF804202A
:10338000ADF800006946F94800F088FF0421F748CD
:1033900001F031F88020ADF800006946F44800F0F3
:1033A0007DFF8021F24801F026F8FFF714FD01208F
:1033B000F049086008BD10B50120EE490860FF2003
:1033C000FFF7B4FF10BD10B5002400BFFF20FFF7CA
:1033D000ADFFFF2801D1002010BD641C6FF07F40BD
:1033E0008442F3D30120F7E710B50020E1490860DB
:1033F000FFF7E9FF08B9002010BDFFF7DCFF01204F
:10340000FAE770B505464FF6FF7401E0601E84B21E
:10341000FF20FFF78BFFA84201D0002CF6D10CB99A
:10342000FF2070BD0020FCE770B504460D46FE206D
:10343000FFF7E7FF08B1012070BD04E0FF20FFF7B0
:10344000A3FC2070641C2800A5F101018DB2F5D108
:10345000FF20FFF76BFFFF20FFF768FF0020EBE77F
:1034600070B506460D46FFF7AEFF08B1012070BDEE
:103470002846FFF75BFFFD2D19D0002404E0305DE6
:10348000FFF782FC601C84B2B4F5007FF7DBFF20FD
:10349000FFF74CFFFF20FFF749FFFF20FFF746FF34
:1034A000044604F01F00052801D00220DFE70020B9
:1034B000DDE72DE9F04105460C4617464FF00008C0
:1034C000FFF779FFFFF790FF10B1FF20BDE8F08113
:1034D00045F04000FFF72AFF200EFFF727FFC4F357
:1034E0000740FFF723FFC4F30720FFF71FFFE0B2F9
:1034F000FFF71CFF3846FFF719FF0C2D02D1FF2004
:10350000FFF714FF4FF01F0800BFFF20FFF70EFF6B
:10351000064606F0800030B15FEA0800A8F101011C
:1035200001F0FF08F1D13046D0E770B50546012221
:1035300000210A20FFF7BDFF044624B910212846C8
:10354000FFF772FF0446FFF736FF0CB1012070BD94
:103550000020FCE770B50546012200210920FFF795
:10356000A8FF044624B910212846FFF75DFF044652
:10357000FFF721FF0CB1012070BD0020FCE77FB5F3
:103580006846FFF7E7FF10B1002004B070BD9DF85A
:10359000000000F0C000402809D19DF809009DF806
:1035A000081000EB0120401C84B2A50220E09DF829
:1035B000050000F00F009DF80A1000EBD1109DF8F7
:1035C000091001F0030100EB4100861C9DF8080082
:1035D00080119DF8071000EB81009DF8061001F0A6
:1035E000030100EB8120441CA6F1090004FA00F558
:1035F0002846CAE7F8B5FFF7A9FEFFF79DFE0025AC
:1036000004E0FF20FFF792FE681C85B20A2DF8DB6C
:10361000142600BF952200210846FFF74AFF044602
:10362000012C04D03000A6F101018EB2F2D10020AD
:1036300051490870012C4AD187224FF4D5710820D6
:10364000FFF737FF012847D1002506E0FF20FFF7ED
:103650006DFE0DF80500681C85B2042DF6DB9DF8A3
:103660000200012879D19DF80300AA2875D14FF6F0
:10367000FE7600BF012200213720FFF71AFF01224A
:1036800091072920FFF715FF044624B13000A6F169
:1036900001018EB2EED1002E5FD0012200213A202E
:1036A000FFF707FF002858D1002506E0FF20FFF7AD
:1036B0003DFE0DF80500681C85B2042DF6DB9DF873
:1036C000000000F0400018B106202B49087044E0CB
:1036D00004202949087040E0012200213720FFF72B
:1036E000E8FE012200212920FFF7E3FE0446012C19
:1036F00017DC0220204908704FF6FE7600BF012239
:1037000000213720FFF7D5FE012200212920FFF7F5
:10371000D0FE0446BCB13000A6F101018EB2EED15C
:1037200011E00120144908704FF6FE7600BF012217
:1037300000211046FFF7BDFE044624B13000A6F17B
:1037400001018EB2F3D12EB1012251021020FFF7F8
:10375000B0FE10B1002008490870FFF72CFEFFF7FB
:10376000F0FD0548007809E0000C0140001401401C
:1037700000200140888122421C00002008B1002066
:10378000F8BD0CB12046FBE7AA20F9E72DE9F0418E
:1037900006460F4615463C480078062800D07F02B2
:1037A000012D0CD1012239461120FFF782FE04467B
:1037B000FCB969023046FFF737FE044619E00122E2
:1037C00039461220FFF775FE044600BF4FF4007122
:1037D0003046FFF729FE044606F50076681EC0B2A3
:1037E000050001D0002CF1D0012200210C20FFF7B0
:1037F00060FEFFF7E0FD2046BDE8F0812DE9F041D5
:1038000006460F46154620480078062800D07F025D
:10381000012D0CD1012239461820FFF74AFE04463B
:103820006CBBFE213046FFF71BFE044627E016481E
:103830000078012809D0012200213720FFF739FE46
:10384000012229461720FFF734FE012239461920AC
:10385000FFF72FFE044694B900BFFC213046FFF766
:10386000FFFD044606F50076681EC0B2050001D0D3
:10387000002CF2D0FD210020FFF7F2FD0446FFF7F7
:103880009AFD2046BDE8F0811C00002010B56FF0C5
:10389000040000F07EF92E4800682E49B0FBF1F0DC
:1038A0002D4908700846007800EB4001C1EBC010BC
:1038B0004FF6FF7101EAC0002849088010BD01469B
:1038C000254A12784A434FF0E0235A6100229A6158
:1038D0001A46126942F001021A6100BF4FF0E0225D
:1038E000106900F001021AB100F48032002AF5D00C
:1038F0004FF0E022126922F001024FF0E0231A613A
:1039000000229A6170470146144A12884A434FF0D8
:10391000E0235A6100229A611A46126942F00102BC
:103920001A6100BF4FF0E022106900F001021AB1E5
:1039300000F48032002AF5D04FF0E022126922F024
:1039400001024FF0E0231A6100229A6170470000E3
:103950000000002000127A001E000020200000203D
:1039600010B54FF4A06000F0C5F810BD014600BFCF
:10397000704700BF4B4A128802F04002002AF9D07B
:10398000C2B2484B1B1D1A80704710B586B0044662
:10399000012144F2040000F03DFF424802F032F8F9
:1039A0004FF40070ADF8140003208DF816001820B5
:1039B0008DF8170005A93C4800F070FC4FF48060BA
:1039C000ADF8140004208DF8170005A9364800F062
:1039D00065FC25208DF8000003208DF801008DF88E
:1039E000020001208DF80300684600F088F8019479
:1039F0000020ADF80800ADF80A00ADF80C00ADF8F5
:103A000010000C20ADF80E0001A9264802F03DF888
:103A1000012240F22551234802F0CFF8012121482C
:103A200002F0BFF806B010BD10B540F225511D4898
:103A300002F0A8F910B31B4802F024F9C4B21B48E5
:103A4000008800F40040C8B91848008800F480409D
:103A500060B10A2C03D000201449088020E01348EC
:103A6000008840F400401149088019E00D2C06D16F
:103A70000E48008840F480400C49088010E00B4854
:103A80000088C0F30D000A490C5408480088401C07
:103A90000649088008460088C72801DD0020088004
:103AA00010BD00000038014000080140280000203F
:103AB000021400200948804709480047FEE7FEE756
:103AC000FEE7FEE7FEE7FEE7FEE7FEE7FEE7FEE7CE
:103AD00004480549054A064B70470000770700086F
:103AE0003101000890BF002090C5002090C1002047
:103AF00090C1002031490143314A1160704770B5CF
:103B0000002100230F22C47804B32D4C246804F450
:103B1000E064C4F5E064210AC1F10403CA404478BA
:103B200004FA03F18478144021430901254C0678F6
:103B3000A155047804F01F050124AC4005786D11EF
:103B4000AD0005F1E025C5F8004109E0047804F076
:103B50001F050124AC401C4D0678761145F826401F
:103B600070BD1A4A0A400243154B1B1F1A6070476A
:103B700039B1134A121D12680243114B1B1D1A6002
:103B800006E00F4A121D126882430D4B1B1D1A607E
:103B90007047042808D14FF0E021096941F0040181
:103BA0004FF0E022116107E04FF0E021096921F0B8
:103BB00004014FF0E0221161704700000000FA0597
:103BC0000CED00E000E400E080E100E080FFFF1F7A
:103BD00030B943F2DB028100A1F1C0410A6005E087
:103BE00043F2D2028100A1F1C0410A606FF070423D
:103BF000411C8900A1F1C0410A608100A1F1C041CE
:103C0000C1F80421704710280AD118214FF0204232
:103C10001166402151664FF0FC319166D16610E08B
:103C20001821F74A116040214FF02042C2F8841059
:103C30004FF0FC31F24A083211604FF02042C2F8D6
:103C40008C1070471820EE492031086000200906CA
:103C5000C1F8A4004FF0FC30E94928310860091D83
:103C60000860091D08607047D0E901121143C2685D
:103C70001143026911434269114382691143C269C8
:103C80001143026A1143426A1143826A1143C26AB4
:103C90001143026B114302689200A2F1C04211600D
:103CA000816808290BD101688900A1F1C041096828
:103CB00041F0400201688900A1F1C0410A60416BF6
:103CC0000968426B526841EA0211426B926841EA0C
:103CD0000221426B928941EA0241426B128A41EA17
:103CE0000251426B127D41EA0261426B92691143BB
:103CF0000268521C9200A2F1C0421160C16AB1F583
:103D0000804F1BD1816B0968826B526841EA0211B6
:103D1000826B926841EA0221826B128A41EA025167
:103D2000826B127D41EA0261826B926911430268E3
:103D30009200A2F1C042C2F8041107E06FF0704295
:103D400001688900A1F1C041C1F80421704730B574
:103D5000002100220023446844F0080485682C43B5
:103D6000C5682C4305692C43456944EA45248569A7
:103D700044EA4531C4692468C5696D6844EA05248C
:103D8000C5692D8944EA0544C5692D7B44EA05626D
:103D9000046A2468056A6D6844EA0524056A2D8969
:103DA00044EA0544056A2D7B44EA05630468102C47
:103DB00005D14FF020442166A266E36608E0904CEE
:103DC00021604FF02044C4F888208D4C0C342360CF
:103DD00030BD016841F01001426841EA4221826829
:103DE00041EA4231864A20321160C1680968C268DE
:103DF000526841EA0221C268128941EA0241C2685E
:103E0000127B41EA02617E4A283211600169096829
:103E10000269526841EA02210269128941EA0241BB
:103E20000269127B41EA0261754A2C3211604169D4
:103E300009684269526841EA02214269128941EAED
:103E400002414269127B41EA02614FF02042C2F80E
:103E5000B0107047002101600221416000218160A3
:103E6000C160016141618161C16101624FF48051B2
:103E70004162490081620021C16201630F21426BEE
:103E80001160426B5160FF21426B91600F21426BC8
:103E9000D160426B1161426B51610021426B9161B3
:103EA0000F21826B1160826B5160FF21826B9160E8
:103EB0000F21826BD160826B1161826B5161002195
:103EC000826B916170471021016000214160816027
:103ED000C160016141618161FC21C2691160C269F7
:103EE0005160C2699160C269D160026A1160026A60
:103EF0005160026A9160026AD160704700210160DE
:103F000041608160FC21C2681160C2685160C26872
:103F10009160C268D16002691160026951600269F2
:103F200091600269D16042691160426951604269E1
:103F300091604269D160704751B18200A2F1C042E4
:103F4000126842F001038200A2F1C042136009E04E
:103F50008200A2F1C04212682A4B1A408300A3F1EA
:103F6000C0431A60704799B1102808D14FF0204221
:103F7000126E42F004024FF020431A661DE0204A00
:103F8000126842F004024FF02043C3F8802014E08E
:103F9000102809D14FF02042126E1A4BDB1E1A4036
:103FA0004FF020431A6608E0154A1268154BDB1ED5
:103FB0001A404FF02043C3F88020704748B11049A1
:103FC0002031096841F004014FF02042C2F8A010EE
:103FD00009E00B49203109680A4AD21E11404FF00E
:103FE0002042C2F8A0107047B9B110280CD14FF090
:103FF0002042126E42F040024FF020431A661FE04A
:10400000800000A0FEFF0F00724A126842F04002DA
:104010004FF02043C3F8802012E0102808D14FF061
:104020002042126E6C4B1A404FF020431A6607E094
:10403000684A1268684B1A404FF02043C3F880204A
:10404000704701460020102903D14FF02042506FE5
:1040500002E0604A14321068704710B5F2B11028BF
:1040600007D14FF020435B6E0B434FF02044636653
:1040700032E0B0F5807F08D1564B1B1D1B680B4307
:104080004FF02044C4F8843026E0524B24331B68A0
:104090000B434FF02044C4F8A4301DE0102807D192
:1040A0004FF020435B6E8B434FF02044636613E078
:1040B000B0F5807F08D1474B1B1D1B688B434FF029
:1040C0002044C4F8843007E0424B24331B688B4300
:1040D0004FF02044C4F8A43010BD10B502460020B3
:1040E0000023102A03D14FF02044636E09E0B2F59B
:1040F000807F03D1374C241D236802E0354C2434E3
:10410000236803EA01040CB1012000E0002010BD87
:10411000102807D14FF02042526E8A434FF02043BF
:104120005A6613E0B0F5807F08D12A4A121D126842
:104130008A434FF02043C3F8842007E0254A243205
:1041400012688A434FF02043C3F8A420704770B52B
:1041500002460020002300240025102A03D14FF03E
:104160002046736E09E0B2F5807F03D1194E361DEB
:10417000336802E0174E2436336803EA010403EA89
:10418000D10514B10DB1012000E0002070BD102850
:1041900008D14FF02042526E22EAD1024FF0204364
:1041A0005A6615E0B0F5807F09D10A4A121D1268DF
:1041B00022EAD1024FF02043C3F8842008E0054AE8
:1041C0002432126822EAD1024FF02043C3F8A4201F
:1041D00070470000800000A0BFFF0F0010B504462C
:1041E000CC48844208D10121042000F02DFB00219D
:1041F000042000F029FB46E0C748844208D1012191
:10420000082000F021FB0021082000F01DFB3AE00F
:10421000C248844208D10121102000F015FB002182
:10422000102000F011FB2EE0BD48844208D101218E
:10423000202000F009FB0021202000F005FB22E0F7
:10424000B848844208D10121402000F0FDFA002145
:10425000402000F0F9FA16E0B348844208D1012169
:10426000802000F0F1FA0021802000F0EDFA0AE051
:10427000AE48844207D10121801500F0E5FA002103
:10428000A01500F0E1FA10BD10B50121084600F0BC
:10429000DBFA0021012000F0D7FA10BD2DE9F04132
:1042A000024600250026002000230024002791F864
:1042B00003C00CF00F0591F803C00CF0100CBCF11A
:1042C000000F03D091F802C04CEA050591F800C038
:1042D000BCF1000F31D0146800202BE04FF0010C2E
:1042E0000CFA00F3B1F800C00CEA03069E4220D19C
:1042F00083004FF00F0C0CFA03F7BC4305FA03FCE4
:104300004CEA040491F803C0BCF1280F06D14FF029
:10431000010C0CFA00FCC2F814C00AE091F803C0CA
:10432000BCF1480F05D14FF0010C0CFA00FCC2F8AB
:1043300010C0401C0828D1D31460B1F800C0BCF1F3
:10434000FF0F34DD546800202EE000F1080C4FF020
:10435000010808FA0CF3B1F800C00CEA03069E420B
:1043600021D183004FF00F0C0CFA03F7BC4305FA80
:1043700003FC4CEA040491F803C0BCF1280F05D1FA
:1043800000F1080C08FA0CF8C2F8148091F803C088
:10439000BCF1480F07D100F1080C4FF0010808FAF2
:1043A0000CF8C2F81080401C0828CED35460BDE839
:1043B000F0814FF6FF710180022181700421C170EC
:1043C00070470246002093680B400BB1012000E0CB
:1043D000002070470146886880B27047024600207E
:1043E000D3680B400BB1012000E00020704701466C
:1043F000C86880B2704701617047416170470AB177
:10440000016100E041617047C16070474FF4803244
:104410000A438261816182618269826970470246D2
:104420000020434B18684FF68073184040EA021092
:1044300008433F4B186070473E49C8617047F0B56C
:104440000A46002300240021002500F00046B6F1B2
:10445000004F02D1364EF16901E0354E7168C0F36C
:10446000034583B200F44016B6F5401F08D121F091
:1044700070612F4E766826F070662D4F7E6012E0D8
:1044800000F48016B6F5801F06D1032606FA05F45F
:10449000A14341F0706106E0460D360103FA06F6CD
:1044A000B14341F0706122B1460D360103FA06F6C0
:1044B000314300F00046B6F1004F02D11C4EF161CD
:1044C00001E01B4E7160F0BD30B500228B071C0F60
:1044D0000F2303FA04F2164B08338C1053F82430E0
:1044E0009343134C08348D1044F8253023468C1028
:1044F00053F824308C07240F00FA04F423430C4CA7
:1045000008348D1044F8253030BD0A49DC3108608C
:104510007047000000080140000C014000100140FD
:104520000014014000180140001C0140002001401F
:104530000000014000002042DF48006840F0010018
:10454000DD49086008464068DC490840DA494860AF
:1045500008460068DA490840D749086008460068FC
:1045600020F4802008600846406820F4FE0048607F
:104570004FF41F0088607047CF49096821F48031EB
:10458000CD4A11601146096821F480211160B0F50F
:10459000803F03D0B0F5802F0ED106E0C6490968F0
:1045A00041F48031C44A116007E0C349096841F40D
:1045B000A021C14A116000E000BF00BF704710B5E4
:1045C00001460022002300204A11012A02D1BA4CE0
:1045D000236806E0022A02D1B74C236A01E0B64CF8
:1045E000636A01F01F02012494401C400CB10120B9
:1045F00000E0002010BD38B5002000900024002508
:1046000000BF3120FFF7DBFF05460098401C0090FB
:104610000098B0F5A06F01D0002DF2D03120FFF747
:10462000CEFF08B1012400E00024204638BD014639
:104630000020A14A106820F0F80040EAC100106094
:104640007047A04908607047024600209A4B58689E
:1046500020F47C1042EA01031843974B58607047DE
:1046600098490866704701460020934A506820F038
:1046700003000843506070478F48406800F00C000A
:104680007047014600208C4A506820F0F000084333
:104690005060704701460020874A506820F4E0606F
:1046A00008435060704701460020834A506820F458
:1046B000605040EAC1005060704729B17E4A527A8A
:1046C00002437D4B5A7204E07B4A527A82437A4B12
:1046D0005A7270477B49D831086070470146002004
:1046E000754A506820F440400843506070470021EC
:1046F000714A20321170704A82F82010012802D0CD
:1047000004280AD104E001216B4A2032117005E02F
:104710000521694A2032117000E000BF00BF7047D8
:104720006949086070476449096A0143624A116235
:104730007047654944390860704730B50021002250
:10474000002400235C4D6D6805F00C0121B10429A3
:1047500005D0082923D105E05C4D056022E05B4DC2
:1047600005601FE0544D6D6805F47012524D6D6880
:1047700005F48034022505EB92421CB9544D554393
:1047800005600BE04C4D6D6805F400351DB1504DD2
:104790005543056002E04D4D5543056002E04B4D29
:1047A000056000BF00BF444D6D6805F0F0010909C8
:1047B000484D6B5C0568DD4045603F4D6D6805F414
:1047C000E061090A434D6B5C4568DD4085603A4D08
:1047D0006D6805F46051C90A3E4D6B5C4568DD406B
:1047E000C560354D6D6805F44041890B3A4D6B5CF1
:1047F000C568B5FBF3F5056130BD29B12E4A526994
:1048000002432D4B5A6104E02B4A526982432A4BE2
:104810005A61704729B1284A92690243264B9A612E
:1048200004E0254A92698243234B9A61704729B17B
:10483000214AD2690243204BDA6104E01E4AD26960
:1048400082431D4BDA61704729B11B4AD26802438B
:10485000194BDA6004E0184AD2688243164BDA60DA
:10486000704729B1144A12690243134B1A6104E0DC
:10487000114A12698243104B1A617047124940393C
:10488000086070470F49C86470470B49C87170478A
:104890000948406A40F08070074948627047014605
:1048A0000020054A92680A400AB1012000E0002079
:1048B0007047014988727047001002400000FFF8FD
:1048C000FFFFF6FE000042428004424200127A00DE
:1048D00000093D002A0000203A00002010B50446DF
:1048E000BE48844208D101218014FFF7ADFF0021AA
:1048F000A014FFF7A9FF16E0B948844208D10121AE
:104900000014FFF7AEFF00212014FFF7AAFF0AE012
:10491000B448844207D10121C013FFF7A2FF002150
:10492000E013FFF79EFF10BD10B50022028802F4CD
:1049300041520B884C8823438C882343CC882343E3
:104940000C8923434C8923438C892343CC892343FB
:104950001A430280838B4FF2FF74234083830B8AB8
:10496000038210BD2DE9F04F85B005460C464FF08F
:10497000000902274FF000084FF0010B0026B24655
:10498000A88B4FF240010840A88302202884B5F884
:104990001C90A068022801D100BF38E0A08810B99F
:1049A0004FF0010B01E04FF0020B8D48854200D122
:1049B00000E000BF6846FFF7C0FEDDF800A0E08819
:1049C000B0F5007F0AD14FEA1A2000EB80004000CA
:1049D000A168B0FBF1F0401D86B20BE04FEA4B102E
:1049E000BAFBF0F000EB80004000A168B0FBF1F0F2
:1049F000401D86B20A20B6FBF0F606F00108A6EBD1
:104A00000800C0F34F074FF6FF7000EA0828022F96
:104A100001DBFF2F02DD02274FF00008E08840EAAB
:104A2000080038432884A088A18908436188084386
:104A30002188084340F4006040EA0909A5F81C9069
:104A400005B0BDE8F08F0021018041808180C180E8
:104A5000018141818181C18107210182704700214B
:104A6000018041808180C18002218160002181819B
:104A7000704721B1028842F04002028004E00288BF
:104A80004FF6BF731A400280704721B1828B42F407
:104A90008062828304E0828B4FF6FF331A40828368
:104AA000704730B5002400230C110125A540ABB29E
:104AB0001AB185881D43858002E085889D438580E5
:104AC00030BD1AB183880B43838002E083888B4317
:104AD00083807047818170470146888970474FF60F
:104AE000FF62914204D0028842F48072028004E0A6
:104AF00002884FF6FF631A400280704721B1828816
:104B000042F00402828004E082884FF6FB731A4070
:104B10008280704702884FF2FF731A400280028839
:104B20000A4302807047018841F480510180704738
:104B300021B1028842F40052028004E002884DF65E
:104B4000FF731A400280704702460020012901D0FD
:104B5000108B00E0908A70470146088A7047B1F5D3
:104B6000804F04D1028842F48042028004E002882F
:104B70004BF6FF731A4002807047024600201389EB
:104B80000B400BB1012000E000207047CA430281B6
:104B90007047F0B50246002000240023002501F0F4
:104BA0000F070126BE40B4B20B1101269E40B3B2DE
:104BB000968806EA03051689264016B10DB1012034
:104BC00000E00020F0BD10B5002201F00F04012329
:104BD000A3409AB2D343038110BD000000300140CE
:104BE00000380040003C004010B50446FE488442B6
:104BF00008D10121C014FFF727FE0021E014FFF7C0
:104C000023FEC4E0B4F1804F08D101210846FFF72C
:104C100028FE00210120FFF724FEB8E0F34884427B
:104C200008D101210220FFF71CFE00210220FFF71E
:104C300018FEACE0EE48844208D101210420FFF7C1
:104C400010FE00210420FFF70CFEA0E0E94884429A
:104C500008D101210820FFF704FE00210820FFF7FA
:104C600000FE94E0E448844208D101211020FFF7BF
:104C7000F8FD00211020FFF7F4FD88E0DF488442B2
:104C800008D101212020FFF7ECFD00212020FFF7B3
:104C9000E8FD7CE0DA48844208D101214014FFF7A6
:104CA000D3FD00216014FFF7CFFD70E0D5488442AA
:104CB00009D10121C804FFF7C7FD00214FF40020EE
:104CC000FFF7C2FD63E0D048844209D10121080505
:104CD000FFF7BAFD00214FF48010FFF7B5FD56E055
:104CE000CA48844209D101214805FFF7ADFD0021E2
:104CF0004FF40010FFF7A8FD49E0C548844208D1F1
:104D000001214020FFF7ADFD00214020FFF7A9FD64
:104D10003DE0C048844208D101218020FFF7A1FD79
:104D200000218020FFF79DFD31E0BB48844208D17F
:104D300001218015FFF795FD0021A015FFF791FDDA
:104D400025E0B648844209D101210804FFF77CFD23
:104D500000214FF48030FFF777FD18E0B04884421F
:104D600009D101214804FFF76FFD00214FF4003005
:104D7000FFF76AFD0BE0AB48844208D101218804AB
:104D8000FFF762FD00214FF48020FFF75DFD10BDAD
:104D900000220288944B98420ED0994B98420BD037
:104DA000B0F1804F08D0914B984205D0904B98427B
:104DB00002D0904B984204D14FF68F731A404B8823
:104DC0001A438D4B984207D08C4B984204D04FF633
:104DD000FF431A40CB881A4302808B8883850B8857
:104DE0000385814B98420BD0854B984208D08B4B62
:104DF000984205D08A4B984202D08A4B984201D102
:104E00000B7A038601238382704770B50024002249
:104E10000023058C4FF6FE7635400584028C83888E
:104E2000048B4FF68F752C40B51E2C400D882C43FB
:104E3000751E2A400D892A434D882A436A4DA8428F
:104E40000BD06F4DA84208D0744DA84205D0744DC8
:104E5000A84202D0734DA84213D14FF6F7752A40ED
:104E60004D892A434FF6FB752A408D882A434FF619
:104E7000FF652B404FF6FF552B408D892B43CD8985
:104E80002B4383800483CD888586028470BD70B5F2
:104E9000002400220023058C4FF6EF763540058470
:104EA000028C8388048B48F6FF752C404FF6FF4533
:104EB0002C400D884FF6FF7606EA05252C434FF669
:104EC000DF752A400D8906EA05152A434D8806EA52
:104ED00005152A43444DA84202D0494DA8421DD190
:104EE0004FF67F752A404D894FF6FF7606EA051585
:104EF0002A434FF6BF752A408D8806EA05152A43D6
:104F00004FF6FF352B404FF2FF752B408D8906EA97
:104F100085052B43CD8906EA85052B4383800483D1
:104F2000CD880587028470BD70B50024002200235F
:104F3000058C4FF6FF6635400584028C8388848B90
:104F40004FF68F752C404FF6FC752C400D882C4386
:104F50004FF6FF552A400D894FF6FF7606EA0525E4
:104F60002A434D8806EA05252A431F4DA84202D050
:104F7000234DA8421DD14FF2FF752A404D894FF6AF
:104F8000FF7606EA05252A434FF6FF352A408D882D
:104F900006EA05252A434EF6FF752B404DF6FF75B0
:104FA0002B408D8906EA05152B43CD8906EA0515A8
:104FB0002B4383808483CD888587028470BD70B540
:104FC000002200230024058C4EF6FF763540058430
:104FD000038C8488828B48F6FF752A404FF6FF4584
:104FE0002A400D8820E00000002C01400004004011
:104FF00000080040000C0040001000400014004079
:1050000000340140004C0140005001400054014078
:1050100000180040001C00400020004000400140FB
:1050200000440140004801404FF6FF7606EA05259E
:105030002A434DF6FF752B400D8906EA05352B43B3
:105040004D8806EA05352B43FA4DA84202D0FA4DA9
:10505000A84208D14BF6FF752C408D894FF6FF769C
:1050600006EA85152C4384808283CD88A0F84050C1
:10507000038470BD828B4FF2FF331A408283828B90
:105080004FF6FF7303EA01231A4382837047F0B59A
:105090000C461546002200210026078C4EF6FF7CA8
:1050A00007EA0C070784828B018C4FF6FF7707EA2B
:1050B000043640F6FF473A404FF6FF7707EA0527E8
:1050C0003A434FF6FF7707EA03373A43D94FB842DE
:1050D0000ED0D94FB8420BD0B0F1804F08D0D74F87
:1050E000B84205D0D64FB84202D0D64FB84206D10A
:1050F0004DF6FF77394046F48057394305E047F6CF
:10510000FF57394044F48057394382830184F0BD0E
:10511000828B4FF6F3731A408283828B0A43828319
:105120007047F0B50C461546002200210026078C7A
:105130004FF6FF6C07EA0C070784828B018C4FF651
:10514000FF7707EA04264FF60C773A404FF6FF77D1
:1051500007EA03172F433A43B64FB8420ED0B64F73
:10516000B8420BD0B0F1804F08D0B44FB84205D050
:10517000B34FB84202D0B34FB84206D14FF6FF57F3
:10518000394046F48077394305E04FF2FF57394004
:1051900044F48077394382830184F0BD028B4FF25F
:1051A000FF331A400283028B4FF6FF7303EA012399
:1051B0001A4302837047F0B50C46154600220021C1
:1051C0000026078C4FF6EF7C07EA0C070784028B5A
:1051D000018C4FF6FF7707EA041640F6FF473A4086
:1051E0004FF6FF7707EA03373A434FF6FF7707EAB0
:1051F00005273A438F4FB8420ED08F4FB8420BD09D
:10520000B0F1804F08D08D4FB84205D08C4FB842D6
:1052100002D08C4FB84206D14FF6DF77394046F0C6
:105220001007394305E04FF65F77394044F0100727
:10523000394302830184F0BD028B4FF6F3731A40A9
:105240000283028B0A4302837047F0B50C46154671
:1052500000220021068C4FF6FE773E400684028B2A
:10526000018C4FF60C7632407E1C06EA03162E4364
:105270003243704EB0420ED06F4EB0420BD0B0F100
:10528000804F08D06D4EB04205D06D4EB04202D076
:105290006C4EB04206D14FF6FD76314044F0010627
:1052A000314305E04FF6F576314044F001063143D5
:1052B00002830184F0BD70B505460C465D48854209
:1052C0000ED05D4885420BD0B5F1804F08D05B48C9
:1052D000854205D05A48854202D05A48854200D1BD
:1052E00000E000BF208850B92389A2886188284641
:1052F000FFF7ABFFE1882846FFF79EFF25E02088F7
:1053000004280AD12389A28861882846FFF753FF21
:10531000E1882846FFF742FF17E0208808280AD1D5
:105320002389A28861882846FFF7FBFEE18828468A
:10533000FFF7EEFE09E02389A28861882846FFF77F
:10534000A6FEE1882846FFF795FE70BD2DE9F041E5
:1053500005460C4600260127608808B9022600E0B1
:105360000026A088012801D1022700E0012720881B
:10537000A0B92389A28861882846FFF766FFE188E3
:105380002846FFF759FF23893A4631462846FFF75A
:1053900012FFE1882846FFF701FF13E02389A28866
:1053A00061882846FFF707FFE1882846FFF7F6FEE9
:1053B00023893A4631462846FFF747FFE1882846C9
:1053C000FFF73AFFBDE8F0810A884B881A438B88C3
:1053D0001A43CB881A430B891A434B891A438B898A
:1053E0001A43A0F8442070474FF6FF7181800021D6
:1053F0000180C1804180017270470021018041809D
:105400008180C180018141818181C18170470021FA
:1054100001804180012181800021C180018170478C
:105420000021018041808180C18001814181818191
:1054300070470000002C014000340140000400408F
:1054400000080040000C004021B1028842F0010237
:10545000028004E002884FF6FE731A400280704713
:1054600031B1B0F8442042F40042A0F8442005E0F5
:10547000B0F84420C2F30E02A0F8442070471AB1DD
:1054800083890B43838102E083898B438381704747
:105490008182704741EA0203A0F8483070471AB190
:1054A00083890B43838102E083898B438381704727
:1054B00001894FF6F8721140018170470A460021B8
:1054C00001894FF68F73194011430181704730B540
:1054D00004460D4629462046FFF7F0FF208940F09C
:1054E0000700208130BD2DE9F04104460D461646E7
:1054F0001F46602D06D13B46012231462046FFF76C
:105500005AFE05E03B46012231462046FFF79DFE4C
:1055100029462046FFF7D2FF208940F0070020816E
:10552000BDE8F08130B50C4600210189C9B24FF6C3
:10553000FF7505EA0325154325432943018130BD45
:105540002DE9F04105460E4617469846002443468D
:105550003A4631462846FFF7E5FF2C894FF6F870AA
:10556000044044F007044FF68F70044044F0700488
:105570002C81BDE8F081F0B504460D4616461F4665
:105580003B46324629462046FFF7CCFF208940F4AF
:1055900080402081F0BD0185828270470A4600214B
:1055A00001884FF68F731940114301807047F0B5A1
:1055B0000C4615461E460021002200230189028B5D
:1055C000038C4FF6F877394021434FF6FC473A40B9
:1055D00040F201173A434FF6DD773B404FF6FF7735
:1055E00007EA06172F433B43018102830384F0BD82
:1055F0000A460021018B4FF68F7319401143018336
:1056000070470A460021018B48F6FF7319404FF698
:10561000FF7303EA02231943018370470A460021FE
:10562000818B4FF68F7319401143818370470A466F
:105630000021818B48F6FF7319404FF6FF7303EA90
:10564000022319438183704721B1028842F080020E
:10565000028004E002884FF67F731A400280704790
:1056600021B1828842F00402828004E082884FF6F1
:10567000FB731A408280704721B1828842F0080291
:10568000828004E082884FF6F7731A408280704768
:1056900021B1828842F00102828004E082884FF6C4
:1056A000FE731A40828070470A460021018B4FF634
:1056B000F77319401143018370470A460021018B9B
:1056C0004FF2FF7319404FF6FF7303EA02231943A9
:1056D000018370470A460021818B4FF6F77319400A
:1056E0001143818370470A460021818B4FF2FF737B
:1056F00019404FF6FF7303EA022319438183704771
:105700000A460021018B4FF6FB73194011430183B8
:1057100070470A460021018B4FF6FF3319404FF6C0
:10572000FF7303EA02231943018370470A460021ED
:10573000818B4FF6FB7319401143818370470A46F2
:105740000021818B4FF6FF3319404FF6FF7303EAB8
:1057500002231943818370470A460021018B4FF6CB
:105760007F7319401143018370470A460021018B62
:10577000C1F30E014FF6FF7303EA022319430183BD
:1057800070470A460021818B4FF67F731940114301
:10579000818370470A460021818BC1F30E014FF6C9
:1057A000FF7303EA02231943818370470A460021ED
:1057B000018C4FF6FD7319401143018470470A466E
:1057C0000021018C4FF6F773194011430184704793
:1057D0000A460021018C4FF6DF7319404FF6FF7324
:1057E00003EA02131943018470470A460021018C21
:1057F0004FF67F7319404FF6FF7303EA0213194304
:10580000018470470A460021018C4FF6FF5319406E
:105810004FF6FF7303EA02231943018470470A46D7
:105820000021018C4FF2FF7319404FF6FF7303EA1A
:1058300002231943018470470A460021018C4DF66A
:10584000FF7319404FF6FF7303EA023319430184D3
:10585000704730B5002301248C40A3B2048C9C43D4
:105860000484048C02FA01F5ADB22C43048430BDEB
:1058700030B5002304248C40A3B2048C9C430484E0
:10588000048C02FA01F5ADB22C43048430BD70B52E
:105890000346002000241846183001258D40ACB284
:1058A0001D8CA5431D8409B1082909D100EB6100B5
:1058B000056825F0700505600568154305600EE074
:1058C0000D1FC5F34E052844056825F4E045056025
:1058D00005684FF6FF7606EA02263543056070BD7F
:1058E00021B1028842F00202028004E002884FF6F1
:1058F000FD731A400280704721B1028842F0040211
:10590000028004E002884FF6FB731A400280704761
:1059100021B1828842F08002828004E082884FF6C2
:105920007F731A408280704702884FF6F7731A40DF
:10593000028002880A430280704782884FF68F7384
:105940001A40828082880A438280704702894FF61B
:10595000F8731A40028102890A4302817047028962
:105960004FF67F731A40028102890A430281704711
:1059700081847047818570478186704701877047B1
:1059800081877047A0F84010704702884FF6FF43A8
:105990001A40028002880A43028070470146888EBE
:1059A00070470146088F70470146888F704701464F
:1059B000B1F8400070470146888C70470146088D59
:1059C000704702460020138A0B400BB1012000E013
:1059D00000207047CA430282704730B5024600205B
:1059E00000230024158A05EA0103958905EA0104CC
:1059F00013B10CB1012000E0002030BDCA43028287
:105A00007047000010B50446FB48844209D10121CB
:105A10008803FEF719FF00214FF48040FEF714FFC2
:105A200032E0F648844209D101214804FEF719FF0B
:105A300000214FF40030FEF714FF25E0F0488442C7
:105A400009D101218804FEF70CFF00214FF48020CA
:105A5000FEF707FF18E0EB48844209D10121C80492
:105A6000FEF7FFFE00214FF40020FEF7FAFE0BE0E8
:105A7000E548844208D101210805FEF7F2FE002125
:105A80004FF48010FEF7EDFE10BD2DE9F04786B013
:105A900005460E460024A24600BFA1460027B08955
:105AA00000B100BF2F462C8A4CF6FF700440F088EE
:105AB00004432C82AC894EF6F3100440B08831893F
:105AC0000843718908430443AC81AC8A4FF6FF4018
:105AD0000440B0890443AC8201A8FEF72EFEC648FC
