:020000040800F2
:1000000000040020CF0D0008D90E0008DB0E000808
:10001000DF0E0008E30E0008E70E000800000000F5
:10002000000000000000000000000000EB0E0008CF
:10003000ED0E000800000000EF0E0008F10E0008B1
:10004000EF0D0008EF0D0008EF0D0008EF0D0008A0
:10005000EF0D0008EF0D0008EF0D0008EF0D000890
:10006000EF0D0008EF0D0008EF0D0008EF0D000880
:10007000EF0D0008EF0D0008EF0D0008EF0D000870
:10008000EF0D0008EF0D0008EF0D0008EF0D000860
:10009000EF0D0008EF0D0008EF0D0008EF0D000850
:1000A000EF0D0008EF0D0008EF0D0008EF0D000840
:1000B000EF0D0008EF0D0008EF0D0008EF0D000830
:1000C000EF0D0008EF0D0008EF0D0008EF0D000820
:1000D000EF0D0008EF0D0008EF0D0008EF0D000810
:1000E000EF0D0008EF0D0008EF0D0008EF0D000800
:1000F000EF0D0008EF0D0008EF0D0008EF0D0008F0
:10010000EF0D0008EF0D0008EF0D0008EF0D0008DF
:10011000EF0D0008EF0D0008EF0D0008EF0D0008CF
:10012000EF0D0008EF0D0008EF0D0008EF0D0008BF
:1001300000F002F800F03CF80AA090E8000C8244BD
:100140008344AAF10107DA4501D100F031F8AFF29A
:10015000090EBAE80F0013F0010F18BFFB1A43F0A5
:1001600001031847BC0E0000DC0E0000103A24BF4B
:1001700078C878C1FAD8520724BF30C830C144BF0C
:1001800004680C607047000000230024002500264E
:10019000103A28BF78C1FBD8520728BF30C148BFEA
:1001A0000B6070471FB500F034FF1FBD10B510BDC8
:1001B00000F0F3FE1146FFF7F5FF00F070FE00F0CF
:1001C00011FF03B4FFF7F2FF03BC00F01BFF0000B8
:1001D000DA48006840F00100D849086008464068E5
:1001E000D7490840D549486008460068D5490840C5
:1001F000D24908600846006820F48020086008465C
:10020000406820F4FE004860002088607047CB49B9
:10021000096821F48031C94A11601146096821F446
:1002200080211160B0F5803F03D0B0F5802F0ED152
:1002300006E0C249096841F48031C04A116007E014
:10024000BE49096841F4A021BC4A116000E000BF2A
:1002500000BF704710B501460022002300204A115C
:10026000012A02D1B54C236806E0022A02D1B34C20
:10027000236A01E0B14C636A01F01F02012494403B
:100280001C4201D0012000E0002010BD70B5002408
:100290000025002600BF3120FFF7DCFF0646641C66
:1002A00016B9B4F5A06FF6D13120FFF7D3FF08B12E
:1002B000012500E00025284670BD014600209F4A28
:1002C000106820F0F80040EAC100106070479E49B5
:1002D0000860704702460020984B586820F47C1054
:1002E00042EA01031843954B5860704796490866E7
:1002F000704701460020914A506820F003000843EF
:10030000506070478D48406800F00C00704701460F
:1003100000208A4A506820F0F0000843506070477F
:1003200001460020854A506820F4E0600843506090
:10033000704701460020814A506820F4605040EA2E
:10034000C1005060704729B17C4A527A02437B4B0E
:100350005A7206E0794A527AC343DBB21A40774BAD
:100360005A72704779490860704701460020734A05
:10037000506820F440400843506070470021744AA0
:1003800011706E4A82F82010012802D0042808D18A
:1003900003E001216E4A117004E005216C4A1170DE
:1003A00000E000BF00BF70476A49086070476349BA
:1003B000096A0143614A11627047674908607047E2
:1003C00030B500210022002400235C4D6D6805F04B
:1003D0000C0121B1042905D0082923D105E05F4D86
:1003E000056022E05D4D05601FE0544D6D6805F429
:1003F0007012022505EB9242504D6D6805F4803471
:100400001CB9574D554305600BE04C4D6D6815F414
:10041000003F03D0524D5543056002E04F4D554318
:10042000056002E04D4D056000BF00BF434D6D68A3
:1004300005F0F00109094B4D6B5C0568DD40456036
:100440003E4D6D6805F4E061090A464D6B5C4568F8
:10045000DD408560394D6D6805F46051C90A414D34
:100460006B5C4568DD40C560344D6D6805F4404106
:10047000890B3D4D6B5CC568B5FBF3F5056130BD7F
:1004800029B12E4A526902432C4B5A6104E02B4A8F
:1004900052698243294B5A61704729B1274A9269B0
:1004A0000243264B9A6104E0244A92698243234B1B
:1004B0009A61704729B1214AD26902431F4BDA6120
:1004C00004E01E4AD26982431C4BDA61704729B1AD
:1004D0001A4AD2680243194BDA6004E0174AD2681C
:1004E0008243164BDA60704729B1144A12690243FD
:1004F000124B1A6104E0114A126982430F4B1A61D0
:1005000070471A49086070470F49C86470470B4923
:10051000C87170470948406A40F0807007494862D6
:10052000704701460020054A92680A4201D0012026
:1005300000E00020704701498872704700100240B7
:100540000000FFF8FFFFF6FE00004242D8004242E2
:1005500020100240800442423C04424200127A00D1
:1005600000093D000000002010000020400442422D
:1005700001460020F84A106800F038000843106077
:100580007047F549096821F00801F34A11601146E6
:100590000968014311607047EF49096821F01001B3
:1005A000ED4A116011460968014311607047EB483C
:1005B000E9494860EA4848607047E748006940F008
:1005C0008000E549086170470420E349C96801F0EB
:1005D0000101012901D101200EE0DF49C96811F0B4
:1005E000040F01D0022007E0DB49C96811F0100FA9
:1005F00001D0032000E0042070470020FF2000E02D
:10060000401E0028FCD1704770B504460425FFF752
:10061000DBFF054605E0FFF7F0FFFFF7D5FF0546D6
:10062000641E012D01D1002CF5D104B90525284601
:1006300070BD70B50546042440F6FF70FFF7E4FF77
:100640000446042C19D1C448006940F00200C24994
:10065000086108464561006940F04000086140F6C5
:10066000FF70FFF7D1FF0446012C06D0BA4800699D
:1006700041F6FD710840B8490861204670BD10B5CB
:10068000042440F6FF70FFF7BFFF0446042C18D186
:10069000B148006940F00400AF49086108460069AC
:1006A00040F04000086140F6FF70FFF7ADFF0446E0
:1006B000012C06D0A848006941F6FB710840A64904
:1006C0000861204610BD10B5042440F6FF70FFF706
:1006D0009BFF0446042C3CD1A0489F498860A04859
:1006E00088600846006940F02000086108460069FB
:1006F00040F04000086140F6FF70FFF785FF0446B8
:10070000042C1DD19448006941F6DF7108409249DC
:1007100008610846006940F010000861A520914971
:1007200008804FF00F00FFF76FFF0446012C10D038
:100730008948006941F6EF7108408749086108E07F
:10074000012C06D08448006941F6EF7108408249C7
:100750000861204610BD70B505460E4604240F20E2
:10076000FFF752FF0446042C25D17B48006940F076
:100770000100794908612E800F20FFF745FF0446EC
:10078000042C0FD1300C68800F20FFF73DFF04468A
:10079000012C10D07048006941F6FE7108406E4986
:1007A000086108E0012C06D06B48006941F6FE7133
:1007B000084069490861204670BD70B505460E467F
:1007C00004240F20FFF720FF0446042C13D16248B5
:1007D000006940F00100604908612E800F20FFF79A
:1007E00013FF0446012C06D05B48006941F6FE71F8
:1007F000084059490861204670BD70B505460E464F
:1008000004240F20FFF700FF0446042C17D153489F
:1008100051498860524888600846006940F01000DD
:1008200008612E800F20FFF7EFFE0446012C06D052
:100830004948006941F6EF71084047490861204680
:1008400070BD2DE9F04704464FF6FF763746B046B7
:10085000B1460425E443E6B2C4F30727C4F30748CE
:100860004FEA14690F20FFF7CFFE0546042D3ED155
:100870003A48394988603A4888600846006940F03B
:1008800010000861FF2E06D0374806804FF00F0099
:10089000FFF7BAFE0546042D08D1FF2F06D03348D6
:1008A00007804FF00F00FFF7AFFE0546042D09D17A
:1008B000B8F1FF0F06D02E48A0F80C880F20FFF7E4
:1008C000A3FE0546042D09D1B9F1FF0F06D0284833
:1008D000A0F80E980F20FFF797FE0546012D06D0D1
:1008E0001D48006941F6EF7108401B490861284620
:1008F000BDE8F08770B50546042440F6FF70FFF7A9
:1009000083FE0446042C50D11448134988601448CF
:1009100088600846006940F02000086108460069C8
:1009200040F04000086140F6FF70FFF76DFE04469E
:10093000042C31D10848006941F6DF7108400649AE
:1009400008610846006940F01000086195B1002078
:100950000449088011E0000000200240230167459F
:10096000AB89EFCD00F8FF1F08F8FF1F0AF8FF1F43
:1009700000F0FF1FA5204549088040F6FF70FFF7F3
:1009800043FE0446012C10D04148006941F6EF7146
:1009900008403F49086108E0012C06D03C48006946
:1009A00041F6DF7108403A490861204670BD2DE9E3
:1009B000F04107460D4616460424364834498860FF
:1009C000354888600F20FFF71FFE0446042C1AD11B
:1009D0002F48006940F010002D49086147EA0500E2
:1009E000304340F0F8002D4908804FF00F00FFF72A
:1009F0000BFE0446012C06D02548006941F6EF7134
:100A00000840234908612046BDE8F0812048C069BC
:100A1000800870471E48006A704700201C49C96959
:100A200011F0020F01D0012000E0002070470020EB
:100A30001749096811F0200F01D0012000E00020C3
:100A4000704729B1124A12690243114B1A6104E03E
:100A50000F4A126982430E4B1A617047014600200B
:100A6000012908D10A4AD26912F0010F01D00120F0
:100A700008E0002006E0064AD2680A4201D00120C0
:100A800000E0002070470249C860704700F8FF1F6F
:100A90000020024023016745AB89EFCD02F8FF1F1C
:100AA00010B50446C549601A8C422FD009DCC448F1
:100AB000201810D0B0F5806F16D0B0F5006F4AD175
:100AC0001BE0B0F5806F2AD0B0F5006F30D0B0F5E4
:100AD000406F40D135E001210420FFF7F8FC0021F0
:100AE0000420FFF7F4FC37E001210820FFF7EFFCBA
:100AF00000210820FFF7EBFC2EE001211020FFF77A
:100B0000E6FC00211020FFF7E2FC25E00121202077
:100B1000FFF7DDFC00212020FFF7D9FC1CE00121BC
:100B20004020FFF7D4FC00214020FFF7D0FC13E069
:100B300001218020FFF7CBFC00218020FFF7C7FCBC
:100B40000AE001210802FFF7C2FC00214FF4807087
:100B5000FFF7BDFC00E000BF00BF10BD10B50121D4
:100B60000846FFF7B4FC00210120FFF7B0FC10BDE0
:100B70002DE9F04102460025002600200023002434
:100B8000002791F803C00CF00F0591F803C01CF08A
:100B9000100F03D091F802C04CEA0505B1F800C06F
:100BA0001CF0FF0F31D0146800202BE04FF0010C37
:100BB0000CFA00F3B1F800C00CEA03069E4220D103
:100BC00083004FF00F0C0CFA03F7BC4305FA03FC4B
:100BD0004CEA040491F803C0BCF1280F06D14FF091
:100BE000010C0CFA00FCC2F814C00AE091F803C032
:100BF000BCF1480F05D14FF0010C0CFA00FCC2F813
:100C000010C0401C0828D1D31460B1F800C0BCF15A
:100C1000FF0F34DD546800202EE000F1080C4FF087
:100C2000010808FA0CF3B1F800C00CEA03069E4272
:100C300021D183004FF00F0C0CFA03F7BC4305FAE7
:100C400003FC4CEA040491F803C0BCF1280F05D161
:100C500000F1080C08FA0CF8C2F8148091F803C0EF
:100C6000BCF1480F07D100F1080C4FF0010808FA59
:100C70000CF8C2F81080401C0828CED35460BDE8A0
:100C8000F0814FF6FF710180022181700421C17053
:100C900070470246002093680B4201D0012000E01B
:100CA000002070470146886880B2704702460020E5
:100CB000D3680B4201D0012000E0002070470146BC
:100CC000C86880B2704701617047416170470AB1DE
:100CD000016100E041617047C16070474FF48032AC
:100CE0000A4382618161826182698269704702463A
:100CF0000020344B18684FF68073184040EA021009
:100D00000843304B186070472F49C8617047F0B5F1
:100D10000A4600230024002100252A4E7168C0F3F2
:100D2000034583B200F44016B6F5401F08D121F008
:100D30007061244E766826F07066224F7E6012E065
:100D400000F48016B6F5801F06D1032606FA05F4D6
:100D5000A14341F0706106E0460D360103FA06F644
:100D6000B14341F0706122B1460D360103FA06F637
:100D70003143144E7160F0BD30B500228B071C0F5B
:100D80000F2303FA04F20F4B08338C1053F824306E
:100D900093430C4C08348D1044F8253023468C10B6
:100DA00053F824308C07240F00FA04F42343054C35
:100DB00008348D1044F8253030BD00000014014087
:100DC00000F8FEBF000001400000204270470B48C1
:100DD00080470B4981F308880A480047FEE7FEE791
:100DE000FEE7FEE7FEE7FEE7FEE7FEE7FEE7FEE7DB
:100DF00005480649044A064B70470000CD0D00081F
:100E000078020020310100087800002078020020DC
:100E10007800002008B501210420FFF73EFB1220D6
:100E2000ADF8000003208DF8020010208DF80300BB
:100E300069462848FFF79CFE08BD10B5FFF7C8F9C2
:100E40004FF48030FFF7E3F9FFF720FA0446012C56
:100E500024D10020FFF75BFA0020FFF76AFAA00216
:100E6000FFF75EFA0220FFF783FB1020FFF794FBE9
:100E70004FF4E0112004FFF72DFA0120FFF736FAB6
:100E800000BF3920FFF7E6F90028FAD00220FFF76B
:100E900030FA00BFFFF736FA0828FBD110BDFFF784
:100EA000CCFF482000F026F8FFF7B4FF11E0012244
:100EB00002210848FFF70BFF4FF47A7000F030F87A
:100EC000002202210348FFF702FF4FF47A7000F07E
:100ED00027F8ECE700080140704700BFFEE700BFBD
:100EE000FEE700BFFEE700BFFEE7704770477047B0
:100EF000704700004FF0E021096921F004014FF034
:100F0000E0221161C21700EB5272D2101F4B1A700F
:100F1000194609784FF47A7251431D4A118070477F
:100F200001461B4A12884A434FF0E0235A610022CF
:100F30009A6101221A6100BF4FF0E022106910F09F
:100F4000010F02D010F4803FF6D000224FF0E023D2
:100F50001A619A61704701460C4A12784A434FF071
:100F6000E0235A6100229A6101221A6100BF4FF00A
:100F7000E022106910F0010F02D010F4803FF6D08B
:100F800000224FF0E0231A619A617047140000209C
:100F900016000020704770477047754600F028F82B
:100FA000AE4605006946534620F00700854618B056
:100FB00020B5FFF71DFFBDE820404FF000064FF0C1
:100FC00000074FF000084FF0000B21F00701AC467E
:100FD000ACE8C009ACE8C009ACE8C009ACE8C0099D
:100FE0008D4670470446AFF300802046FFF7E9F8CE
:100FF000004870471800002001487047704700BF44
:101000001C00002001491820ABBEFEE726000200AC
:10101000704710B5FFF7F0FF4FF00001016010BD01
:101020004010000800000020180000006C010008BB
:101030005810000818000020600200008801000815
:10104000000000000102030401020304060708096E
:08105000020406080000000084
:0400000508000131BD
:00000001FF
