:020000040800F2
:1000000000040020A32B0008BD2F0008BF2F00080C
:10001000C32F0008C72F0008CB2F000800000000E6
:10002000000000000000000000000000CF2F0008CA
:10003000D12F000800000000D32F0008D52F0008A2
:10004000C32B0008C32B0008C32B0008C32B0008D8
:10005000C32B0008C32B0008C32B0008C32B0008C8
:10006000C32B0008C32B0008C32B0008C32B0008B8
:10007000C32B0008C32B0008C32B0008C32B0008A8
:10008000C32B0008C32B0008C32B0008D72F000880
:10009000DF2F0008C32B0008C32B0008E72F000840
:1000A0009D400008B3400008CF400008CD43000841
:1000B000894700084B4B0008114F0008C32B00086C
:1000C000C32B0008C32B0008C32B0008C32B000858
:1000D000C32B00088F690008C32B0008C32B00083E
:1000E000C32B0008C32B0008C32B00085758000877
:1000F00027540008415800081D580008C32B000869
:10010000C32B00089DA30008D7520008C32B00088A
:10011000C32B0008C32B00085B530008F5530008ED
:10012000C32B0008C32B0008C32B0008C32B0008F7
:10013000DFF80CD013F08EFA00480047092D0008B4
:10014000302C002031490143314A1160704770B5AD
:10015000002100230F22C47804B32D4C246804F43A
:10016000E064C4F5E064210AC1F10403CA404478A4
:1001700004FA03F18478144021430901254C0678E0
:10018000A155047804F01F050124AC4005786D11D9
:10019000AD0005F1E025C5F8004109E0047804F060
:1001A0001F050124AC401C4D0678761145F8264009
:1001B00070BD1A4A0A400243154B1B1F1A60704754
:1001C00039B1134A121D12680243114B1B1D1A60EC
:1001D00006E00F4A121D126882430D4B1B1D1A6068
:1001E0007047042808D14FF0E021096941F004016B
:1001F0004FF0E022116107E04FF0E021096921F0A2
:1002000004014FF0E0221161704700000000FA0580
:100210000CED00E000E400E080E100E080FFFF1F63
:1002200010B50446C649601A8C422FD009DCC54877
:10023000204480B1B0F5806F16D0B0F5006F4AD180
:100240001BE0B0F5806F2AD0B0F5006F30D0B0F56C
:10025000406F40D135E00121042000F0FFFA002179
:10026000042000F0FBFA37E00121082000F0F6FA44
:100270000021082000F0F2FA2EE00121102000F009
:10028000EDFA0021102000F0E9FA25E001212020FC
:1002900000F0E4FA0021202000F0E0FA1CE0012147
:1002A000402000F0DBFA0021402000F0D7FA13E0F4
:1002B0000121802000F0D2FA0021802000F0CEFA47
:1002C0000AE00121080200F0C9FA00214FF4807011
:1002D00000F0C4FA00E000BF00BF10BD10B501215E
:1002E000084600F0BBFA0021012000F0B7FA10BD6B
:1002F0002DE9F041024600250026002000230024BD
:10030000002791F803C00CF00F0591F803C00CF022
:10031000100CBCF1000F03D091F802C04CEA0505A7
:1003200091F800C0BCF1000F31D0146800202BE020
:100330004FF0010C0CFA00F3B1F800C00CEA030610
:100340009E4220D183004FF00F0C0CFA03F7BC4300
:1003500005FA03FC4CEA040491F803C0BCF1280F31
:1003600006D14FF0010C0CFA00FCC2F814C00AE0F0
:1003700091F803C0BCF1480F05D14FF0010C0CFA05
:1003800000FCC2F810C0401C0828D1D31460B1F89A
:1003900000C0BCF1FF0F34DD546800202EE000F1F6
:1003A000080C4FF0010808FA0CF3B1F800C00CEA91
:1003B00003069E4221D183004FF00F0C0CFA03F785
:1003C000BC4305FA03FC4CEA040491F803C0BCF1F9
:1003D000280F05D100F1080C08FA0CF8C2F81480B7
:1003E00091F803C0BCF1480F07D100F1080C4FF0A1
:1003F000010808FA0CF8C2F81080401C0828CED377
:100400005460BDE8F0814FF6FF71018002218170D8
:100410000421C17070470246002093680B400BB165
:10042000012000E0002070470146886880B27047D4
:1004300002460020D3680B400BB1012000E00020F1
:1004400070470146C86880B27047016170474161DA
:1004500070470AB1016100E041617047C1607047B7
:100460004FF480320A4382618161826182698269CC
:10047000704702460020344B18684FF680731840CE
:1004800040EA02100843304B186070472F49C8619A
:100490007047F0B50A4600230024002100252A4EAB
:1004A0007168C0F3034583B200F44016B6F5401FEF
:1004B00008D121F07061244E766826F07066224FD4
:1004C0007E6012E000F48016B6F5801F06D1032688
:1004D00006FA05F4A14341F0706106E0460D3601CD
:1004E00003FA06F6B14341F0706122B1460D3601C0
:1004F00003FA06F63143144E7160F0BD30B50022A8
:100500008B071C0F0F2303FA04F20F4B08338C10D8
:1005100053F8243093430C4C08348D1044F82530A4
:1005200023468C1053F824308C07240F00FA04F46F
:100530002343054C08348D1044F8253030BD0000AD
:100540000014014000F8FEBF0000014000002042FE
:10055000DE48006840F00100DC4908600846406859
:10056000DB490840D949486008460068D949084035
:10057000D64908600846006820F4802008600846D4
:10058000406820F4FE004860002088607047CF4932
:10059000096821F48031CD4A11601146096821F4BF
:1005A00080211160B0F5803F03D0B0F5802F0ED1CF
:1005B00006E0C649096841F48031C44A116007E089
:1005C000C249096841F4A021C04A116000E000BF9F
:1005D00000BF704710B501460022002300204A11D9
:1005E000012A02D1B94C236806E0022A02D1B74C95
:1005F000236A01E0B54C636A01F01F0201249440B4
:100600001C400CB1012000E0002010BD38B50020D6
:1006100000900024002500BF3120FFF7DBFF0546D6
:100620000098401C00901DB90098B0F5A06FF3D160
:100630003120FFF7CFFF08B1012400E0002420465D
:1006400038BD01460020A14A106820F0F80040EAB9
:10065000C10010607047A049086070470246002042
:100660009A4B586820F47C1042EA01031843974BD8
:100670005860704798490866704701460020934AC1
:10068000506820F003000843506070478F4840686E
:1006900000F00C007047014600208C4A506820F0A2
:1006A000F00008435060704701460020874A5068B8
:1006B00020F4E06008435060704701460020834A00
:1006C000506820F4605040EAC1005060704729B182
:1006D0007E4A527A02437D4B5A7204E07B4A527A38
:1006E00082437A4B5A7270477B49D8310860704711
:1006F00001460020754A506820F44040084350608D
:1007000070470021714A20321170704A82F820101F
:10071000012802D004280AD104E001216B4A2032CA
:10072000117005E00521694A2032117000E000BF18
:1007300000BF70476949086070476449096A01430E
:10074000624A11627047654944390860704730B5A4
:1007500000210022002400235C4D6D6805F00C018F
:1007600021B1042905D0082923D105E05C4D05609D
:1007700022E05B4D05601FE0544D6D6805F470127A
:10078000022505EB9242514D6D6805F480341CB989
:10079000544D554305600BE04C4D6D6805F4003534
:1007A0001DB1504D5543056002E04D4D5543056068
:1007B00002E04B4D056000BF00BF444D6D6805F081
:1007C000F0010909484D6B5C0568DD4045603F4D0F
:1007D0006D6805F4E061090A434D6B5C4568DD40D6
:1007E00085603A4D6D6805F46051C90A3E4D6B5CF9
:1007F0004568DD40C560354D6D6805F44041890BA5
:100800003A4D6B5CC568B5FBF3F5056130BD29B1A8
:100810002E4A526902432D4B5A6104E02B4A526919
:1008200082432A4B5A61704729B1284A9269024390
:10083000264B9A6104E0254A92698243234B9A61D0
:10084000704729B1214AD2690243204BDA6104E0A2
:100850001E4AD26982431D4BDA61704729B11B4A97
:10086000D2680243194BDA6004E0184AD268824326
:10087000164BDA60704729B1144A12690243134BD0
:100880001A6104E0114A12698243104B1A617047E1
:1008900012494039086070470F49C86470470B49D6
:1008A000C87170470948406A40F080700749486243
:1008B000704701460020054A92680A400AB10120AB
:1008C00000E0002070470149887270470010024024
:1008D0000000FFF8FFFFF6FE0000424280044242A3
:1008E00000127A0000093D000000002010000020E6
:1008F00010B50446D749601A8C422BD006DCD64886
:10090000204498B1B0F5806F38D119E0B0F5806F10
:100910002AD0B0F56C4F31D101218803FFF79EFF3B
:1009200000214FF48040FFF799FF28E0012148049F
:10093000FFF7A1FF00214FF40030FFF79CFF1EE0FE
:1009400001218804FFF797FF00214FF48020FFF773
:1009500092FF14E00121C804FFF78DFF00214FF43E
:100960000020FFF788FF0AE001210805FFF783FF59
:1009700000214FF48010FFF77EFF00E000BF00BFB2
:1009800010BD2DE9F04786B005460E460024A2466C
:1009900000BF00BF00272F462C8A4CF6FF70044092
:1009A000F08804432C82AC894EF6F3100440B088E2
:1009B00031890843718908430443AC81AC8A4FF6FE
:1009C000FF400440B0890443AC8201A8FFF7BFFE9A
:1009D000A248874202D1DDF810A001E0DDF80CA0AA
:1009E0000AEBCA0000EB0A1031688900B0FBF1F88D
:1009F0006420B8FBF0F004012009642101FB108998
:100A0000322000EB0910B0FBF1F000F00F000443BE
:100A10002C8106B0BDE8F0874FF41651016000212B
:100A20008180C18001810C21418100218181704739
:100A300010B502460020108A4FF2FF0318400B88C1
:100A40004C8823438C882343CC882343184310824B
:100A500010BD0021018041808180C180704721B19B
:100A6000828942F40052828104E082894DF6FF734C
:100A70001A4082817047F0B5034600240026002505
:100A800000201846C1F3421401F01F06012707FA9F
:100A900006F5012C01D10C3004E0022C01D11030FC
:100AA00000E014301AB107682F43076002E00768BE
:100AB000AF430760F0BD1AB1838A0B43838202E023
:100AC000838A8B4383827047028A4FF6F0731A4001
:100AD0000282028A0A430282704782894FF2FF73C0
:100AE0001A40828182890A438281704721B18289BA
:100AF00042F00202828104E082894FF6FD731A40BF
:100B000082817047028A4FF6DF731A400282028A9E
:100B10000A430282704721B1028A42F48042028273
:100B200004E0028A4BF6FF731A4002827047C1F359
:100B300008028280704701468888C0F30800704729
:100B4000818941F0010181817047028BD2B2028319
:100B5000028B42EA012202837047028B02F47F4239
:100B60000283028B0A430283704721B1828A42F0DA
:100B70002002828204E0828A4FF6DF731A4082826A
:100B8000704721B1828A42F01002828204E0828A98
:100B90004FF6EF731A408282704721B1828A42F089
:100BA0000802828204E0828A4FF6F7731A4082823A
:100BB0007047828A4FF6FB731A408282828A0A4308
:100BC0008282704721B1828A42F00202828204E06E
:100BD000828A4FF6FD731A408282704702460020D7
:100BE00013880B400BB1012000E000207047CA437E
:100BF0000280704770B502460B4600240021002594
:100C00000020C3F3421503F01F01012606FA01F18B
:100C1000012D02D19689314006E0022D02D1168ABB
:100C2000314001E0968A31401C12012606FA04F494
:100C30001688344011B10CB1012000E0002070BDD5
:100C400010B5002200230A1201249440A3B2DC4311
:100C5000048010BD004C004000BCFFBF00380140C4
:100C600001460020FB4A106800F03800084310607D
:100C70007047F849096821F00801F64A11601146E9
:100C80000968014311607047F249096821F01001B9
:100C9000F04A116011460968014311607047EE483F
:100CA000EC494860ED4848607047EA48006940F008
:100CB0008000E849086170470420E649C96801F0EE
:100CC000010109B101200EE0E249C96801F0040107
:100CD00009B1022007E0DF49C96801F0100109B13C
:100CE000032000E00420704708B500200090FF209A
:100CF000009002E00098401E009000980028F9D172
:100D000008BD70B504460425FFF7D6FF054605E08B
:100D1000FFF7EAFFFFF7D0FF0546641E012D01D162
:100D2000002CF5D104B90525284670BD70B50546DF
:100D3000042440F6FF70FFF7E4FF0446042C19D1A9
:100D4000C448006940F00200C24908610846456194
:100D5000006940F04000086140F6FF70FFF7D1FFE6
:100D60000446012C06D0BB48006941F6FD710840DD
:100D7000B8490861204670BD10B5042440F6FF70E4
:100D8000FFF7BFFF0446042C18D1B248006940F0B9
:100D90000400B04908610846006940F0400008615D
:100DA00040F6FF70FFF7ADFF0446012C06D0A948BE
:100DB000006941F6FB710840A6490861204610BD54
:100DC00010B5042440F6FF70FFF79BFF0446042C87
:100DD0003BD1A1489F498860A048886008460069C7
:100DE00040F0200008610846006940F040000861BA
:100DF00040F6FF70FFF785FF0446042C1CD1954890
:100E0000006941F6DF7108409249086108460069AF
:100E100040F010000861A520914908800F20FFF7DD
:100E200070FF0446012C10D08A48006941F6EF712A
:100E300008408849086108E0012C06D0854800690F
:100E400041F6EF71084083490861204610BD70B536
:100E500005460E4604240F20FFF753FF0446042CDA
:100E600025D17C48006940F001007A4908612E8054
:100E70000F20FFF746FF0446042C0FD1300C68808A
:100E80000F20FFF73EFF0446012C10D07148006987
:100E900041F6FE7108406F49086108E0012C06D058
:100EA0006C48006941F6FE7108406A4908612046B5
:100EB00070BD70B505460E4604240F20FFF721FFD4
:100EC0000446042C13D16348006940F001006149D5
:100ED00008612E800F20FFF714FF0446012C06D076
:100EE0005C48006941F6FE7108405A490861204695
:100EF00070BD70B505460E4604240F20FFF701FFB4
:100F00000446042C17D154485249886053488860DD
:100F10000846006940F0100008612E800F20FFF79E
:100F2000F0FE0446012C06D04A48006941F6EF71F4
:100F3000084048490861204670BD2DE9F047044645
:100F40004FF6FF763746B046B1460425E443E6B295
:100F5000C4F30727C4F307484FEA14690F20FFF7CB
:100F6000D0FE0546042D40D13B483A4988603B48B5
:100F700088600846006940F010000861FF2E06D026
:100F80003748083006800F20FFF7BBFE0546042DCA
:100F900008D1FF2F06D032480A3007800F20FFF714
:100FA000B0FE0546042D0AD1B8F1FF0F07D02C483A
:100FB0000C30A0F800800F20FFF7A3FE0546042D9B
:100FC0000AD1B9F1FF0F07D025480E30A0F80090E4
:100FD0000F20FFF796FE0546012D06D01D4800693B
:100FE00041F6EF7108401B4908612846BDE8F087CB
:100FF00070B50546042440F6FF70FFF782FE0446F4
:10100000042C4AD114481349886014488860084663
:10101000006940F0200008610846006940F0400087
:10102000086140F6FF70FFF76CFE0446042C2BD1DC
:101030000848006941F6DF71084006490861084622
:10104000006940F01000086165B100200449088083
:101050000BE000000020024023016745AB89EFCD83
:1010600000F8FF1FA5204549088040F6FF70FFF7F4
:1010700048FE0446012C10D04148006941F6EF714A
:1010800008403F49086108E0012C06D03C4800694F
:1010900041F6DF7108403A490861204670BD2DE9EC
:1010A000F04107460D461646042436483449886008
:1010B000354888600F20FFF724FE0446042C1AD11F
:1010C0002F48006940F010002D49086147EA0500EB
:1010D000304340F0F8002949891C08800F20FFF7B1
:1010E00010FE0446012C06D02548006941F6EF7138
:1010F0000840234908612046BDE8F0812048C069C6
:10110000800870471E48006A704700201C49C96962
:1011100001F0020109B1012000E000207047002029
:101120001749096801F0200109B1012000E0002001
:10113000704729B1124A12690243114B1A6104E047
:101140000F4A126982430E4B1A6170470146002014
:10115000012908D10A4AD26902F001020AB101202C
:1011600008E0002006E0064AD2680A400AB10120E1
:1011700000E0002070470249C860704700F8FF1F78
:101180000020024023016745AB89EFCD00204C4988
:101190000860091D0860091D0860091D08604948AC
:1011A00047491431086070478179002946D0444985
:1011B000096802689143424A1160111D096802687A
:1011C00091433F4A121D116001793F4A1144D1F801
:1011D00000140268114302793B4B1A44C2F8001410
:1011E00037490831096802689143354A083211606D
:1011F000111D096802689143314A0C32116041792E
:1012000010290ED1111F0968026811432C4A0832B7
:101210001160111D096802681143294A0C321160DE
:1012200018E04179284A1144D1F8001402681143AA
:101230004279254B1A44C2F800140BE00179224A86
:101240001144D1F800140268914302791E4B1A44EC
:10125000C2F8001470470021016001710C21417136
:101260000021817170471649103109680143144A01
:1012700010321160704701460020114A1432126882
:101280000A400AB1012000E0002070470C491431E7
:1012900008607047014600200022094B1B6803EAE2
:1012A0000102074B14331B680B4013B10AB1012034
:1012B00000E00020704702491431086070470000C8
:1012C00000040140FFFF07000000014000206C49BE
:1012D000086048608860C86048628862C86269487F
:1012E00088630020C86370470021654A516847F64B
:1012F000FF6291430278C3681A4383681A43036903
:101300001A4343681A4343691A4311435C4A5160C4
:1013100070470021017041608160C16001614161DD
:1013200070475949086070475549096821F0030121
:10133000534A1160114609680143116070475048D3
:10134000006800F00300704729B14D4AD26B024398
:101350004B4BDA6304E04A4AD26B8243484BDA6370
:1013600070474A49086070470021454B02689A60FF
:101370001A46D1686FF30A01D0E901231A43C36802
:101380001A4303691A4311433D4AD1607047002153
:10139000016041608160C160016170473848006947
:1013A000C0B2704701463648084440697047002182
:1013B000334B02685A6242689A621A46D16A21F037
:1013C000F701D0E902231A4303691A4343691A4318
:1013D00011432B4AD16270474FF0FF310160002169
:1013E00041608160C1600161416170472448006BC8
:1013F0007047234880300068704721498031086079
:1014000070471F48806C704720491431086070474E
:101410001E491831086070471C491C31086070472C
:101420001A49203108607047194908607047184907
:10143000091D0860704701218143154A0832116077
:10144000704713490C3108607047014600200C4A70
:10145000526B0A400AB1012000E0002070470849A1
:101460008863704701460020054A526B0A400AB162
:10147000012000E0002070470149886370470000A8
:1014800000800140FF07C000A00030428C053042C0
:10149000AC013042016821F00101016000210160CE
:1014A00041608160C160874A811A90425BD012DC42
:1014B000854AA0EB020190423AD007DC83490144FF
:1014C000D9B1142922D028297AD128E0142938D07A
:1014D000282975D13EE0B1F56C7F5BD006DCB1F513
:1014E000627F49D0B1F5677F6AD14CE0B1F5717F79
:1014F00057D0B1F5767F63D15BE0734944394968D1
:1015000041F00F01704A443A51605AE06E49443943
:10151000496841F0F0016C4A443A516051E06A492F
:101520004439496841F47061674A443A516048E07F
:1015300065494439496841F47041634A443A51600D
:101540003FE061494439496841F470215E4A443AB8
:10155000516036E05C494439496841F470015A4AA7
:10156000443A51602DE058494439496841F070616E
:10157000554A443A516024E05549096841F00F0149
:10158000534A11601DE05249096841F0F001504A88
:10159000116016E04E49096841F470614C4A1160CF
:1015A0000FE04B49096841F47041494A116008E075
:1015B00006E04749096841F47021454A116000E09E
:1015C00000BF00BF704710B50022026847F6F073F5
:1015D0009A430C6A8B6823430C6923434C69234369
:1015E0008C692343CC6923434C6A23438C6A23438D
:1015F0001A430260CB6843600B6883604B68C3602A
:1016000010BD0021016041608160C16001614161E4
:101610008161C161016241628162704721B10268EA
:1016200042F00102026003E0026822F0010202605F
:1016300070471AB103680B43036002E003688B43F1
:10164000036070470146486880B270470146002039
:10165000002201F080531BB11D4B1B1F1A6802E0D2
:10166000194B443B1A6802EA01030BB1012000E068
:101670000020704700F0805111B11549086002E068
:10168000114944394860704701460020002201F0AA
:1016900080531BB10E4B1B1F1A6802E00A4B443BE0
:1016A0001A6802EA01030BB1012000E00020704734
:1016B00000F0805111B10649086002E00249443946
:1016C000486070478000024044000240F8FFFDBFC0
:1016D0000404024010B50446F749601A8C4245D014
:1016E0000CDCB4F1804F1DD0F448204418B3B0F5A1
:1016F000806F29D0B0F5006F54D12EE0B0F5806F27
:101700003DD0B0F58E3F03D0B0F5923F4AD13FE0D7
:101710000121C802FFF7A2F800214FF40060FFF793
:101720009DF840E001210846FFF7A5F800210120BF
:10173000FFF7A1F837E001210220FFF79CF8002114
:101740000220FFF798F82EE001210420FFF793F81C
:1017500000210420FFF78FF825E001210820FFF782
:101760008AF800210820FFF786F81CE001211020EC
:10177000FFF781F800211020FFF77DF813E0012129
:101780002020FFF778F800212020FFF774F80AE006
:1017900001214803FFF762F800214FF40050FFF7E2
:1017A0005DF800E000BF00BF10BD028802F08F02AC
:1017B0000280CA884B881A4303881A4302808A88A9
:1017C00082850A880285BE4A904202D0BD4A904274
:1017D00001D10A7A028601228282704770B5002404
:1017E00000220023058C4FF6FE7635400584028CDE
:1017F0008388048B4FF68F752C400D882C43751E03
:101800002A400D892A434D882A43CD888586AC4DD0
:10181000A84202D0AB4DA84213D14FF6F7752A402B
:101820004D892A434FF6FB752A408D882A4347F697
:10183000FF652B4047F6FF552B408D892B43CD8903
:101840002B4383800483028470BD70B50024002282
:101850000023058C4FF6EF7635400584028C838893
:10186000048B48F6FF752C400D884FF6FF7606EA8C
:1018700005252C434FF6DF752A400D8906EA05152C
:101880002A434D8806EA05152A43CD8805878C4DE5
:10189000A84202D08B4DA8421DD14FF67F752A4039
:1018A0004D894FF6FF7606EA05152A434FF6BF75B8
:1018B0002A408D8806EA05152A4347F6FF352B4056
:1018C00047F2FF752B408D8906EA85052B43CD89AC
:1018D00006EA85052B4383800483028470BD70B5BE
:1018E000002400220023058C4FF6FF663540058456
:1018F000028C8388848B4FF68F752C400D882C4387
:101900004FF6FF552A400D894FF6FF7606EA05256A
:101910002A434D8806EA05252A43CD888587684DE8
:10192000A84202D0674DA8421DD14FF2FF752A4050
:101930004D894FF6FF7606EA05252A434FF6FF3517
:101940002A408D8806EA05252A4346F6FF752B4076
:1019500045F6FF752B408D8906EA05152B43CD8989
:1019600006EA05152B4383808483028470BD70B51D
:10197000002400220023058C4EF6FF7635400584B6
:10198000028C8388848B48F6FF752C400D884FF6B7
:10199000FF7606EA05252C434DF6FF752A400D8992
:1019A00006EA05352A434D8806EA05352A43CD88DF
:1019B000A0F84050424DA84202D0424DA84207D163
:1019C000C3F30D038D894FF6FF7606EA85152B4389
:1019D00083808483028470BD828B4FF2FF331A4070
:1019E0008283828B4FF6FF7303EA01231A438283BB
:1019F0007047F0B50C461546002100220026078CE2
:101A00004EF6FF7C07EA0C070784818B028C4FF6A9
:101A1000FF7707EA043640F6FF4739404FF6FF7775
:101A200007EA05274FF6FF7C0CEA033C47EA0C0760
:101A300039434DF6FF773A4046F480573A43818365
:101A40000284F0BD828B4FF6F3731A408283828B3F
:101A50000A4382837047F0B50C46154600210022E8
:101A60000026078C4FF6FF6C07EA0C070784818B72
:101A7000028C4FF6FF7707EA04264FF60C773940C1
:101A80004FF6FF7707EA03172F4339434FF6FF5707
:101A90003A4046F480773A4381830284F0BD028B5A
:101AA0004FF2FF331A400283028B4FF6FF7303EAB3
:101AB00001231A43028370470010004000FCFFBF5F
:101AC000002C014000340140F0B50C4615460021C1
:101AD00000220026078C4FF6EF7C07EA0C070784EC
:101AE000018B028C4FF6FF7707EA041640F6FF479A
:101AF00039404FF6FF7707EA033739434FF6FF7750
:101B000007EA052739434FF6DF773A4046F01007DA
:101B10003A4301830284F0BD028B4FF6F3731A40FF
:101B20000283028B0A4302837047F0B50C461546C8
:101B300000210022068C4FF6FE773E400684018B82
:101B4000028C4FF60C7631407E1C06EA03162E43BB
:101B500031437E1E324044F0010632430183028449
:101B6000F0BD70B505460C46208850B92389A2887F
:101B700061882846FFF7D9FFE1882846FFF7CCFFA8
:101B800025E0208804280AD12389A2886188284674
:101B9000FFF79AFFE1882846FFF781FF17E02088CA
:101BA00008280AD12389A28861882846FFF753FFB5
:101BB000E1882846FFF746FF09E02389A28861886B
:101BC0002846FFF716FFE1882846FFF705FF70BD9E
:101BD0002DE9F04105460C4600260127608808B92A
:101BE000022600E00026A088012801D1022700E09B
:101BF00001272088A0B92389A28861882846FFF799
:101C000094FFE1882846FFF787FF23893A4631464B
:101C10002846FFF759FFE1882846FFF740FF13E009
:101C20002389A28861882846FFF74EFFE18828466D
:101C3000FFF735FF23893A4631462846FFF775FFFF
:101C4000E1882846FFF768FFBDE8F0810A884B88E5
:101C50001A438B881A43CB881A430B891A434B8942
:101C60001A438B891A43A0F8442070474FF6FF713E
:101C7000818000210180C180418001727047002174
:101C8000018041808180C180018141818181C18148
:101C90007047002101804180012181800021C180A5
:101CA000018170470021018041808180C1800181D4
:101CB00041818181704721B1028842F00102028096
:101CC00004E0028840F2FE331A400280704731B1CE
:101CD000B0F8442042F40042A0F8442005E0B0F8F7
:101CE0004420C2F30E02A0F8442070471AB1838941
:101CF0000B43838102E083898B4383817047818218
:101D0000704741EA0203A0F8483070471AB183894E
:101D10000B43838102E083898B4383817047018970
:101D20004FF6F8721140018170470A46002101897F
:101D30004FF68F73194011430181704730B5044647
:101D40000D4629462046FFF7F0FF208940F00700A6
:101D5000208130BD2DE9F04104460D4616461F4650
:101D6000602D06D13B46012231462046FFF7ACFEEE
:101D700005E03B46012231462046FFF7D6FE2946C4
:101D80002046FFF7D2FF208940F007002081BDE800
:101D9000F08170B50C4600210189C9B244EA020500
:101DA0004FF6FF7606EA032635432943018170BDCD
:101DB0002DE9F04105460E46174698460024434655
:101DC0003A4631462846FFF7E4FF2C894FF6F87073
:101DD000044044F007044FF68F70044044F0700450
:101DE0002C81BDE8F081F0B504460D4616461F462D
:101DF0003B46324629462046FFF7CBFF208940F478
:101E000080402081F0BD0185828270470A46002112
:101E1000018840F28F331940114301807047F0B5BB
:101E20000C4615461E460021002200230189028B24
:101E3000038C4FF6F877394021434FF6FC473A4080
:101E400040F201173A434FF6DD773B404FF6FF77FC
:101E500007EA06172F433B43018102830384F0BD49
:101E60000A460021018B4FF68F73194011430183FD
:101E700070470A460021018B48F6FF7319404FF660
:101E8000FF7303EA02231943018370470A460021C6
:101E9000818B4FF68F7319401143818370470A4637
:101EA0000021818B48F6FF7319404FF6FF7303EA58
:101EB000022319438183704721B1028842F08002D6
:101EC000028004E0028840F27F331A4002807047AB
:101ED00021B1828842F00402828004E082884FF6B9
:101EE000FB731A408280704721B1828842F0080259
:101EF000828004E082884FF6F7731A408280704730
:101F000021B1828842F00102828004E082884FF68B
:101F1000FE731A40828070470A460021018B4FF6FB
:101F2000F77319401143018370470A460021018B62
:101F30004FF2FF7319404FF6FF7303EA0223194370
:101F4000018370470A460021818B4FF6F7731940D1
:101F50001143818370470A460021818B4FF2FF7342
:101F600019404FF6FF7303EA022319438183704738
:101F70000A460021018B4FF6FB7319401143018380
:101F800070470A460021018B4FF6FF3319404FF688
:101F9000FF7303EA02231943018370470A460021B5
:101FA000818B4FF6FB7319401143818370470A46BA
:101FB0000021818B4FF6FF3319404FF6FF7303EA80
:101FC00002231943818370470A460021018B4FF693
:101FD0007F7319401143018370470A460021018B2A
:101FE000C1F30E014FF6FF7303EA02231943018385
:101FF00070470A460021818B4FF67F7319401143C9
:10200000818370470A460021818BC1F30E014FF690
:10201000FF7303EA02231943818370470A460021B4
:10202000018C4FF6FD7319401143018470470A4635
:102030000021018C4FF6F77319401143018470475A
:102040000A460021018C4FF6DF7319404FF6FF73EB
:1020500003EA02131943018470470A460021018CE8
:102060004FF67F7319404FF6FF7303EA02131943CB
:10207000018470470A460021018C4FF6FF53194036
:102080004FF6FF7303EA02231943018470470A469F
:102090000021018C4FF2FF7319404FF6FF7303EAE2
:1020A00002231943018470470A460021018C4DF632
:1020B000FF7319404FF6FF7303EA0233194301849B
:1020C000704710B5038C01248C40A3430384038C18
:1020D00002FA01F4A4B22343038410BD10B5038CAB
:1020E00004248C40A3430384038C02FA01F4A4B2B9
:1020F0002343038410BD30B5038C01248C40A343DB
:10210000038409B1082918D100F1180303EB610316
:102110001B684FF68F74234000F1180404EB610430
:10212000236000F1180303EB61031B68134300F104
:10213000180404EB610423601FE00B1FC3F34E047B
:1021400000F118031B5948F6FF7423400C1FC4F319
:102150004E0500F1180463510B1FC3F34E0400F148
:1021600018031B594FF6FF7404EA022423430C1F83
:10217000C4F34E0500F11804635130BD21B102884B
:1021800042F00202028004E0028840F2FD331A406D
:102190000280704721B1028842F00402028004E00C
:1021A000028840F2FB331A400280704721B18288D6
:1021B00042F08002828004E082884FF67F731A40EA
:1021C00082807047028840F2F7331A40028002880A
:1021D0000A430280704782884FF68F731A408280CC
:1021E00082880A438280704702894FF6F8731A404A
:1021F000028102890A430281704702894FF67F7388
:102200001A40028102890A43028170478184704723
:102210008185704781867047018770478187704745
:10222000A0F8401070470288D2B2028002880A43A8
:10223000028070470146888E70470146088F7047BC
:102240000146888F70470146B1F84000704701464B
:10225000888C70470146088D704702460020138A1B
:102260000B400BB1012000E000207047CA430282FE
:10227000704730B50246002000230024158A05EA85
:102280000103958905EA010413B10CB1012000E0B6
:10229000002030BDCA4302827047000030B943F2CB
:1022A000DB028100A1F1C0410A6005E043F2D202E5
:1022B0008100A1F1C0410A606FF07042411C8900A9
:1022C000A1F1C0410A608100A1F1C041C1F804211F
:1022D000704710280AD118214FF020421166402182
:1022E00051664FF0FC319166D16610E01821FA4A30
:1022F000116040214FF02042C2F884104FF0FC31B1
:10230000F54A083211604FF02042C2F88C10704735
:102310001820F1492031086000200906C1F8A40006
:102320004FF0FC30EC4928310860091D0860091D98
:1023300008607047D0E901121143C2681143026975
:1023400011434269114382691143C2691143026A10
:102350001143426A1143826A1143C26A11430268FF
:102360009200A2F1C0421160816808290BD1016876
:102370008900A1F1C041096841F04002016889006B
:10238000A1F1C0410A60016B0968026B526841EA21
:102390000211026B926841EA0221026B928941EAC2
:1023A0000241026B128A41EA0251026B127D41EA3C
:1023B0000261026B926911430268521C9200A2F101
:1023C000C0421160816AB1F5804F1BD1416B096831
:1023D000426B526841EA0211426B926841EA022163
:1023E000426B128A41EA0251426B127D41EA02615C
:1023F000426B9269114302689200A2F1C042C2F896
:10240000041107E06FF0704201688900A1F1C0413A
:10241000C1F80421704730B5002100220023446830
:1024200044F0080485682C43C5682C4305692C4397
:10243000456944EA4524856944EA4531C46924680C
:10244000C5696D6844EA0524C5692D8944EA0544D7
:10245000C5692D7B44EA0562046A2468056A6D68D3
:1024600044EA0524056A2D8944EA0544056A2D7B62
:1024700044EA05630468102C05D14FF0204421661E
:10248000A266E36608E0944C21604FF02044C4F853
:102490008820914C0C34236030BD016841F010015C
:1024A000426841EA4221826841EA42318A4A203246
:1024B0001160C1680968C268526841EA0221C268B5
:1024C000128941EA0241C268127B41EA0261824AF2
:1024D00028321160016909680269526841EA0221E3
:1024E0000269128941EA02410269127B41EA0261F2
:1024F000794A2C321160416909684269526841EA9F
:1025000002214269128941EA02414269127B41EA91
:1025100002614FF02042C2F8B01070470021016004
:102520000221416000218160C160016141618161DE
:10253000C1614FF480510162490041620021816212
:10254000C1620F21026B1160026B5160FF21026BAF
:1025500091600F21026BD160026B1161026B5161BE
:102560000021026B91610F21426B1160426B51603F
:10257000FF21426B91600F21426BD160426B116170
:10258000426B51610021426B9161704710210160E3
:10259000002141608160C160016141618161FC2174
:1025A000C2691160C2695160C2699160C269D1603B
:1025B000026A1160026A5160026A9160026AD16027
:1025C00070470021016041608160FC21C268116098
:1025D000C2685160C2689160C268D16002691160CE
:1025E00002695160026991600269D16042691160BB
:1025F00042695160426991604269D160704751B14E
:102600008200A2F1C042126842F001038200A2F1EE
:10261000C042136009E08200A2F1C04212682F4B51
:102620001A408300A3F1C0431A60704799B1102883
:1026300008D14FF02042126E42F004024FF02043C6
:102640001A661DE0244A126842F004024FF020434B
:10265000C3F8802014E0102809D14FF02042126EF8
:102660001E4BDB1E1A404FF020431A6608E01A4A40
:1026700012681A4BDB1E1A404FF02043C3F880202B
:10268000704748B114492031096841F004014FF006
:102690002042C2F8A01009E00F49203109680F4A12
:1026A000D21E11404FF02042C2F8A0107047B9B1BD
:1026B000102808D14FF02042126E42F040024FF035
:1026C00020431A661FE0044A126842F040024FF0AD
:1026D0002043C3F8802016E0800000A0FEFF0F001A
:1026E000102808D14FF02042126E6B4B1A404FF069
:1026F00020431A6607E0694A1268674B1A404FF098
:102700002043C3F88020704701460020102903D1E0
:102710004FF02042506F02E0604A14321068704758
:1027200010B5F2B1102807D14FF020435B6E0B4378
:102730004FF02044636632E0B0F5807F08D1574BFC
:102740001B1D1B680B434FF02044C4F8843026E067
:10275000524B24331B680B434FF02044C4F8A43081
:102760001DE0102807D14FF020435B6E8B434FF0E4
:102770002044636613E0B0F5807F08D1474B1B1DF2
:102780001B688B434FF02044C4F8843007E0434B70
:1027900024331B688B434FF02044C4F8A43010BD91
:1027A00010B5024600200023102A03D14FF0204428
:1027B000636E09E0B2F5807F03D1384C241D236895
:1027C00002E0364C2434236803EA01040CB10120F2
:1027D00000E0002010BD102807D14FF02042526EBB
:1027E0008A434FF020435A6613E0B0F5807F08D14A
:1027F0002A4A121D12688A434FF02043C3F88420EE
:1028000007E0264A243212688A434FF02043C3F877
:10281000A420704770B50246002000230024002544
:10282000102A03D14FF02046736E09E0B2F5807F85
:1028300003D11A4E361D336802E0184E2436336831
:1028400003EA010403EAD10514B10DB1012000E04F
:10285000002070BD102808D14FF02042526E22EAAD
:10286000D1024FF020435A6615E0B0F5807F09D1C0
:102870000A4A121D126822EAD1024FF02043C3F81F
:10288000842008E0054A2432126822EAD1024FF07F
:102890002043C3F8A4207047BFFF0F00800000A0B2
:1028A00010B50446BD48204478B1B0F5806F16D00D
:1028B000B0F5784F1DD101210803FDF7CFFF0021AE
:1028C0004FF48050FDF7CAFF14E001218803FDF7A3
:1028D000D2FF00214FF48040FDF7CDFF0AE0012137
:1028E000C803FDF7C8FF00214FF40040FDF7C3FF08
:1028F00000E000BF00BF10BD10B50022028802F446
:1029000041520B884C8823438C882343CC88234333
:102910000C8923434C8923438C892343CC8923434B
:102920001A430280838B4FF2FF74234083830B8A08
:10293000038210BD2DE9F04786B005460C464FF0E6
:10294000000902274FF000084FF0010A0026A88B6B
:102950004FF240010840A88302202884B5F81C905B
:102960002089022801D100BF31E0A08810B94FF0C2
:10297000010A01E04FF0020A01A8FDF7E8FEE08835
:10298000B0F5007F0AD1019800EB8000400021895A
:102990000902B0FBF1F0401D86B20BE04FEA4A108D
:1029A00021894843019901EB81014900B1FBF0F015
:1029B000401D86B20A20B6FBF0F606F00108A6EB31
:1029C0000800C0F34F074FF6FF7000EA0828022FF7
:1029D00001DBFF2F02DD02274FF0000847EA080065
:1029E000E18808432884208840F400606188084317
:1029F000A18808436189084340EA0909A5F81C90A9
:102A000006B0BDE8F0870021018041808180C1804F
:102A1000018141818181C1810721018270470021AB
:102A2000018041808180C18002210181002141819A
:102A3000704721B1028842F04002028004E002881F
:102A40004FF6BF731A400280704721B1828B42F467
:102A50008062828304E0828B4FF6FF331A408283C8
:102A6000704730B5002400230C110125A540ABB2FE
:102A70001AB185881D43858002E085889D43858045
:102A800030BD1AB183880B43838002E083888B4377
:102A900083807047818170470146888970474FF66F
:102AA000FF62914204D0028842F48072028004E006
:102AB00002884FF6FF631A400280704721B1828876
:102AC00042F00402828004E082884FF6FB731A40D1
:102AD0008280704702884FF2FF731A40028002889A
:102AE0000A4302807047018841F480510180704799
:102AF00021B1028842F40052028004E002884DF6BF
:102B0000FF731A400280704702460020012901D05D
:102B1000108B00E0908A70470146088A7047B1F533
:102B2000804F04D1028842F48042028004E002888F
:102B30004BF6FF731A40028070470246002013894B
:102B40000B400BB1012000E000207047CA43028116
:102B50007047F0B50246002000240023002501F054
:102B60000F070126BE40B4B20B1101269E40B3B23E
:102B7000968806EA03051689264016B10DB1012094
:102B800000E00020F0BD10B5002201F00F04012389
:102B9000A3409AB2D343038110BD000000C8FFBF19
:102BA000704708488047084981F30888074800476C
:102BB000FEE7FEE7FEE7FEE7FEE7FEE7FEE7FEE7ED
:102BC000FEE7FEE7A12B0008302C002031010008B1
:102BD00010B501220421A94800F00EFA00220121BB
:102BE000A64800F009FA10BD10B5FDF7B1FC4FF48E
:102BF0008030FDF7CCFCFDF709FD0446012C24D103
:102C00000020FDF748FD0020FDF757FDA002FDF76D
:102C10004BFD0220FEF724F81020FEF735F84FF4A4
:102C2000E0112004FDF71AFD0120FDF723FD00BF90
:102C30003920FDF7CFFC0028FAD00220FDF71DFD5A
:102C400000BFFDF723FD0828FBD110BD1CB5FFF721
:102C5000CBFF482000F034FA002089490870322068
:102C600000F04AFA87480088874908808749088029
:102C70008749088087490880FFF7AAFF05F0C6F951
:102C800009F0A2FC09F0A3F900231A460121084625
:102C900003F019FD4FF4E13003F0C8FB78224FF444
:102CA0007A717D4803F024FA0123002205210620D1
:102CB00003F07CFA002240F22131784803F018FA40
:102CC00000231A4640217548FFF744F801230022EB
:102CD0001946052003F06AFA0020009001231A46E5
:102CE00040F6B8310190482000F027FF6548008881
:102CF00000F0ADFF6348008800F0B2FF0AF06AF907
:102D000067A010F0E5FC1CBD1FB5FFF79FFF012079
:102D10005B49087060E04FF6FF7000210423CDE9A5
:102D20000010614832210268C8200BF06BF85F4840
:102D30008068C0F3800000BB5D495E4809F00BFD70
:102D40005B48008800EB400101EBC000502190FB84
:102D5000F1F01238584908805648008896214843B7
:102D600040F2493190FBF1F00D3854490880084693
:102D70000188514800880AF040F85148007801283D
:102D800025D150480078022821D14F480078E0B979
:102D900000203B49087001204B49087004F044FCB6
:102DA00004F0BBFC0420012148A242F24533CDE9E6
:102DB0000032CDE9021047A34FF25F425A2114209E
:102DC0000CF044FE01202E4908700AF07CFB4348B9
:102DD0000088401C414908809DE710B5ADF5A46D01
:102DE000C8223F490DF58B6010F0BCF88AA900207D
:102DF00008F0D7F93BA008F039FF044614B93CA00D
:102E000010F066FC3EA008F031FF044614B940A063
:102E100010F05EFC42A008F029FF044614B944A05B
:102E200010F056FC0A2246A101A808F0DAF904467F
:102E30008CB949A010F04CFC6B46C8220DF58B6193
:102E400001A808F042FB04460098C82806D245A015
:102E500010F03EFC02E047A010F03AFC49A138A077
:102E600008F0F6FF04464EA146A008F0F1FF044624
:102E700001A808F082FC0DF5A46D10BD000801400A
:102E8000180000205A0000205400002052000020AA
:102E9000500000204E00002000100040000C0040B8
:102EA0000D0A204F4B000000680000200010014078
:102EB000200000201E0000201A0000201C0000201E
:102EC00099020020980200204C000020576169748C
:102ED0000000000041645F3000000000640000203A
:102EE000F03A01084D795F64697261620000000088
:102EF0004D6B6469725F305F4F4B200D0A0000001C
:102F00004D795F64697261622F4D795F3100000015
:102F10004D6B6469725F315F4F4B200D0A000000FA
:102F20004D795F64697261622F4D795F32000000F4
:102F30004D6B6469725F325F4F4B200D0A000000D9
:102F40004D795F64697261622F4D795F312F7775BA
:102F50002E747874000000000D0A20437265616BC6
:102F60005F4F4B0077726974655F6E6F745F6F6B54
:102F7000200D0A000D0A20437265616B5F66696C63
:102F8000640000004D795F64697261622F4D795F62
:102F9000312F77757469616E2E74787400000000AB
:102FA0004D795F64697261622F4D795F322F777559
:102FB0007469616E2E74787400000000704700BF61
:102FC000FEE700BFFEE700BFFEE700BFFEE7704779
:102FD00070477047704710B50EF01CFA10BD10B561
:102FE0000FF0B0FB10BD10B54020FEF753F910B143
:102FF0004020FEF760F910BDF8B504460D461646B0
:103000002848844204D101210420FDF70DFC2EE064
:103010002548844204D101210820FDF705FC26E063
:103020002248844204D101211020FDF7FDFB1EE05F
:103030001F48844204D101212020FDF7F5FB16E052
:103040001C48844204D101214020FDF7EDFB0EE035
:103050001948844204D101218020FDF7E5FB06E0F8
:103060001648844203D101218015FDF7DDFB012EB6
:103070000CD1ADF8005003208DF8020010208DF81F
:10308000030069462046FDF733F909E046B9ADF87B
:10309000005048208DF8030069462046FDF728F9C6
:1030A000F8BD000000080140000C01400010014084
:1030B0000014014000180140001C014000200140A4
:1030C0004FF0E021096921F004014FF0E022116185
:1030D000C21700EB5272C2F3C702234B1A70194693
:1030E000097801EB4102C2EBC1114FF6FF7202EA0F
:1030F000C1011E4A1180704701461C4A12884A438A
:103100004FF0E0235A6100229A6101221A6100BF48
:103110004FF0E022106900F001021AB100F4803291
:10312000002AF5D000224FF0E0231A619A6170471F
:1031300001460D4A12784A434FF0E0235A610022BB
:103140009A6101221A6100BF4FF0E022106900F07D
:1031500001021AB100F48032002AF5D000224FF0AB
:10316000E0231A619A6170476E0000207000002011
:103170002DE9F04781460E4614461D46DDE90887D5
:1031800001210420FDF750FB01210846FDF74CFB0F
:103190000121C802FDF748FB012C09D12002FE499C
:1031A00008801820C87003208870FC48FDF7A0F83C
:1031B000012D09D16802F84908801820C870032041
:1031C0008870F648FDF794F8B8F1010F0AD14FF472
:1031D0008060F14908801820C87003208870EF488B
:1031E000FDF786F8012F09D1F802EB490880182075
:1031F000C87003208870E948FDF77AF8E848FEF7C0
:1032000069FAA9F10100E749088000204880701E92
:1032100088800020C8800872E148FEF7C6FA602066
:10322000E1490880012048800420888041F28830EC
:10323000C880002008814FF480708881012C02D161
:10324000D748FEF7CBFA012D03D1D749D448FEF772
:10325000FCFAB8F1010F03D1D349D148FEF73FFB87
:10326000012F03D1D049CE48FEF781FB0121CC4884
:10327000FEF721FD0121CA48FEF729FDBDE8F087D0
:1032800010B50446C74884800146C548FEF78DFA4C
:1032900010BD10B50446C448C4800146C048FEF7BE
:1032A0009DFA10BD10B50446BF48C4800146BC4815
:1032B000FEF7CBFA10BD10B50446BB48C4800146EA
:1032C000B748FEF70CFB10BD10B50446B648C480E5
:1032D0000146B348FEF74BFB10BD10B50446012C68
:1032E00003D10020B049088102E00220AE490881E4
:1032F000AD49AB48FEF772FA10BD10B50446012C7B
:1033000003D10020A849088102E00220A6490881D3
:10331000A549A348FEF799FA10BD10B50446012C43
:1033200003D10020A049088102E002209E490881C3
:103330009D499B48FEF7D3FA10BD10B50446012CF9
:1033400003D100209849088102E0022096490881B3
:1033500095499348FEF70BFB10BD2DE9F0478146D8
:103360000E4614461D46DDE9088701210846FDF793
:1033700068FA01210420FDF757FA012C09D1012038
:10338000854908801820C870032088708348FCF79E
:10339000AFFF012D09D102207F4908801820C87095
:1033A000032088707D48FCF7A3FFB8F1010F09D115
:1033B0000420794908801820C87003208870774855
:1033C000FCF796FF012F09D10820734908801820C7
:1033D000C870032088707148FCF78AFF4FF0804066
:1033E000FEF778F9A9F101007049088000204880B3
:1033F000701E88800020C88008724FF08040FEF761
:10340000D4F960206A49088001204880042088801F
:1034100041F28830C880002008814FF48070888194
:10342000012C02D18005FEF7D9F9012D03D16049A5
:10343000A807FEF70AFAB8F1010F04D15C494FF072
:103440008040FEF74CFA012F03D15949B807FEF727
:103450008EFA01218807FEF72EFC01218807FEF76E
:1034600036FCBDE8F08710B504465048848001461C
:103470004FF08040FEF799F910BD10B504464C4856
:10348000C48001464FF08040FEF7A8F910BD10B58A
:1034900004464748C48001464FF08040FEF7D5F906
:1034A00010BD10B504464248C48001464FF080402C
:1034B000FEF715FA10BD10B504463D48C48001461C
:1034C0004FF08040FEF753FA10BD10B50446012CB2
:1034D00003D100203649088102E0022034490881E6
:1034E00033494FF08040FEF779F910BD10B504461E
:1034F000012C03D100202E49088102E002202C4932
:1035000008812B494FF08040FEF79FF910BD10B5A0
:103510000446012C03D100202549088102E0022045
:103520002349088122494FF08040FEF7D8F910BDA9
:1035300010B50446012C03D100201D49088102E08A
:1035400002201B4908811A494FF08040FEF70FFA0C
:1035500010BD2DE9F04781460E4614461D46DDE9B3
:10356000088701210220FDF76CF901210C20FDF7ED
:103570005BF9012C09D14020074908801820C87048
:10358000032088700548FCF7B3FE012D18D1802078
:103590000149088018200DE0720000200008014059
:1035A000002C01404C08002088080020560800200C
:1035B00098080020C87003208870FE48FCF798FE29
:1035C000B8F1010F09D10120FB4908801820C8700B
:1035D00003208870F948FCF78BFE012F09D10220E7
:1035E000F54908801820C87003208870F348FCF75C
:1035F0007FFEF348FEF76EF8A9F10100F14908805B
:1036000000204880701E88800020C8800872EC4826
:10361000FEF7CBF86020EC490880012048800420A8
:10362000888041F28830C880002008814FF4807083
:103630008881012C02D1E248FEF7D0F8012D03D198
:10364000E149DF48FEF701F9B8F1010F03D1DE4986
:10365000DB48FEF744F9012F03D1DB49D848FEF7D8
:1036600086F90121D648FEF726FB0121D448FEF752
:103670002EFBBDE8F08710B50446D2488480014691
:10368000CF48FEF792F810BD10B50446CE48C4806E
:103690000146CB48FEF7A2F810BD10B50446CA4853
:1036A000C4800146C648FEF7D0F810BD10B50446E8
:1036B000C548C4800146C248FEF711F910BD10B5D7
:1036C0000446C148C4800146BD48FEF750F910BD0C
:1036D00010B50446012C03D10020BB49088102E04B
:1036E0000220B9490881B849B548FEF777F810BDFE
:1036F00010B50446012C03D10020B349088102E033
:103700000220B1490881B049AD48FEF79EF810BDCE
:1037100010B50446012C03D10020AB49088102E01A
:103720000220A9490881A849A548FEF7D8F810BD8C
:1037300010B50446012C03D10020A349088102E002
:103740000220A1490881A0499D48FEF710F910BD4B
:103750002DE9F04781460E4614461D46DDE90887EF
:1037600001210420FDF76DF801210820FDF75CF828
:10377000012C09D14020904908801820C8700320EE
:1037800088708E48FCF7B4FD012D09D180208A494C
:1037900008801820C870032088708848FCF7A8FDAE
:1037A000B8F1010F0AD14FF48070834908801820C6
:1037B000C870032088708148FCF79AFD012F09D159
:1037C00078027D4908801820C870032088707B48E3
:1037D000FCF78EFD7D48FDF77DFFA9F101007C49D6
:1037E000088000204880701E88800020C8800872F1
:1037F0007648FDF7DAFF602076490880012048808E
:103800000420888041F28830C880002008814FF46D
:1038100080708881012C02D16C48FDF7DFFF012DFB
:1038200003D16C496948FEF710F8B8F1010F03D1D4
:1038300068496648FEF753F8012F03D1654963488C
:10384000FEF795F801216148FEF735FA01215F483E
:10385000FEF73DFABDE8F08710B504465C48848069
:1038600001465A48FDF7A1FF10BD10B5044659485E
:10387000C48001465548FDF7B1FF10BD10B50446A0
:103880005448C48001465148FDF7DFFF10BD10B514
:1038900004465048C48001464C48FEF720F810BD4D
:1038A00010B504464B48C48001464848FEF75FF80F
:1038B00010BD10B50446012C03D1002045490881F4
:1038C00002E002204349088142494048FDF786FF53
:1038D00010BD10B50446012C03D100203D490881DC
:1038E00002E002203B4908813A493848FDF7ADFF24
:1038F00010BD10B50446012C03D1002035490881C4
:1039000002E002203349088132493048FDF7E7FFE1
:1039100010BD10B50446012C03D100202D490881AB
:1039200002E002202B4908812A492848FEF71FF8A7
:1039300010BD2DE9F04781460E4614461D46DDE9CF
:10394000088701210820FCF77CFF01210420FCF7F7
:103950006BFF012C09D10120174908801820C8707D
:10396000032088701348FCF7C3FC012D09D1022005
:10397000114908801820C870032088700D48FCF792
:10398000B7FCB8F1010F09D104200B4908801820B9
:10399000C870032088700748FCF7AAFC012F1DD1CE
:1039A0000820054908801820C87003208870014845
:1039B00012E000000008014072000020000C0140ED
:1039C0000004004060080020A80800200008004013
:1039D0006A080020B8080020FCF78AFCCE48FDF7F2
:1039E00079FEA9F10100CD49088000204880701EB1
:1039F00088800020C8800872C748FDF7D6FE602086
:103A0000C7490880012048800420888041F288301E
:103A1000C880002008814FF480708881012C02D179
:103A2000BD48FDF7DBFE012D03D1BD49BA48FDF7C6
:103A30000CFFB8F1010F03D1B949B748FDF74FFFAB
:103A4000012F03D1B649B448FDF791FF0121B248D7
:103A5000FEF731F90121B048FEF739F9BDE8F087EA
:103A600010B50446AD4884800146AB48FDF79DFE85
:103A700010BD10B50446AA48C4800146A648FDF70B
:103A8000ADFE10BD10B50446A548C4800146A2484D
:103A9000FDF7DBFE10BD10B50446A148C480014609
:103AA0009D48FDF71CFF10BD10B504469C48C4801E
:103AB00001469948FDF75BFF10BD10B50446012C87
:103AC00003D100209649088102E002209449088130
:103AD00093499148FDF782FE10BD10B50446012CB4
:103AE00003D100208E49088102E002208C49088120
:103AF0008B498948FDF7A9FE10BD10B50446012C7D
:103B000003D100208649088102E00220844908810F
:103B100083498148FDF7E3FE10BD10B50446012C32
:103B200003D100207E49088102E002207C490881FF
:103B30007B497948FDF71BFF10BD2DE9F047814611
:103B40000E4614461D46DDE90887012142F21000A9
:103B5000FCF76AFE012C09D1402072490880182028
:103B6000C870032088707048FCF7C2FB012D09D192
:103B700080206C4908801820C870032088706A482B
:103B8000FCF7B6FBB8F1010F0AD14FF4807065491C
:103B900008801820C870032088706348FCF7A8FBD1
:103BA000012F09D178025F4908801820C8700320CE
:103BB00088705D48FCF79CFB5C48FDF78BFDA9F124
:103BC00001005B49088000204880701E888000202A
:103BD000C88008725548FDF7E8FD60205549088007
:103BE000012048800420888041F28830C88000206D
:103BF00008814FF480708881012C02D14B48FDF779
:103C0000EDFD012D03D14B494848FDF71EFEB8F1EB
:103C1000010F03D147494548FDF761FE012F03D14C
:103C200044494248FDF7A3FE01214048FEF743F80E
:103C300001213E48FEF74BF8BDE8F08710B5044679
:103C40003B48848001463948FDF7AFFD10BD10B5F3
:103C500004463848C48001463448FDF7BFFD10BD16
:103C600010B504463348C48001463048FDF7EDFDE9
:103C700010BD10B504462F48C48001462B48FDF7FF
:103C80002EFE10BD10B504462A48C48001462748C0
:103C9000FDF76DFE10BD10B50446012C03D10020C8
:103CA0002449088102E002202249088121491F4855
:103CB000FDF794FD10BD10B50446012C03D1002082
:103CC0001C49088102E002201A4908811949174855
:103CD000FDF7BBFD10BD10B50446012C03D100203B
:103CE0001449088102E002201249088111490F4855
:103CF000FDF7F5FD10BD10B50446012C03D10020E1
:103D00000C49088102E002200A4908810949074854
:103D1000FDF72DFE10BD0000000C004074080020CF
:103D2000C80800207200002000100140003401404B
:103D30007E080020D808002070B50546002405E064
:103D4000601CC4B2C82C01DD002070BD0221C9482E
:103D5000FEF7F3FE0028F3D02946C648FEF79AFE88
:103D6000002400BF0121C348FEF7E7FE0028F9D078
:103D7000601CC4B2C82C01DD0020E6E7BD48FEF798
:103D80008BFEC0B2E1E708B501210803FCF74CFD4A
:103D900001210420FCF748FDE020ADF800000320DD
:103DA0008DF8020018208DF803006946B248FCF730
:103DB0009FFA0020B14908804FF4827048800020AB
:103DC0008880C88008814FF4007048811020888165
:103DD0000020C88107200882A648FEF78DFD01213A
:103DE000A448FEF726FEFF20FFF7A6FF08BD10B58A
:103DF0000446A248848101469E48FEF77DFD0121CC
:103E00009C48FEF716FE10BD70B50546002405E07F
:103E1000601CC4B2C82C01DD002070BD022198488E
:103E2000FEF78BFE0028F3D029469548FEF732FEB8
:103E3000002405E0601CC4B2C82C01DD0020ECE7C2
:103E400001218F48FEF779FE0028F3D08C48FEF759
:103E500023FEC0B2E1E708B501210820FCF7E4FC2D
:103E600001218803FCF7EDFC4FF46040ADF8000041
:103E700018208DF8030003208DF802006946814860
:103E8000FCF736FA4FF460417E48FCF7DEFA00207A
:103E90007D4908804FF48270488000208880C88067
:103EA00008814FF400704881102088810020C8816B
:103EB000072008827248FEF71FFD01217048FEF7B7
:103EC000B8FDFF20FFF7A0FF08BD10B504466E48FF
:103ED000848101466A48FEF70FFD01216848FEF71C
:103EE000A8FD10BD70B50546002405E0601CC4B2F5
:103EF000C82C01DD002070BD02216448FEF71DFEC4
:103F00000028F3D029466148FEF7C4FD002405E0EF
:103F1000601CC4B2C82C01DD0020ECE701215B4825
:103F2000FEF70BFE0028F3D05848FEF7B5FDC0B2EF
:103F3000E1E710B501210846FCF776FC0121544861
:103F4000FCF7A7FA01215348FCF7A3FA10BD08B506
:103F5000FFF7EFFF01210820FCF766FC0121C803F1
:103F6000FCF76FFC3820ADF8000018208DF8030036
:103F700003208DF8020069464248FCF7B9F9382160
:103F80004048FCF762FA0020434908804FF48270F1
:103F9000488000208880C88008814FF400704881E4
:103FA000102088810020C881072008823748FEF74A
:103FB000A3FC01213548FEF73CFDFF20FFF792FFEF
:103FC00008BD10B504463448848101462F48FEF7E9
:103FD00093FC01212D48FEF72CFD10BD70B5044661
:103FE00000251CE004F0800020B180212248FCF76D
:103FF0002CFA03E080212048FCF729FA6006040E21
:1040000020211D48FCF721FA40211B48FCF703FA48
:10401000044320211848FCF71AFA681CC5B2082D81
:10402000E0DB204670BD08B501210420FCF7FCFB55
:104030002020ADF8000003208DF8020010208DF83C
:10404000030069460C48FCF753F98020ADF80000E6
:1040500069460948FCF74CF94020ADF800004820BB
:104060008DF8030069460448FCF742F9FF20FFF78A
:10407000B5FF08BD0030014000080140E8080020FD
:1040800000380040000C0140FA080020003C0040CD
:1040900000043000000230000C09002010B580211F
:1040A000F648FEF7E6F818B18021F448FEF7F2F87A
:1040B00010BD10B50121F148FEF7DBF830B1012148
:1040C000EE48FEF7E7F8EEA00FF002FB10BD10B5CA
:1040D0004021EA48FEF7CDF818B14021E748FEF745
:1040E000D9F810BD70B504460D461021E348FEF71F
:1040F000C0F8002851D01021E048FEF7CBF8E24884
:10410000007890BB0120E0490870DC48FEF79BF87E
:10411000DE49088008460088DD49098888421ADDA2
:10412000DA480088DA490988401ADA490880DA480A
:104130000088DA4991FBF0F0D649098890FBF1F04C
:104140002080D74800884FF47A714843D1490988C4
:1041500090FBF1F02880CD480088CD4908800221ED
:10416000C648FDF7A1FF012070BDFFE7C6480078F3
:1041700001280FD10020C4490870C048FEF763F839
:10418000C2490988401AC64908800021BB48FDF78A
:104190008BFF02E00020BC4908700020E4E770B506
:1041A00004460D460821B548FEF763F8002851D0B3
:1041B0000821B248FEF76EF8BA48007890BB01209B
:1041C000B8490870AD48FEF73BF8B7490880084683
:1041D0000088B649098888421ADDB3480088B34987
:1041E0000988401AB2490880AB480088AB4991FB66
:1041F000F0F0AF49098890FBF1F02080AD480088CD
:104200004FF47A714843AA49098890FBF1F028805D
:10421000A5480088A549088002219848FDF72AFF93
:10422000012070BDFFE79F48007801280FD10020D2
:104230009C4908709148FEF703F89B490988401A89
:104240009C49088000218D48FDF714FF02E0002002
:10425000944908700020E4E770B504460D46042137
:104260008648FEF706F8002851D004218348FEF75F
:1042700011F89148007890BB01208F4908707F4861
:10428000FDF7DBFF8D490880084600888C490988C6
:1042900088421ADD8948008889490988401A894975
:1042A00008807D4800887D4991FBF0F085490988A8
:1042B00090FBF1F02080844800884FF47A714843E5
:1042C0008049098890FBF1F028807C4800887C496F
:1042D000088002216948FDF7B3FE012070BDFFE7A9
:1042E0007548007801280FD1002073490870634891
:1042F000FDF7A3FF71490988401A7349088000211E
:104300005E48FDF79DFE02E000206B49087000202A
:10431000E4E770B504460D4602215848FDF7A9FFB1
:10432000002851D002215548FDF7B4FF67480078B6
:1043300090BB0120654908705048FDF77BFF644938
:104340000880084600886349098888421ADD604869
:10435000008860490988401A5F4908804E480088F3
:104360004E4991FBF0F05C49098890FBF1F0208008
:104370005A4800884FF47A7148435749098890FB9E
:10438000F1F02880524800885249088002213B48B9
:10439000FDF744FE012070BDFFE74C48007801287E
:1043A0000FD10020494908703448FDF743FF4849C0
:1043B0000988401A4949088000213048FDF72EFE3F
:1043C00002E00020414908700020E4E710B54449AC
:1043D0004448FFF79EFF44494448FFF73DFF4449E6
:1043E0004448FFF7DCFE44494448FFF77BFE10BD1C
:1043F00070B504460D4610218806FDF73AFF0028E7
:104400003AD010218806FDF745FF3D48007890BB63
:1044100001203B4908708007FDF715FF39490880E6
:10442000084600883849098888421ADD35480088DE
:1044300035490988401A35490880354800881749A8
:1044400091FBF0F03149098890FBF1F02080314870
:1044500000884FF47A7148432C49098890FBF1F0A9
:104460002880284800882849088002214807FDF74D
:104470001BFE012070BD4FE067E00000002C0140F2
:104480000D0A2054494D3100BA000020BE00002022
:10449000BC000020C00000207A00002000A24A04D6
:1044A000C2000020B0000020B4000020B2000020B4
:1044B000B6000020B8000020A6000020AA000020BE
:1044C000A8000020AC000020AE0000209C000020CE
:1044D000A00000209E000020A2000020A4000020D8
:1044E00088000020860000208C0000208A00002028
:1044F000900000208E0000209400002092000020F8
:10450000E2000020E6000020E4000020E800002097
:104510007C000020EA000020FA480078012811D130
:104520000020F84908704FF08040FDF78CFEF649F6
:104530000988401AF549088000214FF08040FDF7B6
:10454000B3FD02E00020EF490870002070BD70B597
:1045500004460D460821C806FDF78BFE002853D0FF
:104560000821C806FDF796FEE948007890BB0120B7
:10457000E74908708007FDF763FEE64908800846B2
:104580000088E549098888421ADDE2480088E24946
:104590000988401AE1490880E1480088E14991FB17
:1045A000F0F0DE49098890FBF1F02080DE480088B9
:1045B0004FF47A714843D949098890FBF1F028807B
:1045C000D4480088D449088002214807FDF752FDED
:1045D000012070BDFFE7CE480078012811D10020EE
:1045E000CB4908704FF08040FDF72AFEC949098881
:1045F000401ACD49088000214FF08040FDF73AFD78
:1046000002E00020C24908700020E2E770B50446CD
:104610000D4604210807FDF72CFE002853D0042185
:104620000807FDF737FEC148007890BB0120BF495D
:1046300008708007FDF701FEBD4908800846008824
:10464000BC49098888421ADDB9480088B9490988F7
:10465000401AB9490880B2480088B24991FBF0F08D
:10466000B549098890FBF1F02080B44800884FF4E8
:104670007A714843B049098890FBF1F02880AC4832
:104680000088AC49088002214807FDF7D9FC0120C9
:1046900070BDFFE7A5480078012811D10020A3498B
:1046A00008704FF08040FDF7C8FDA1490988401A05
:1046B000A249088000214FF08040FDF7C1FC02E0D4
:1046C00000209A4908700020E2E770B504460D46C4
:1046D00002214807FDF7CDFD002853D002214807ED
:1046E000FDF7D8FD9648007890BB012094490870EA
:1046F0008007FDF79FFD934908800846008892498E
:10470000098888421ADD8F4800888F490988401A35
:104710008E49088082480088824991FBF0F08B49DD
:10472000098890FBF1F02080894800884FF47A7165
:1047300048438649098890FBF1F028808148008829
:104740008149088002214807FDF768FC012070BDFF
:10475000FFE77B480078012811D1002078490870D4
:104760004FF08040FDF766FD76490988401A784988
:10477000088000214FF08040FDF750FC02E000204F
:104780006F4908700020E2E710B501218807FDF7A6
:1047900070FD18B101218807FDF77CFD6D496E4859
:1047A000FFF793FF6D496E48FFF730FF6D496E4884
:1047B000FFF7CDFE6D496E48FFF71AFE10BD70B5CC
:1047C00004460D4610216B48FDF753FD002851D0DB
:1047D00010216848FDF75EFD6748007890BB012016
:1047E000654908706348FDF72EFD64490880084656
:1047F00000886349098888421ADD6048008860495A
:104800000988401A5F4908805F480088454991FB44
:10481000F0F05C49098890FBF1F020805B4800884B
:104820004FF47A7148435749098890FBF1F028808A
:10483000524800885249088002214E48FDF734FC56
:10484000012070BDFFE74C48007801280FD10020FF
:10485000494908704748FDF7F6FC48490988401A5D
:104860004A49088000214348FDF71EFC02E0002071
:10487000414908700020E4E770B504460D46082160
:104880003C48FDF7F6FC00283AD008213948FDF7EE
:1048900001FD3F48007890BB01203D490870354834
:1048A000FDF7CEFC3B490880084600883A49098854
:1048B00088421ADD3748008837490988401A374945
:1048C000088031480088174991FBF0F03349098886
:1048D00090FBF1F02080324800884FF47A71484311
:1048E0002E49098890FBF1F028802A4800882A493F
:1048F000088002211F48FDF7BDFB012070BD51E07B
:1049000067E00000E2000020E6000020EA0000204E
:10491000D8000020DC000020DA000020DE000020AB
:104920007C00002000A24A04E0000020CE0000200D
:10493000D2000020D0000020D4000020D6000020AB
:10494000C4000020C8000020C6000020CA000020CB
:10495000CC00002088000020860000208C00002071
:104960008A000020900000208E000020940000208B
:1049700092000020000400400A0100200E010020E7
:104980000C010020100100207E00002012010020F8
:104990000001002004010020020100200601002087
:1049A00008010020F648007801280FD10020F449C2
:1049B0000870F448FDF744FCF3490988401AF349AC
:1049C00008800021EF48FDF755FB02E00020EC498C
:1049D0000870002070BD70B504460D460421E948FA
:1049E000FDF747FC002851D00421E648FDF752FCB2
:1049F000E748007890BB0120E5490870E148FDF7E1
:104A00001CFCE449088008460088E349098888427C
:104A10001ADDE0480088E0490988401ADF4908802B
:104A2000DF480088DF4991FBF0F0DC49098890FB02
:104A3000F1F02080DC4800884FF47A714843D74970
:104A4000098890FBF1F02880D2480088D24908807C
:104A50000221CC48FDF7F4FA012070BDFFE7CC48F5
:104A6000007801280FD10020C9490870C548FDF71A
:104A7000E4FBC8490988401ACB4908800021C14895
:104A8000FDF7DEFA02E00020C14908700020E4E7EB
:104A900070B504460D460221BA48FDF7EAFB00282E
:104AA00051D00221B748FDF7F5FBC048007890BB14
:104AB0000120BE490870B348FDF7BCFBBC49088023
:104AC00008460088BB49098888421ADDB848008832
:104AD000B8490988401AB8490880B1480088B149E6
:104AE00091FBF0F0B449098890FBF1F02080B348C5
:104AF00000884FF47A714843AF49098890FBF1F080
:104B00002880AB480088AB49088002219D48FDF70A
:104B100085FA012070BDFFE7A448007801280FD175
:104B20000020A24908709748FDF784FBA049098836
:104B3000401AA249088000219248FDF76FFA02E06E
:104B400000209A4908700020E4E710B501218D4843
:104B5000FDF78FFB18B101218A48FDF79BFB9849AF
:104B60009848FFF795FF98499848FFF734FF984910
:104B70009848FFF781FE98499848FFF720FE10BD3E
:104B800070B504460D4610219548FDF772FB0028CC
:104B900051D010219248FDF77DFB9248007890BBE0
:104BA0000120904908708E48FDF74DFB8E49088022
:104BB000084600888D49098888421ADD8A4800889D
:104BC0008A490988401A8A4908808A4800887549B4
:104BD00091FBF0F08649098890FBF1F0208086482F
:104BE00000884FF47A7148438149098890FBF1F0BD
:104BF00028807D4800887D49088002217848FDF79B
:104C000053FA012070BDFFE77648007801280FD1E4
:104C10000020744908707248FDF715FB7249098835
:104C2000401A7549088000216D48FDF73DFA02E001
:104C300000206C4908700020E4E770B504460D467A
:104C400008216748FDF715FB002851D0082164486A
:104C5000FDF720FB6948007890BB01206749087088
:104C60005F48FDF7EDFA6649088008460088654907
:104C7000098888421ADD6248008862490988401A1A
:104C8000614908805B480088464991FBF0F05E4925
:104C9000098890FBF1F020805C4800884FF47A711D
:104CA00048435949098890FBF1F02880544800880E
:104CB0005449088002214A48FDF7DCF9012070BD03
:104CC000FFE74E48007801280FD100204B490870BB
:104CD0004348FDF7B5FA4A490988401A4B4908800C
:104CE00000213F48FDF7C6F902E000204349087063
:104CF0000020E4E770B504460D4604213848FDF76E
:104D0000B8FA00283AD004213548FDF7C3FA4048E4
:104D1000007890BB01203E4908703148FDF78DFABC
:104D20003C490880084600883B49098888421ADDCA
:104D30003848008838490988401A384908802D4881
:104D40000088184991FBF0F03449098890FBF1F094
:104D50002080334800884FF47A7148432F490988EE
:104D600090FBF1F028802B4800882B490880022115
:104D70001B48FDF765F9012070BD53E069E00000B4
:104D80000001002000040040040100200801002070
:104D9000F6000020FA000020F8000020FC000020AF
:104DA0007E00002000A24A04FE000020EC0000204B
:104DB000F0000020EE000020F2000020F4000020AF
:104DC00088000020860000208C0000208A0000203F
:104DD000900000208E00002094000020920000200F
:104DE000000800403201002036010020340100207C
:104DF00038010020800000203A0100202801002016
:104E00002C0100202A0100202E010020300100206A
:104E10001E0100202201002020010020240100208A
:104E200026010020F648007801280FD10020F4491F
:104E30000870F448FDF701FAF3490988401AF3496C
:104E400008800021EF48FDF7FBF802E00020EC4964
:104E50000870002070BD70B504460D460221E94877
:104E6000FDF707FA002851D00221E648FDF712FAB3
:104E7000E748007890BB0120E5490870E148FDF75C
:104E8000D9F9E449088008460088E349098888423E
:104E90001ADDE0480088E0490988401ADF490880A7
:104EA000DF480088DF4991FBF0F0DC49098890FB7E
:104EB000F1F02080DC4800884FF47A714843D749EC
:104EC000098890FBF1F02880D2480088D2490880F8
:104ED0000221CC48FDF7A2F8012070BDFFE7CC48C5
:104EE000007801280FD10020C9490870C548FDF796
:104EF000A1F9C8490988401ACB4908800021C14856
:104F0000FDF78CF802E00020C14908700020E4E7BA
:104F100010B50121BB48FDF7ACF918B10121B94822
:104F2000FDF7B8F9C149C248FFF795FFC149C2482A
:104F3000FFF7E0FEC149C248FFF77FFEC149C24802
:104F4000FFF71EFE10BD70B504460D461021BF4888
:104F5000FDF78FF9002851D01021BC48FDF79AF9D0
:104F6000BB48007890BB0120B9490870B748FDF7ED
:104F70006AF9B849088008460088B7490988884214
:104F80001ADDB4480088B4490988401AB34908803A
:104F9000B3480088A34991FBF0F0B049098890FB21
:104FA000F1F02080AF4800884FF47A714843AB4954
:104FB000098890FBF1F02880A6480088A64908805F
:104FC0000221A248FDF770F8012070BDFFE7A0485C
:104FD000007801280FD100209D4908709B48FDF7FB
:104FE00032F99C490988401A9E4908800021974857
:104FF000FDF75AF802E00020954908700020E4E728
:1050000070B504460D4608219048FDF732F9002896
:1050100051D008218D48FDF73DF99348007890BBA9
:105020000120914908708948FDF70AF98F490880E5
:10503000084600888E49098888421ADD8B48008816
:105040008B490988401A8B49088085480088754932
:1050500091FBF0F08749098890FBF1F020808648A9
:1050600000884FF47A7148438249098890FBF1F037
:1050700028807E4800887E49088002217348FCF71A
:10508000F9FF012070BDFFE77748007801280FD1B4
:105090000020754908706D48FDF7D2F873490988FA
:1050A000401A7549088000216848FCF7E3FF02E0D8
:1050B00000206D4908700020E4E770B504460D46F5
:1050C00004216248FDF7D5F8002851D004215F483B
:1050D000FDF7E0F86948007890BB01206749087047
:1050E0005A48FDF7AAF866490880084600886549CD
:1050F000098888421ADD6248008862490988401A96
:105100006149088056480088464991FBF0F05E49A5
:10511000098890FBF1F020805C4800884FF47A7198
:1051200048435949098890FBF1F028805448008889
:105130005449088002214548FCF782FF012070BDD8
:10514000FFE74E48007801280FD100204B49087036
:105150003E48FDF772F84A490988401A4B490880D1
:1051600000213A48FCF76CFF02E000204349087038
:105170000020E4E770B504460D4602213348FDF7F0
:1051800078F800283AD002213048FDF783F84048EB
:10519000007890BB01203E4908702C48FDF74AF882
:1051A0003C490880084600883B49098888421ADD46
:1051B0003848008838490988401A38490880284802
:1051C0000088184991FBF0F03449098890FBF1F010
:1051D0002080334800884FF47A7148432F4909886A
:1051E00090FBF1F028802B4800882B490880022191
:1051F0001648FCF713FF012070BD53E069E0000082
:105200001E0100200008004022010020260100208D
:105210001401002018010020160100201A010020AE
:105220008000002000A24A041C0100208800002009
:10523000860000208C0000208A00002090000020C2
:105240008E0000209400002092000020000C0040FE
:105250005A0100205E0100205C0100206001002056
:105260008200002062010020500100205401002033
:105270005201002056010020580100204601002064
:105280004A010020480100204C0100204E0100206E
:105290003C010020400100203E010020420100208E
:1052A00044010020FE48007801280FD10020FC496D
:1052B0000870FC48FCF7BEFFFB490988401AFB490F
:1052C00008800021F748FCF7A9FE02E00020F4491D
:1052D0000870002070BD1CB50121F248FCF7C9FF21
:1052E00050B30121EF48FCF7D5FFF1480088401C7E
:1052F000EF49088008460088EE490860EC480088BD
:10530000182819DB0020EA4908800090034602466D
:1053100040F6B83101904820FEF70FFC4FF47A7048
:10532000FDF7EAFE0020009001231A4640F6B8314E
:1053300001904820FEF701FCDF49E048FFF71AFF23
:10534000DF49E048FFF7B9FEDF49E048FFF758FEC4
:10535000DF49E048FFF7F7FD1CBD0EB50121DE482F
:10536000FCF787FF002844D00121DB48FCF792FFBF
:10537000DA48007800B3DA48DA49DB4ADB4BCDE99A
:1053800000210290DA4ADB49DB4802F077FBDB4878
:105390000268DB480168DB48006801F0A0FBDA48DE
:1053A000007850B1D9480388D9480288D948018883
:1053B000D948008801F02CFB06E0D8480388028811
:1053C0000188008801F024FBD5480088B0F5167FDD
:1053D0000ADBD4480188D4A00EF07AF90020D14924
:1053E0000880CF49088004E0CD480088401CCC49A3
:1053F00008800EBD10B50121CD48FCF73AFF88B1F9
:105400000121CB48FCF746FFCA480088B0F5C87FA9
:1054100003DD0020C749088004E0C6480088401C1E
:10542000C449088010BD10B50121C348FCF721FF15
:1054300030B10121C048FCF72DFFC0A00EF048F9A3
:1054400010BD70B504460D461021BB48FCF711FF96
:10545000002851D01021B848FCF71CFFB94800784B
:1054600090BB0120B7490870B348FCF7ECFEB64981
:10547000088008460088B549098888421ADDB24884
:105480000088B2490988401AB1490880B1480088AB
:10549000B14991FBF0F0AE49098890FBF1F0208012
:1054A000AE4800884FF47A714843A949098890FBB7
:1054B000F1F02880A4480088A449088002219E4871
:1054C000FCF7F2FD012070BDFFE79E48007801283F
:1054D0000FD100209B4908709748FCF7B4FE9A4909
:1054E0000988401A9D49088000219348FCF7DCFD9B
:1054F00002E00020934908700020E4E770B50446FC
:105500000D4608218C48FCF7B4FE002851D0082134
:105510008948FCF7BFFE9248007890BB0120904973
:1055200008708548FCF78CFE8E4908800846008884
:105530008D49098888421ADD8A4800888A49098885
:10554000401A8A49088083480088834991FBF0F01B
:105550008649098890FBF1F02080854800884FF447
:105560007A7148438149098890FBF1F028807D4891
:1055700000887D49088002216F48FCF77BFD0120EF
:1055800070BDFFE77648007801280FD100207449EC
:1055900008706948FCF754FE72490988401A74493A
:1055A000088000216448FCF765FD02E000206C499A
:1055B00008700020E4E770B504460D4604215E48FB
:1055C000FCF757FE002851D004215B48FCF762FE2F
:1055D0006848007890BB0120664908705648FCF77F
:1055E0002CFE65490880084600886449098888427D
:1055F0001ADD6148008861490988401A60490880BD
:1056000054480088544991FBF0F05D49098890FBAB
:10561000F1F020805B4800884FF47A714843584984
:10562000098890FBF1F0288053480088534908808E
:1056300002214148FCF704FD012070BDFFE74D4801
:10564000007801280FD100204A4908703A48FCF739
:10565000F4FD49490988401A4A4908800021364822
:10566000FCF7EEFC02E00020424908700020E4E76D
:1056700070B504460D4602212F48FCF7FAFD0028BC
:105680000CD002212C48FCF705FE3F48007820B9D9
:1056900001203D490870284878E0A6E0BCE0000001
:1056A0003C010020000C004040010020440100208B
:1056B000960000206800002088000020860000205E
:1056C0008C0000208A000020900000208E00002026
:1056D00094000020920000200010004018000020DC
:1056E0003C000020380000202C0000203400002066
:1056F0002800002030000020240000204800002066
:1057000044000020400000205E00002054000020E3
:1057100052000020500000204E0000205A000020BF
:1057200098000020640000202025640D0A0000007D
:10573000001400409A000020003401400D0A20545B
:10574000494D38008201002086010020840100209C
:10575000880100208400002000A24A048A01002061
:10576000780100207C0100207A0100207E010020C9
:10577000800100206E0100207201002070010020D5
:10578000740100207601002064010020FCF752FD26
:10579000F949088008460088F849098888421ADDD6
:1057A000F5480088F5490988401AF5490880F54808
:1057B0000088F54991FBF0F0F149098890FBF1F080
:1057C0002080F24800884FF47A714843EC490988F8
:1057D00090FBF1F02880E8480088E8490880022121
:1057E000EB48FCF71BFC012070BDEA48007801285B
:1057F0000FD10020E7490870E548FCF71BFDDE49A2
:105800000988401AE14908800021E148FCF706FCBC
:1058100002E00020DF4908700020E5E710B5DE490E
:10582000DE48FFF725FFDE49DE48FFF7C4FEDE490C
:10583000DE48FFF763FEDE49DE48FFF702FE10BDDB
:1058400010B54021D248FCF714FD18B14021D048D2
:10585000FCF720FD10BD10B58021CD48FCF709FDF7
:1058600018B18021CA48FCF715FD10BD70B588B08D
:1058700005460E46144601210C20FAF7D5FF0121FA
:105880000846FAF7D1FF0121C802FAF7CDFFCA484E
:105890000580012C0DD12002ADF81C0004208DF8EC
:1058A0001F0003208DF81E0007A9C448FAF720FD49
:1058B0002FE0022C0DD12002ADF81C0004208DF841
:1058C0001F0003208DF81E0007A9BC48FAF710FD41
:1058D0001FE0032C0ED14FF48060ADF81C000420B3
:1058E0008DF81F0003208DF81E0007A9B348FAF7B2
:1058F000FFFC0EE0042C0CD16002ADF81C0004206B
:105900008DF81F0003208DF81E0007A9AB48FAF799
:10591000EFFCADF81460681E80B2ADF810000020F6
:10592000ADF81600ADF8120004A9A548FBF73DFF3D
:10593000012C03D10020ADF8040010E0022C03D1AB
:105940000420ADF804000AE0032C03D10820ADF8D0
:10595000040004E0042C02D10C20ADF80400002067
:10596000ADF806000120ADF808000020ADF80A00EF
:10597000ADF80C0001A99248FCF7F3F8012C05D111
:10598000012203218E48FCF7B1F916E0022C05D163
:10599000012205218A48FCF7A9F90EE0032C05D164
:1059A000012209218648FCF7A1F906E0042C04D164
:1059B000012211218248FCF799F901218048FCF766
:1059C0007AF908B070BD70B588B005460E46144629
:1059D00001210846FAF735FF01210420FAF724FFD8
:1059E00078480580012C0DD10120ADF81C00042061
:1059F0008DF81F0003208DF81E0007A96F48FAF7E5
:105A000077FC2DE0022C0DD10220ADF81C00042003
:105A10008DF81F0003208DF81E0007A96748FAF7CC
:105A200067FC1DE0032C0CD10420ADF81C008DF8A0
:105A30001F0003208DF81E0007A96048FAF758FCE4
:105A40000EE0042C0CD10820ADF81C0004208DF8C9
:105A50001F0003208DF81E0007A95848FAF748FCDC
:105A6000ADF81460681E80B2ADF810000020ADF8EB
:105A70001600ADF8120004A94FF08040FBF795FE28
:105A8000012C03D10020ADF8040010E0022C03D15A
:105A90000420ADF804000AE0032C03D10820ADF87F
:105AA000040004E0042C02D10C20ADF80400002016
:105AB000ADF806000120ADF808000020ADF80A009E
:105AC000ADF80C0001A94FF08040FCF74AF8012C1A
:105AD00005D1012203219007FCF708F916E0022CFA
