:020000040800F2
:10000000000400208F2B0008A92F0008AB2F000848
:10001000AF2F0008B32F0008B72F00080000000022
:10002000000000000000000000000000BB2F0008DE
:10003000BD2F000800000000BF2F0008C12F0008DE
:10004000AF2B0008AF2B0008AF2B0008AF2B000828
:10005000AF2B0008AF2B0008AF2B0008AF2B000818
:10006000AF2B0008AF2B0008AF2B0008AF2B000808
:10007000AF2B0008AF2B0008AF2B0008AF2B0008F8
:10008000AF2B0008AF2B0008AF2B0008C32F0008D0
:10009000CB2F0008AF2B0008AF2B0008D32F000890
:1000A000854000089B400008B7400008B5430008A1
:1000B00071470008334B0008F94E0008AF2B0008C9
:1000C000AF2B0008AF2B0008AF2B0008AF2B0008A8
:1000D000AF2B000877690008AF2B0008AF2B000892
:1000E000AF2B0008AF2B0008AF2B00083F580008CB
:1000F0000F5400082958000805580008AF2B0008C5
:10010000AF2B00088FA30008BF520008AF2B0008D8
:10011000AF2B0008AF2B000843530008DD53000845
:10012000AF2B0008AF2B0008AF2B0008AF2B000847
:10013000DFF80CD013F00CFA00480047F52C00084B
:10014000382C002031490143314A1160704770B5A5
:10015000002100230F22C4780CB32D4C246804F432
:10016000E064C4F5E064210AC1F10403CA404478A4
:1001700004FA03F18478144021430901254C0678E0
:10018000A155047804F01F050124AC4005786D11D9
:100190004FF0E02606EB8505C5F8004109E004783C
:1001A00004F01F050124AC401B4D0678761145F87C
:1001B000264070BD194A0A400243154B1B1F1A60A6
:1001C000704739B1124A121D12680243104B1B1DB1
:1001D0001A6006E00E4A121D126882430C4B1B1D6A
:1001E0001A607047042808D14FF0E021096941F0F6
:1001F00004014FF0E022116107E04FF0E0210969AE
:1002000021F004014FF0E022116170470000FA056F
:100210000CED00E000E400E080E100E080FFFF1F63
:1002200010B50446C549601A8C422FD009DCC44879
:10023000201810D0B0F5806F16D0B0F5006F4AD1FD
:100240001BE0B0F5806F2AD0B0F5006F30D0B0F56C
:10025000406F40D135E00121042000F0F9FA00217F
:10026000042000F0F5FA37E00121082000F0F0FA50
:100270000021082000F0ECFA2EE00121102000F00F
:10028000E7FA0021102000F0E3FA25E00121202008
:1002900000F0DEFA0021202000F0DAFA1CE0012153
:1002A000402000F0D5FA0021402000F0D1FA13E000
:1002B0000121802000F0CCFA0021802000F0C8FA53
:1002C0000AE00121080200F0C3FA00214FF4807017
:1002D00000F0BEFA00E000BF00BF10BD10B5012164
:1002E000084600F0B5FA0021012000F0B1FA10BD77
:1002F0002DE9F041024600250026002000230024BD
:10030000002791F803C00CF00F0591F803C01CF012
:10031000100F03D091F802C04CEA050591F800C017
:10032000BCF1000F31D0146800202BE04FF0010C1D
:100330000CFA00F3B1F800C00CEA03069E4220D18B
:1003400083004FF00F0C0CFA03F7BC4305FA03FCD3
:100350004CEA040491F803C0BCF1280F06D14FF019
:10036000010C0CFA00FCC2F814C00AE091F803C0BA
:10037000BCF1480F05D14FF0010C0CFA00FCC2F89B
:1003800010C0401C0828D1D31460B1F800C0BCF1E3
:10039000FF0F34DD546800202EE000F1080C4FF010
:1003A000010808FA0CF3B1F800C00CEA03069E42FB
:1003B00021D183004FF00F0C0CFA03F7BC4305FA70
:1003C00003FC4CEA040491F803C0BCF1280F05D1EA
:1003D00000F1080C08FA0CF8C2F8148091F803C078
:1003E000BCF1480F07D100F1080C4FF0010808FAE2
:1003F0000CF8C2F81080401C0828CED35460BDE829
:10040000F0814FF6FF710180022181700421C170DB
:1004100070470246002093680B4201D0012000E0A3
:10042000002070470146886880B27047024600206D
:10043000D3680B4201D0012000E000207047014644
:10044000C86880B2704701617047416170470AB166
:10045000016100E041617047C16070474FF4803234
:100460000A438261816182618269826970470246C2
:100470000020344B18684FF68073184040EA021091
:100480000843304B186070472F49C8617047F0B57A
:100490000A4600230024002100252A4E7168C0F37B
:1004A000034583B200F44016B6F5401F08D121F091
:1004B0007061244E766826F07066224F7E6012E0EE
:1004C00000F48016B6F5801F06D1032606FA05F45F
:1004D000A14341F0706106E0460D360103FA06F6CD
:1004E000B14341F0706122B1460D360103FA06F6C0
:1004F0003143144E7160F0BD30B500228B071C0FE4
:100500000F2303FA04F20F4B08338C1053F82430F6
:1005100093430C4C08348D1044F8253023468C103E
:1005200053F824308C07240F00FA04F42343054CBD
:1005300008348D1044F8253030BD0000001401400F
:1005400000F8FEBF0000014000002042DC480068C7
:1005500040F00100DA49086008464068D94908407F
:10056000D749486008460068D7490840D449086020
:100570000846006820F4802008600846406820F49F
:10058000FE004860002088607047CD49096821F46A
:100590008031CB4A11601146096821F48021116035
:1005A000B0F5803F03D0B0F5802F0ED106E0C449EE
:1005B000096841F48031C24A116007E0C049096806
:1005C00041F4A021BE4A116000E000BF00BF7047A7
:1005D00010B501460022002300204A11012A02D151
:1005E000B74C236806E0022A02D1B54C236A01E029
:1005F000B34C636A01F01F02012494401C4201D0F5
:10060000012000E0002010BD38B50020009000243B
:10061000002500BF3120FFF7DBFF05460098401C96
:1006200000901DB90098B0F5A06FF3D13120FFF70D
:10063000CFFF08B1012400E00024204638BD014668
:1006400000209F4A106820F0F80040EAC1001060C6
:1006500070479E490860704702460020984B5868D2
:1006600020F47C1042EA01031843954B5860704710
:1006700096490866704701460020914A506820F06C
:1006800003000843506070478D48406800F00C003C
:100690007047014600208A4A506820F0F000084365
:1006A0005060704701460020854A506820F4E060A1
:1006B00008435060704701460020814A506820F48A
:1006C000605040EAC1005060704729B17C4A527ABC
:1006D00002437B4B5A7204E0794A527A8243784B48
:1006E0005A7270477A490860704701460020744A80
:1006F000506820F440400843506070470021754A1C
:1007000011706F4A82F82010012802D0042808D105
:1007100003E001216F4A117004E005216D4A117058
:1007200000E000BF00BF70476B4908607047644934
:10073000096A0143624A1162704767494439086097
:10074000704730B500210022002400235C4D6D6805
:1007500005F00C0121B1042905D0082923D105E0B9
:100760005E4D056022E05D4D05601FE0544D6D68F3
:1007700005F47012022505EB9242514D6D6805F4A7
:1007800080341CB9564D554305600BE04C4D6D68E7
:1007900015F4003F03D0524D5543056002E04F4D24
:1007A0005543056002E04D4D056000BF00BF444D5C
:1007B0006D6805F0F00109094A4D6B5C0568DD4084
:1007C00045603F4D6D6805F4E061090A454D6B5C7D
:1007D0004568DD4085603A4D6D6805F46051C90A91
:1007E000404D6B5C4568DD40C560354D6D6805F476
:1007F0004041890B3C4D6B5CC568B5FBF3F5056169
:1008000030BD29B12E4A526902432D4B5A6104E092
:100810002B4A526982432A4B5A61704729B1284AB0
:1008200092690243264B9A6104E0254A9269824309
:10083000234B9A61704729B1214AD2690243204B68
:10084000DA6104E01E4AD26982431D4BDA617047C7
:1008500029B11B4AD2680243194BDA6004E0184AF6
:10086000D2688243164BDA60704729B1144A126984
:100870000243134B1A6104E0114A12698243104B80
:100880001A61704714494039086070470F49C864BD
:1008900070470B49C87170470948406A40F0807042
:1008A00007494862704701460020054A92680A429B
:1008B00001D0012000E00020704701498872704794
:1008C000001002400000FFF8FFFFF6FE0000424269
:1008D000D8004242201002408004424200127A00B6
:1008E00000093D00000000201000002010B5044663
:1008F000D749601A8C422BD006DCD648201813D07A
:10090000B0F5806F38D119E0B0F5806F2AD0B0F51E
:100910006C4F31D101218803FFF79AFF00214FF47A
:100920008040FFF795FF28E001214804FFF79DFF75
:1009300000214FF40030FFF798FF1EE001218804EA
:10094000FFF793FF00214FF48020FFF78EFF14E0A4
:100950000121C804FFF789FF00214FF40020FFF7B1
:1009600084FF0AE001210805FFF77FFF00214FF413
:100970008010FFF77AFF00E000BF00BF10BD2DE937
:10098000F04786B005460E460024A24600BF00BFD1
:1009900000272F462C8A4CF6FF700440F088044351
:1009A0002C82AC894EF6F3100440B088318908439C
:1009B000718908430443AC81AC8A4FF6FF40044080
:1009C000B0890443AC8201A8FFF7BBFEA24887426E
:1009D00002D1DDF810A001E0DDF80CA00AEBCA009E
:1009E00000EB0A1031688900B0FBF1F86420B8FB15
:1009F000F0F004012009642101FB1089322000EB92
:100A00000910B0FBF1F000F00F0004432C8106B098
:100A1000BDE8F0874FF41651016000218180C1804C
:100A200001810C21418100218181704710B502466E
:100A30000020108A4FF2FF0318400B884C88234394
:100A40008C882343CC8823431843108210BD002197
:100A5000018041808180C180704721B1828942F448
:100A60000052828104E082894DF6FF731A40828130
:100A70007047F0B5034600240026002500201846E4
:100A8000C1F3421401F01F06012707FA06F5012CF5
:100A900001D10C3004E0022C01D1103000E0143000
:100AA0001AB107682F43076002E00768AF43076089
:100AB000F0BD1AB1838A0B43838202E0838A8B43A1
:100AC00083827047028A4FF6F0731A400282028ACC
:100AD0000A430282704782894FF2FF731A40828173
:100AE00082890A438281704721B1828942F00202E1
:100AF000828104E082894FF6FD731A40828170473B
:100B0000028A4FF6DF731A400282028A0A43028287
:100B1000704721B1028A42F48042028204E0028AD4
:100B20004BF6FF731A4002827047C1F308028280BD
:100B3000704701468888C0F308007047818941F0FA
:100B4000010181817047028BD2B20283028B42EA9B
:100B5000012202837047028B02F47F420283028BE0
:100B60000A430283704721B1828A42F020028282C6
:100B700004E0828A4FF6DF731A408282704721B107
:100B8000828A42F01002828204E0828A4FF6EF737A
:100B90001A408282704721B1828A42F00802828222
:100BA00004E0828A4FF6F7731A4082827047828A85
:100BB0004FF6FB731A408282828A0A438282704710
:100BC00021B1828A42F00202828204E0828A4FF6D8
:100BD000FD731A40828270470246002013880B4240
:100BE00001D0012000E000207047CA430280704716
:100BF00070B502460B460024002100250020C3F3F7
:100C0000421503F01F01012606FA01F1012D02D160
:100C10009689314006E0022D02D1168A314001E06A
:100C2000968A31401C12012606FA04F416883440D4
:100C300011B10CB1012000E0002070BD10B5002200
:100C400000230A1201249440A3B2DC43048010BDA7
:100C5000004C004000BCFFBF0038014001460020AE
:100C6000FB4A106800F03800084310607047F849EC
:100C7000096821F00801F64A11601146096801432C
:100C800011607047F249096821F01001F04A1160C3
:100C900011460968014311607047EE48EC4948600D
:100CA000ED4848607047EA48006940F08000E84934
:100CB000086170470420E649C96811F0010F01D0AE
:100CC00001200EE0E249C96811F0040F01D00220B2
:100CD00007E0DF49C96811F0100F01D0032000E0E0
:100CE0000420704708B500200090FF20009002E02B
:100CF0000098401E009000980028F9D108BD70B5FA
:100D000004460425FFF7D6FF054605E0FFF7EAFF96
:100D1000FFF7D0FF0546641E012D01D1002CF5D14F
:100D200004B90525284670BD70B50546042440F673
:100D3000FF70FFF7E4FF0446042C19D1C448006992
:100D400040F00200C249086108464561006940F070
:100D50004000086140F6FF70FFF7D1FF0446012C08
:100D600006D0BB48006941F6FD710840B8490861EA
:100D7000204670BD10B5042440F6FF70FFF7BFFF9A
:100D80000446042C18D1B248006940F00400B04970
:100D900008610846006940F04000086140F6FF70B5
:100DA000FFF7ADFF0446012C06D0A948006941F6C3
:100DB000FB710840A6490861204610BD10B5042407
:100DC00040F6FF70FFF79BFF0446042C3BD1A1487F
:100DD0009F498860A04888600846006940F020006C
:100DE00008610846006940F04000086140F6FF7065
:100DF000FFF785FF0446042C1CD19548006941F695
:100E0000DF710840924908610846006940F010000F
:100E10000861A520914908800F20FFF770FF044664
:100E2000012C10D08A48006941F6EF7108408849CA
:100E3000086108E0012C06D08548006941F6EF7191
:100E4000084083490861204610BD70B505460E462E
:100E500004240F20FFF753FF0446042C25D17C48BF
:100E6000006940F001007A4908612E800F20FFF7E9
:100E700046FF0446042C0FD1300C68800F20FFF78A
:100E80003EFF0446012C10D07148006941F6FE7106
:100E900008406F49086108E0012C06D06C480069E1
:100EA00041F6FE7108406A490861204670BD70B580
:100EB00005460E4604240F20FFF721FF0446042CAC
:100EC00013D16348006940F00100614908612E8038
:100ED0000F20FFF714FF0446012C06D05C48006980
:100EE00041F6FE7108405A490861204670BD70B550
:100EF00005460E4604240F20FFF701FF0446042C8C
:100F000017D15448524988605348886008460069A0
:100F100040F0100008612E800F20FFF7F0FE04461D
:100F2000012C06D04A48006941F6EF710840484953
:100F30000861204670BD2DE9F04704464FF6FF7664
:100F40003746B046B1460425E443E6B2C4F307276A
:100F5000C4F307484FEA14690F20FFF7D0FE054697
:100F6000042D40D13B483A4988603B488860084698
:100F7000006940F010000861FF2E06D037480830A5
:100F800006800F20FFF7BBFE0546042D08D1FF2F7A
:100F900006D032480A3007800F20FFF7B0FE054622
:100FA000042D0AD1B8F1FF0F07D02C480C30A0F85F
:100FB00000800F20FFF7A3FE0546042D0AD1B9F1EA
:100FC000FF0F07D025480E30A0F800900F20FFF744
:100FD00096FE0546012D06D01D48006941F6EF71C9
:100FE00008401B4908612846BDE8F08770B50546F2
:100FF000042440F6FF70FFF782FE0446042C4AD119
:10100000144813498860144888600846006940F015
:10101000200008610846006940F04000086140F681
:10102000FF70FFF76CFE0446042C2BD108480069C2
:1010300041F6DF710840064908610846006940F042
:101040001000086165B10020044908800BE0000031
:101050000020024023016745AB89EFCD00F8FF1F58
:10106000A5204549088040F6FF70FFF748FE04467A
:10107000012C10D04148006941F6EF7108403F490A
:10108000086108E0012C06D03C48006941F6DF7198
:1010900008403A490861204670BD2DE9F0410746F5
:1010A0000D46164604243648344988603548886021
:1010B0000F20FFF724FE0446042C1AD12F480069A4
:1010C00040F010002D49086147EA0500304340F028
:1010D000F8002949891C08800F20FFF710FE0446FC
:1010E000012C06D02548006941F6EF7108402349DC
:1010F00008612046BDE8F0812048C069800870473B
:101100001E48006A704700201C49C96911F0020F8F
:1011100001D0012000E00020704700201749096835
:1011200011F0200F01D0012000E00020704729B10C
:10113000124A12690243114B1A6104E00F4A126904
:1011400082430E4B1A61704701460020012908D1E5
:101150000A4AD26912F0010F01D0012008E00020F4
:1011600006E0064AD2680A4201D0012000E00020D1
:1011700070470249C860704700F8FF1F0020024016
:1011800023016745AB89EFCD002046490860091D62
:101190000860091D0860091D086043484149143171
:1011A00008607047817900293ED03E49096802688D
:1011B00091433C4A1160111D096802689143394A04
:1011C000121D11600179121F8958026811430279BA
:1011D000344BD15033490831096802689143314A90
:1011E00008321160111D0968026891432D4A0C32C2
:1011F0001160417910290ED1111F0968026811434D
:10120000284A08321160111D096802681143254AF5
:101210000C32116010E04179224A8958026811436A
:101220004279204BD15007E001791E4A8958026863
:10123000914302791B4BD15070470021016001712D
:101240000C214171002181717047164910310968E4
:101250000143144A10321160704701460020114AC0
:10126000143212680A4201D0012000E000207047C9
:101270000C49143108607047014600200022094BD8
:101280001B6803EA0102074B14331B680B4202D0B0
:101290000AB1012000E000207047024914310860C3
:1012A0007047000000040140FFFF0700002069496B
:1012B000086048608860C86048628862C8626648A2
:1012C00088630020C86370470021624A516847F66E
:1012D000FF6291430278C3681A4383681A43036923
:1012E0001A4343681A4343691A431143594A5160E8
:1012F00070470021017041608160C16001614161FE
:1013000070475649086070475249096821F0030147
:10131000504A1160114609680143116070474D48F9
:10132000006800F00300704729B14A4AD26B0243BB
:10133000484BDA6304E0474AD26B8243454BDA6399
:1013400070474749086070470021424B02689A6025
:101350001A46D1686FF30A01D0E901231A43C36822
:101360001A4303691A4311433A4AD1607047002176
:10137000016041608160C16001617047354800696A
:10138000C0B27047014633480844406970470021A5
:10139000304B02685A6242689A621A46D16A21F05A
:1013A000F701D0E902231A4303691A4343691A4338
:1013B0001143284AD16270474FF0FF31016000218C
:1013C00041608160C1600161416170472148006BEB
:1013D00070472448006870472249086070471D48DC
:1013E000806C70471E491431086070471C491831E1
:1013F000086070471A491C3108607047184920314D
:1014000008607047184908607047184908607047BD
:1014100001218143164A11607047164908607047E0
:10142000014600200B4A526B0A4201D0012000E025
:101430000020704707498863704701460020054A2D
:10144000526B0A4201D0012000E0002070470149A0
:101450008863704700800140FF07C000A000304251
:101460008C05304280800140AC013042B0013042F6
:10147000B4013042B8013042016821F0010101603D
:101480000021016041608160C160864A811A9042FA
:101490005BD012DC844AA0EB020190423AD007DC18
:1014A000824941181BD0142922D028297AD128E05A
:1014B000142938D0282975D13EE0B1F56C7F5BD076
:1014C00006DCB1F5627F49D0B1F5677F6AD14CE0A7
:1014D000B1F5717F57D0B1F5767F63D15BE072498A
:1014E0004439496841F00F016F4A443A51605AE06B
:1014F0006D494439496841F0F0016B4A443A516002
:1015000051E069494439496841F47061664A443A96
:10151000516048E064494439496841F47041624A85
:10152000443A51603FE060494439496841F47021D0
:101530005D4A443A516036E05B494439496841F4B8
:101540007001594A443A51602DE05749443949687D
:1015500041F07061544A443A516024E054490968AA
:1015600041F00F01524A11601DE05149096841F0F4
:10157000F0014F4A116016E04D49096841F470616D
:101580004B4A11600FE04A49096841F47041484AEA
:10159000116008E006E04649096841F47021444AB8
:1015A000116000E000BF00BF704710B50022026864
:1015B00047F6F0739A430C6A8B6823430C69234304
:1015C0004C6923438C692343CC6923434C6A2343EE
:1015D0008C6A23431A430260CB6843600B688360C4
:1015E0004B68C36010BD0021016041608160C16033
:1015F000016141618161C161016241628162704743
:1016000021B1026842F00102026003E0026822F0A8
:101610000102026070471AB103680B43036002E0E5
:1016200003688B43036070470146486880B2704787
:1016300001460020002211F0805F03D01C4B1B1FCD
:101640001A6802E0184B443B1A680A4201D0012094
:1016500000E00020704710F0805F02D0144908605D
:1016600002E01149443948607047014600200022D9
:1016700011F0805F03D00E4B1B1F1A6802E00A4B6B
:10168000443B1A680A4201D0012000E00020704764
:1016900010F0805F02D00649086002E00249443938
:1016A000486070478000024044000240F8FFFDBFE0
:1016B0000404024010B50446F749601A8C4245D034
:1016C0000CDCB4F1804F1DD0F448201823D0B0F5C5
:1016D000806F29D0B0F5006F54D12EE0B0F5806F47
:1016E0003DD0B0F58E3F03D0B0F5923F4AD13FE0F8
:1016F0000121C802FFF7ACF800214FF40060FFF7AA
:10170000A7F840E001210846FFF7AFF800210120CB
:10171000FFF7ABF837E001210220FFF7A6F8002120
:101720000220FFF7A2F82EE001210420FFF79DF828
:1017300000210420FFF799F825E001210820FFF798
:1017400094F800210820FFF790F81CE001211020F8
:10175000FFF78BF800211020FFF787F813E0012135
:101760002020FFF782F800212020FFF77EF80AE012
:1017700001214803FFF76CF800214FF40050FFF7F8
:1017800067F800E000BF00BF10BD028802F08F02C2
:101790000280CA884B881A4303881A4302808A88C9
:1017A00082850A880285BE4A904202D0BD4A904294
:1017B00001D10A7A028601228282704770B5002424
:1017C00000220023058C4FF6FE7635400584028CFE
:1017D0008388048B4FF68F752C400D882C43751E23
:1017E0002A400D892A434D882A43CD888586AC4DF1
:1017F000A84202D0AB4DA84213D14FF6F7752A404C
:101800004D892A434FF6FB752A408D882A4347F6B7
:10181000FF652B4047F6FF552B408D892B43CD8923
:101820002B4383800483028470BD70B500240022A2
:101830000023058C4FF6EF7635400584028C8388B3
:10184000048B48F6FF752C400D884FF6FF7606EAAC
:1018500005252C434FF6DF752A400D8906EA05154C
:101860002A434D8806EA05152A43CD8805878C4D05
:10187000A84202D08B4DA8421DD14FF67F752A4059
:101880004D894FF6FF7606EA05152A434FF6BF75D8
:101890002A408D8806EA05152A4347F6FF352B4076
:1018A00047F2FF752B408D8906EA85052B43CD89CC
:1018B00006EA85052B4383800483028470BD70B5DE
:1018C000002400220023058C4FF6FF663540058476
:1018D000028C8388848B4FF68F752C400D882C43A7
:1018E0004FF6FF552A400D894FF6FF7606EA05258B
:1018F0002A434D8806EA05252A43CD888587684D09
:10190000A84202D0674DA8421DD14FF2FF752A4070
:101910004D894FF6FF7606EA05252A434FF6FF3537
:101920002A408D8806EA05252A4346F6FF752B4096
:1019300045F6FF752B408D8906EA05152B43CD89A9
:1019400006EA05152B4383808483028470BD70B53D
:10195000002400220023058C4EF6FF7635400584D6
:10196000028C8388848B48F6FF752C400D884FF6D7
:10197000FF7606EA05252C434DF6FF752A400D89B2
:1019800006EA05352A434D8806EA05352A43CD88FF
:10199000A0F84050424DA84202D0424DA84207D183
:1019A000C3F30D038D894FF6FF7606EA85152B43A9
:1019B00083808483028470BD828B4FF2FF331A4090
:1019C0008283828B4FF6FF7303EA01231A438283DB
:1019D0007047F0B50C461546002100220026078C02
:1019E0004EF6FF7C07EA0C070784818B028C4FF6CA
:1019F000FF7707EA043640F6FF4739404FF6FF7796
:101A000007EA05274FF6FF7C0CEA033C47EA0C0780
:101A100039434DF6FF773A4046F480573A43818385
:101A20000284F0BD828B4FF6F3731A408283828B5F
:101A30000A4382837047F0B50C4615460021002208
:101A40000026078C4FF6FF6C07EA0C070784818B92
:101A5000028C4FF6FF7707EA04264FF60C773940E1
:101A60004FF6FF7707EA03172F4339434FF6FF5727
:101A70003A4046F480773A4381830284F0BD028B7A
:101A80004FF2FF331A400283028B4FF6FF7303EAD3
:101A900001231A43028370470010004000FCFFBF7F
:101AA000002C014000340140F0B50C4615460021E1
:101AB00000220026078C4FF6EF7C07EA0C0707840C
:101AC000018B028C4FF6FF7707EA041640F6FF47BA
:101AD00039404FF6FF7707EA033739434FF6FF7770
:101AE00007EA052739434FF6DF773A4046F01007FB
:101AF0003A4301830284F0BD028B4FF6F3731A4020
:101B00000283028B0A4302837047F0B50C461546E8
:101B100000210022068C4FF6FE773E400684018BA2
:101B2000028C4FF60C7631407E1C06EA03162E43DB
:101B300031437E1E324044F0010632430183028469
:101B4000F0BD70B505460C46208850B92389A2889F
:101B500061882846FFF7D9FFE1882846FFF7CCFFC8
:101B600025E0208804280AD12389A2886188284694
:101B7000FFF79AFFE1882846FFF781FF17E02088EA
:101B800008280AD12389A28861882846FFF753FFD5
:101B9000E1882846FFF746FF09E02389A28861888B
:101BA0002846FFF716FFE1882846FFF705FF70BDBE
:101BB0002DE9F04105460C4600260127608808B94A
:101BC000022600E00026A088012801D1022700E0BB
:101BD00001272088A0B92389A28861882846FFF7B9
:101BE00094FFE1882846FFF787FF23893A4631466C
:101BF0002846FFF759FFE1882846FFF740FF13E02A
:101C00002389A28861882846FFF74EFFE18828468D
:101C1000FFF735FF23893A4631462846FFF775FF1F
:101C2000E1882846FFF768FFBDE8F0810A884B8805
:101C30001A438B881A43CB881A430B891A434B8962
:101C40001A438B891A43A0F8442070474FF6FF715E
:101C5000818000210180C180418001727047002194
:101C6000018041808180C180018141818181C18168
:101C70007047002101804180012181800021C180C5
:101C8000018170470021018041808180C1800181F4
:101C900041818181704721B1028842F001020280B6
:101CA00004E0028840F2FE331A400280704731B1EE
:101CB000B0F8442042F40042A0F8442005E0B0F817
:101CC0004420C2F30E02A0F8442070471AB1838961
:101CD0000B43838102E083898B4383817047818238
:101CE000704741EA0203A0F8483070471AB183896F
:101CF0000B43838102E083898B4383817047018991
:101D00004FF6F8721140018170470A46002101899F
:101D10004FF68F73194011430181704730B5044667
:101D20000D4629462046FFF7F0FF208940F00700C6
:101D3000208130BD2DE9F04104460D4616461F4670
:101D4000602D06D13B46012231462046FFF7ACFE0E
:101D500005E03B46012231462046FFF7D6FE2946E4
:101D60002046FFF7D2FF208940F007002081BDE820
:101D7000F08170B50C4600210189C9B244EA020520
:101D80004FF6FF7606EA032635432943018170BDED
:101D90002DE9F04105460E46174698460024434675
:101DA0003A4631462846FFF7E4FF2C894FF6F87093
:101DB000044044F007044FF68F70044044F0700470
:101DC0002C81BDE8F081F0B504460D4616461F464D
:101DD0003B46324629462046FFF7CBFF208940F498
:101DE00080402081F0BD0185828270470A46002133
:101DF000018840F28F331940114301807047F0B5DC
:101E00000C4615461E460021002200230189028B44
:101E1000038C4FF6F877394021434FF6FC473A40A0
:101E200040F201173A434FF6DD773B404FF6FF771C
:101E300007EA06172F433B43018102830384F0BD69
:101E40000A460021018B4FF68F731940114301831D
:101E500070470A460021018B48F6FF7319404FF680
:101E6000FF7303EA02231943018370470A460021E6
:101E7000818B4FF68F7319401143818370470A4657
:101E80000021818B48F6FF7319404FF6FF7303EA78
:101E9000022319438183704721B1028842F08002F6
:101EA000028004E0028840F27F331A4002807047CB
:101EB00021B1828842F00402828004E082884FF6D9
:101EC000FB731A408280704721B1828842F0080279
:101ED000828004E082884FF6F7731A408280704750
:101EE00021B1828842F00102828004E082884FF6AC
:101EF000FE731A40828070470A460021018B4FF61C
:101F0000F77319401143018370470A460021018B82
:101F10004FF2FF7319404FF6FF7303EA0223194390
:101F2000018370470A460021818B4FF6F7731940F1
:101F30001143818370470A460021818B4FF2FF7362
:101F400019404FF6FF7303EA022319438183704758
:101F50000A460021018B4FF6FB73194011430183A0
:101F600070470A460021018B4FF6FF3319404FF6A8
:101F7000FF7303EA02231943018370470A460021D5
:101F8000818B4FF6FB7319401143818370470A46DA
:101F90000021818B4FF6FF3319404FF6FF7303EAA0
:101FA00002231943818370470A460021018B4FF6B3
:101FB0007F7319401143018370470A460021018B4A
:101FC000C1F30E014FF6FF7303EA022319430183A5
:101FD00070470A460021818B4FF67F7319401143E9
:101FE000818370470A460021818BC1F30E014FF6B1
:101FF000FF7303EA02231943818370470A460021D5
:10200000018C4FF6FD7319401143018470470A4655
:102010000021018C4FF6F77319401143018470477A
:102020000A460021018C4FF6DF7319404FF6FF730B
:1020300003EA02131943018470470A460021018C08
:102040004FF67F7319404FF6FF7303EA02131943EB
:10205000018470470A460021018C4FF6FF53194056
:102060004FF6FF7303EA02231943018470470A46BF
:102070000021018C4FF2FF7319404FF6FF7303EA02
:1020800002231943018470470A460021018C4DF652
:10209000FF7319404FF6FF7303EA023319430184BB
:1020A000704710B5038C01248C40A3430384038C38
:1020B00002FA01F4A4B22343038410BD10B5038CCB
:1020C00004248C40A3430384038C02FA01F4A4B2D9
:1020D0002343038410BD30B5038C01248C40A343FB
:1020E000038409B1082918D100F1180303EB610337
:1020F0001B684FF68F74234000F1180404EB610451
:10210000236000F1180303EB61031B68134300F124
:10211000180404EB610423601FE00B1FC3F34E049B
:1021200000F118031B5948F6FF7423400C1FC4F339
:102130004E0500F1180463510B1FC3F34E0400F168
:1021400018031B594FF6FF7404EA022423430C1FA3
:10215000C4F34E0500F11804635130BD21B102886B
:1021600042F00202028004E0028840F2FD331A408D
:102170000280704721B1028842F00402028004E02C
:10218000028840F2FB331A400280704721B18288F6
:1021900042F08002828004E082884FF67F731A400A
:1021A00082807047028840F2F7331A40028002882A
:1021B0000A430280704782884FF68F731A408280EC
:1021C00082880A438280704702894FF6F8731A406A
:1021D000028102890A430281704702894FF67F73A8
:1021E0001A40028102890A43028170478184704744
:1021F0008185704781867047018770478187704766
:10220000A0F8401070470288D2B2028002880A43C8
:10221000028070470146888E70470146088F7047DC
:102220000146888F70470146B1F84000704701466B
:10223000888C70470146088D704702460020138A3B
:102240000B4201D0012000E000207047CA43028207
:10225000704730B50246002000230024158A05EAA5
:102260000103958905EA010413B10CB1012000E0D6
:10227000002030BDCA4302827047000030B943F2EB
:10228000DB014FF0204242F8201005E043F2D2017A
:102290004FF0204242F820106FF07042411C4FF086
:1022A000204343F8212011461A4602EB8002C2F86F
:1022B0000411704710280AD118214FF020421166EE
:1022C000402151664FF0FC319166D16610E0182133
:1022D000FC4A11604FF040014FF02042C2F88410D8
:1022E0004FF0FC31F84A11604FF02042C2F88C10D8
:1022F00070471820F54908604FF000004FF020416A
:10230000C1F8A4004FF0FC30F149086001F104016C
:10231000086001F1040108607047D0E9011211431F
:10232000C268114302691143426911438269114332
:10233000C2691143026A1143426A1143826A11431E
:10234000C26A11434FF02043026843F822108168AB
:10235000082908D11A46016852F8211041F04001BD
:10236000026843F82210016B0968026B526841EA67
:102370000211026B926841EA0221026B928941EAE2
:102380000241026B128A41EA0251026B127D41EA5C
:102390000261026B926911430268521C4FF02043A4
:1023A00043F82210816AB1F5804F1AD1416B096858
:1023B000426B526841EA0211426B926841EA022183
:1023C000426B128A41EA0251426B127D41EA02617C
:1023D000426B92691143026803EB8202C2F8041156
:1023E00008E06FF070414FF02043026803EB820277
:1023F000C2F80411704730B5002100220023446860
:1024000044F0080485682C43C5682C4305692C43B7
:10241000456944EA4524856944EA4531C46924682C
:10242000C5696D6844EA0524C5692D8944EA0544F7
:10243000C5692D7B44EA0562046A2468056A6D68F3
:1024400044EA0524056A2D8944EA0544056A2D7B82
:1024500044EA05630468102C05D14FF0204421663E
:10246000A266E36607E0974C21604FF02044C4F871
:102470008820984C236030BD016841F0100142680B
:1024800041EA4221826841EA4231904A1160C168C2
:102490000968C268526841EA0221C268128941EAA9
:1024A0000241C268127B41EA0261894A11600169F6
:1024B00009680269526841EA02210269128941EA07
:1024C00002410269127B41EA0261834A116041695B
:1024D00009684269526841EA02214269128941EA67
:1024E00002414269127B41EA02614FF02042C2F888
:1024F000B01070470021016002214160002181601D
:10250000C160016141618161C1614FF4805101622B
:102510004900416200218162C1620F21026B11609A
:10252000026B5160FF21026B91600F21026BD16041
:10253000026B1161026B51610021026B91610F21ED
:10254000426B1160426B5160FF21426B91600F2121
:10255000426BD160426B1161426B51610021426B51
:102560009161704710210160002141608160C1606C
:10257000016141618161FC21C2691160C2695160E0
:10258000C2699160C269D160026A1160026A5160D9
:10259000026A9160026AD160704700210160416067
:1025A0008160FC21C2681160C2685160C26891609C
:1025B000C268D1600269116002695160026991606C
:1025C0000269D1604269116042695160426991605B
:1025D0004269D160704751B14FF0204252F820203B
:1025E00042F001024FF0204343F8202009E04FF071
:1025F000204252F82020394B1A404FF0204343F834
:102600002020704799B1102808D14FF02042126E57
:1026100042F004024FF020431A661DE0294A126876
:1026200042F004024FF02043C3F8802014E0102849
:1026300009D14FF02042126E284BDB1E1A404FF09A
:1026400020431A6608E01F4A1268254B02EA03027B
:102650004FF02043C3F88020704740B11B49096800
:1026600041F004014FF02042C2F8A01008E01749E1
:1026700009681B4A01EA02014FF02042C2F8A0108B
:10268000704799B1102808D14FF02042126E42F0E5
:1026900040024FF020431A662DE00A4A126842F0C9
:1026A00040024FF02043C3F8802024E0102819D1C5
:1026B0004FF02042126E0A4B3C3B1A404FF0204331
:1026C0001A6618E0800000A0880000A0A00000A00A
:1026D000A80000A08C0000A0AC0000A0FEFF0F002E
:1026E000FBFF0F00644A1268644B02EA03024FF0DA
:1026F0002043C3F88020704701460020102903D1F1
:102700004FF02042506F01E05D4A1068704710B5ED
:10271000F2B1102807D14FF020435B6E0B434FF00E
:102720002044636632E0B0F5807F08D1554B1B68CA
:1027300043EA01034FF02044C4F8843026E0524BB2
:102740001B6843EA01034FF02044C4F8A4301DE0A5
:10275000102807D14FF020435B6E8B434FF020448D
:10276000636613E0B0F5807F08D1464B1B6823EA0F
:1027700001034FF02044C4F8843007E0424B1B684B
:1027800023EA01034FF02044C4F8A43010BD10B573
:10279000024600200023102A03D14FF02044636E2C
:1027A00007E0B2F5807F02D1364C236801E0364C59
:1027B00023680B4201D0012000E0002010BD10284A
:1027C00007D14FF02042526E8A434FF020435A66A1
:1027D00013E0B0F5807F08D12A4A126822EA01028C
:1027E0004FF02043C3F8842007E0274A126822EA0A
:1027F00001024FF02043C3F8A420704770B5024691
:102800000020002300240025102A03D14FF0204689
:10281000736E07E0B2F5807F02D11A4E336801E093
:10282000194E336803EA010403EAD10514B10DB16E
:10283000012000E0002070BD102808D14FF0204298
:10284000526E22EAD1024FF020435A6613E0B0F5EF
:10285000807F08D10B4A126822EAD1024FF0204350
:10286000C3F8842007E0084A126822EAD1024FF038
:102870002043C3F8A4207047800000A0BFFF0F00D2
:10288000940000A0840000A0A40000A010B504469D
:10289000BD4820180FD0B0F5806F16D0B0F5784F36
:1028A0001DD101210803FDF7D3FF00214FF4805013
:1028B000FDF7CEFF14E001218803FDF7D6FF0021CC
:1028C0004FF48040FDF7D1FF0AE00121C803FDF776
:1028D000CCFF00214FF40040FDF7C7FF00E000BF30
:1028E00000BF10BD10B50022028802F441520B88CF
:1028F0004C8823438C882343CC8823430C8923436F
:102900004C8923438C892343CC8923431A43028077
:10291000838B4FF2FF74234083830B8A038210BDA5
:102920002DE9F04786B005460C464FF00009022716
:102930004FF000084FF0010A0026A88B4FF240012B
:102940000840A88302202884B5F81C90208902281A
:1029500001D100BF31E0A08810B94FF0010A01E0B9
:102960004FF0020A01A8FDF7ECFEE088B0F5007F09
:102970000AD1019800EB8000400021890902B0FBD8
:10298000F1F0401D86B20BE04FEA4A10218948431E
:10299000019901EB81014900B1FBF0F0401D86B2C5
:1029A0000A20B6FBF0F606F00108A6EB0800C0F31B
:1029B0004F074FF6FF7000EA0828022F01DBFF2FB8
:1029C00002DD02274FF0000847EA0800E1880843CB
:1029D0002884208840F4006061880843A188084367
:1029E0006189084340EA0909A5F81C9006B0BDE8D2
:1029F000F0870021018041808180C1800181418177
:102A00008181C181072101827047002101804180BD
:102A10008180C1800221018100214181704721B163
:102A2000028842F04002028004E002884FF6BF7341
:102A30001A400280704721B1828B42F48062828307
:102A400004E0828B4FF6FF331A408283704730B523
:102A5000002400230C110125A540ABB21AB18588D2
:102A60001D43858002E085889D43858030BD1AB175
:102A700083880B43838002E083888B438380704785
:102A800081817047014688897047A1F57E42FF3AEF
:102A900004D0028842F48072028004E002884FF67B
:102AA000FF631A400280704721B1828842F004021D
:102AB000828004E082884FF6FB731A408280704760
:102AC00002884FF2FF731A40028002880A43028094
:102AD0007047018841F480510180704721B102881C
:102AE00042F40052028004E002884DF6FF731A405F
:102AF0000280704702460020012901D0108B00E0BF
:102B0000908A70470146088A7047B1F5804F04D11A
:102B1000028842F48042028004E002884BF6FF7390
:102B20001A40028070470246002013890B4201D0F0
:102B3000012000E000207047CA4302817047F0B5D1
:102B40000246002000240023002501F00F07012683
:102B5000BE40B4B20B1101269E40B3B2968806EA7D
:102B600003051689264202D00DB1012000E00020A5
:102B7000F0BD10B5002201F00F040123A3409AB26A
:102B8000D343038110BD000000C8FFBF7047084851
:102B90008047084981F3088807480047FEE7FEE7B9
:102BA000FEE7FEE7FEE7FEE7FEE7FEE7FEE7FEE7FD
:102BB0008D2B0008382C00203101000810B50122AF
:102BC0000421A94800F00EFA00220121A64800F0D5
:102BD00009FA10BD10B5FDF7B9FC4FF48030FDF7D0
:102BE000D4FCFDF711FD0446012C24D10020FDF793
:102BF00050FD0020FDF75FFDA002FDF753FD022010
:102C0000FEF72CF81020FEF73DF84FF4E0112004F9
:102C1000FDF722FD0120FDF72BFD00BF3920FDF758
:102C2000D7FC0028FAD00220FDF725FD00BFFDF7F4
:102C30002BFD0828FBD110BD1CB5FFF7CBFF4820AA
:102C400000F034FA002089490870322000F04AFA76
:102C50008748008887490880874908808749088015
:102C600087490880FFF7AAFF05F0BEF909F0A2FC2A
:102C700009F0A3F900231A460121084603F017FDC5
:102C80004FF4E13003F0C6FB78224FF47A717D48AF
:102C900003F022FA012300220521062003F07AFA2C
:102CA000002240F22131784803F016FA00231A4638
:102CB00040217548FFF73EF8012300221946052000
:102CC00003F068FA0020009001231A4640F6B8315C
:102CD0000190482000F025FF6548008800F0ABFF18
:102CE0006348008800F0B0FF0AF06AF967A010F0AE
:102CF0006FFC1CBD1FB5FFF79FFF01205B490870EB
:102D000060E04FF6FF7000210423CDE90010614818
:102D100032210268C8200BF06BF85F488068C0F36E
:102D2000800000BB5D495E4809F00BFD5B480088F0
:102D300000EB400101EBC000502190FBF1F0123894
:102D400058490880564800889621484340F2493146
:102D500090FBF1F00D38544908800846018851482D
:102D600000880AF040F851480078012825D15048E1
:102D70000078022821D14F480078E0B900203B4973
:102D8000087001204B49087004F03CFC04F0B3FCCF
:102D90000420012148A242F24533CDE90032CDE9B9
:102DA000021047A34FF25F425A2114200CF044FE58
:102DB00001202E4908700AF07CFB43480088401C23
:102DC000414908809DE710B5ADF5A46DC8223F4983
:102DD0000DF58B6010F03EF88AA9002008F0DBF9B1
:102DE0003BA008F039FF044614B93CA010F0F0FBFA
:102DF0003EA008F031FF044614B940A010F0E8FBF3
:102E000042A008F029FF044614B944A010F0E0FBEA
:102E10000A2246A101A808F0DEF904468CB949A0AF
:102E200010F0D6FB6B46C8220DF58B6101A808F0A7
:102E300044FB04460098C82806D245A010F0C8FB01
:102E400002E047A010F0C4FB49A138A008F0F6FF4B
:102E500004464EA146A008F0F1FF044601A808F080
:102E600082FC0DF5A46D10BD000801401800002083
:102E70002400002062000020600000205E0000208E
:102E80005C00002000100040000C00400D0A204FA4
:102E90004B000000680000200010014030000020BE
:102EA0002E0000201A0000201C00002099020020A3
:102EB0009802002020000020576169740000000083
:102EC00041645F30000000002C000020F039010850
:102ED0004D795F6469726162000000004D6B646946
:102EE000725F305F4F4B200D0A0000004D795F6428
:102EF000697261622F4D795F310000004D6B64692A
:102F0000725F315F4F4B200D0A0000004D795F6406
:102F1000697261622F4D795F320000004D6B646908
:102F2000725F325F4F4B200D0A0000004D795F64E5
:102F3000697261622F4D795F312F77752E747874C5
:102F4000000000000D0A20437265616B5F4F4B006B
:102F500077726974655F6E6F745F6F6B200D0A0026
:102F60000D0A20437265616B5F66696C6400000046
:102F70004D795F64697261622F4D795F312F77758A
:102F80007469616E2E747874000000004D795F647E
:102F9000697261622F4D795F322F77757469616E46
:102FA0002E74787400000000704700BFFEE700BF79
:102FB000FEE700BFFEE700BFFEE7704770477047BF
:102FC000704710B50EF0E2F910BD10B50FF032FBEE
:102FD00010BD10B54020FEF74FF910B14020FEF7AC
:102FE0005CF910BDF8B504460D46164628488442E3
:102FF00004D101210420FDF711FC2EE02548844274
:1030000004D101210820FDF709FC26E02248844272
:1030100004D101211020FDF701FC1EE01F4884426D
:1030200004D101212020FDF7F9FB16E01C48844261
:1030300004D101214020FDF7F1FB0EE01948844244
:1030400004D101218020FDF7E9FB06E01648844207
:1030500003D101218015FDF7E1FB012E0CD1ADF864
:10306000005003208DF8020010208DF803006946FF
:103070002046FDF73DF909E046B9ADF8005048207B
:103080008DF8030069462046FDF732F9F8BD0000CF
:1030900000080140000C01400010014000140140F4
:1030A00000180140001C0140002001404FF0E021C9
:1030B000096921F004014FF0E0221161C21700EB11
:1030C0005272C2F3C702224B1A701946097801EBFB
:1030D0004102C2EBC1114FF6FF7202EAC1011D4A63
:1030E0001180704701461B4A12884A434FF0E02383
:1030F0005A6100229A6101221A6100BF4FF0E0225A
:10310000106910F0010F02D010F4803FF6D00022B9
:103110004FF0E0231A619A61704701460C4A127819
:103120004A434FF0E0235A6100229A6101221A615A
:1031300000BF4FF0E022106910F0010F02D010F430
:10314000803FF6D000224FF0E0231A619A61704769
:103150006E000020700000202DE9F04781460E46E9
:1031600014461D46DDE9088701210420FDF756FBC2
:1031700001210846FDF752FB0121C802FDF74EFB75
:10318000012C09D12002FE4908801820C8700320B4
:103190008870FC48FDF7ACF8012D09D16802F849A8
:1031A00008801820C87003208870F648FDF7A0F842
:1031B000B8F1010F0AD14FF48060F149088018205E
:1031C000C87003208870EF48FDF792F8012F09D1ED
:1031D000F802EB4908801820C87003208870E9487D
:1031E000FDF786F8E848FEF765FAA9F10100E7491E
:1031F000088000204880701E88800020C8800872E7
:10320000E148FEF7C2FA6020E149088001204880C9
:103210000420888041F28830C880002008814FF463
:1032200080708881012C02D1D748FEF7C7FA012DA2
:1032300003D1D749D448FEF7F8FAB8F1010F03D10A
:10324000D349D148FEF73BFB012F03D1D049CE48EB
:10325000FEF77DFB0121CC48FEF71DFD0121CA4888
:10326000FEF725FDBDE8F08710B50446C748848009
:103270000146C548FEF789FA10BD10B50446C4489A
:10328000C4800146C048FEF799FA10BD10B5044647
:10329000BF48C4800146BC48FEF7C7FA10BD10B550
:1032A0000446BB48C4800146B748FEF708FB10BD82
:1032B00010B50446B648C4800146B348FEF747FB44
:1032C00010BD10B50446012C03D10020B04908817F
:1032D00002E00220AE490881AD49AB48FEF76EFA24
:1032E00010BD10B50446012C03D10020A849088167
:1032F00002E00220A6490881A549A348FEF795FAF5
:1033000010BD10B50446012C03D10020A04908814E
:1033100002E002209E4908819D499B48FEF7CFFAB2
:1033200010BD10B50446012C03D100209849088136
:1033300002E002209649088195499348FEF707FB71
:1033400010BD2DE9F04781460E4614461D46DDE9C5
:10335000088701210846FDF76EFA01210420FDF7D8
:103360005DFA012C09D10120854908801820C87018
:10337000032088708348FCF7BBFF012D09D1022090
:103380007F4908801820C870032088707D48FCF7AA
:10339000AFFFB8F1010F09D1042079490880182046
:1033A000C870032088707748FCF7A2FF012F09D16D
:1033B0000820734908801820C8700320887071485D
:1033C000FCF796FF4FF08040FEF774F9A9F1010079
:1033D0007049088000204880701E88800020C880C6
:1033E00008724FF08040FEF7D0F960206A490880EB
:1033F000012048800420888041F28830C880002065
:1034000008814FF480708881012C02D18005FEF77D
:10341000D5F9012D03D16049A807FEF706FAB8F1E6
:10342000010F04D15C494FF08040FEF748FA012FAC
:1034300003D15949B807FEF78AFA01218807FEF738
:103440002AFC01218807FEF732FCBDE8F08710B5A1
:1034500004465048848001464FF08040FEF795F9BD
:1034600010BD10B504464C48C48001464FF0804062
:10347000FEF7A4F910BD10B504464748C4800146C4
:103480004FF08040FEF7D1F910BD10B50446424818
:10349000C48001464FF08040FEF711FA10BD10B510
:1034A00004463D48C48001464FF08040FEF74FFA85
:1034B00010BD10B50446012C03D100203649088107
:1034C00002E002203449088133494FF08040FEF782
:1034D00075F910BD10B50446012C03D100202E490A
:1034E000088102E002202C4908812B494FF08040DE
:1034F000FEF79BF910BD10B50446012C03D1002046
:103500002549088102E002202349088122494FF021
:103510008040FEF7D4F910BD10B50446012C03D14C
:1035200000201D49088102E002201B4908811A4938
:103530004FF08040FEF70BFA10BD2DE9F0478146B1
:103540000E4614461D46DDE9088701210220FDF7DD
:1035500072F901210C20FDF761F9012C09D14020FD
:10356000074908801820C870032088700548FCF7B8
:10357000BFFE012D18D180200149088018200DE0E0
:103580007200002000080140002C0140500800207B
:103590008C0800205A0800209C080020C8700320D6
:1035A0008870FE48FCF7A4FEB8F1010F09D1012094
:1035B000FB4908801820C87003208870F948FCF780
:1035C00097FE012F09D10220F54908801820C87004
:1035D00003208870F348FCF78BFEF348FEF76AF887
:1035E000A9F10100F149088000204880701E888000
:1035F0000020C8800872EC48FEF7C7F86020EC494C
:103600000880012048800420888041F28830C880EA
:10361000002008814FF480708881012C02D1E2489B
:10362000FEF7CCF8012D03D1E149DF48FEF7FDF8A4
:10363000B8F1010F03D1DE49DB48FEF740F9012F55
:1036400003D1DB49D848FEF782F90121D648FEF7BD
:1036500022FB0121D448FEF72AFBBDE8F08710B514
:103660000446D24884800146CF48FEF78EF810BD4C
:1036700010B50446CE48C4800146CB48FEF79EF8FC
:1036800010BD10B50446CA48C4800146C648FEF7BE
:10369000CCF810BD10B50446C548C4800146C248E8
:1036A000FEF70DF910BD10B50446C148C4800146AF
:1036B000BD48FEF74CF910BD10B50446012C03D1EE
:1036C0000020BB49088102E00220B9490881B849BD
:1036D000B548FEF773F810BD10B50446012C03D1B0
:1036E0000020B349088102E00220B1490881B049B5
:1036F000AD48FEF79AF810BD10B50446012C03D171
:103700000020AB49088102E00220A9490881A849AC
:10371000A548FEF7D4F810BD10B50446012C03D11E
:103720000020A349088102E00220A1490881A049A4
:103730009D48FEF70CF910BD2DE9F04781460E4675
:1037400014461D46DDE9088701210420FDF773F8C2
:1037500001210820FDF762F8012C09D14020904991
:1037600008801820C870032088708E48FCF7C0FDC0
:10377000012D09D180208A4908801820C8700320B3
:1037800088708848FCF7B4FDB8F1010F0AD14FF4F6
:103790008070834908801820C87003208870814891
:1037A000FCF7A6FD012F09D178027D490880182079
:1037B000C870032088707B48FCF79AFD7D48FDF7B0
:1037C00079FFA9F101007C49088000204880701E23
:1037D00088800020C88008727648FDF7D6FF6020F8
:1037E00076490880012048800420888041F2883092
:1037F000C880002008814FF480708881012C02D19C
:103800006C48FDF7DBFF012D03D16C496948FEF7D9
:103810000CF8B8F1010F03D168496648FEF74FF87C
:10382000012F03D165496348FEF791F801216148F2
:10383000FEF731FA01215F48FEF739FABDE8F0875B
:1038400010B504465C48848001465A48FDF79DFF48
:1038500010BD10B504465948C48001465548FDF7CF
:10386000ADFF10BD10B504465448C4800146514810
:10387000FDF7DBFF10BD10B504465048C48001467B
:103880004C48FEF71CF810BD10B504464B48C480E8
:1038900001464848FEF75BF810BD10B50446012C00
:1038A00003D100204549088102E0022043490881F4
:1038B00042494048FDF782FF10BD10B50446012C77
:1038C00003D100203D49088102E002203B490881E4
:1038D0003A493848FDF7A9FF10BD10B50446012C40
:1038E00003D100203549088102E0022033490881D4
:1038F00032493048FDF7E3FF10BD10B50446012CF6
:1039000003D100202D49088102E002202B490881C3
:103910002A492848FEF71BF810BD2DE9F0478146DB
:103920000E4614461D46DDE9088701210820FCF7F4
:1039300082FF01210420FCF771FF012C09D1012035
:10394000174908801820C870032088701348FCF7B6
:10395000CFFC012D09D10220114908801820C87020
:10396000032088700D48FCF7C3FCB8F1010F09D1A2
:1039700004200B4908801820C8700320887007486D
:10398000FCF7B6FC012F1DD108200549088018203E
:10399000C87003208870014812E000000008014050
:1039A00072000020000C0140000400406408002068
:1039B000AC080020000800406E080020BC08002071
:1039C000FCF796FCCE48FDF775FEA9F10100CD4944
:1039D000088000204880701E88800020C8800872FF
:1039E000C748FDF7D2FE6020C74908800120488003
:1039F0000420888041F28830C880002008814FF47C
:103A000080708881012C02D1BD48FDF7D7FE012DC1
:103A100003D1BD49BA48FDF708FFB8F1010F03D142
:103A2000B949B748FDF74BFF012F03D1B649B44858
:103A3000FDF78DFF0121B248FEF72DF90121B048B5
:103A4000FEF735F9BDE8F08710B50446AD4884802F
:103A50000146AB48FDF799FE10BD10B50446AA48D3
:103A6000C4800146A648FDF7A9FE10BD10B5044666
:103A7000A548C4800146A248FDF7D7FE10BD10B589
:103A80000446A148C48001469D48FDF718FF10BDBB
:103A900010B504469C48C48001469948FDF757FF7D
:103AA00010BD10B50446012C03D1002096490881B1
:103AB00002E002209449088193499148FDF77EFE77
:103AC00010BD10B50446012C03D100208E49088199
:103AD00002E002208C4908818B498948FDF7A5FE48
:103AE00010BD10B50446012C03D100208649088181
:103AF00002E002208449088183498148FDF7DFFE06
:103B000010BD10B50446012C03D100207E49088168
:103B100002E002207C4908817B497948FDF717FFC4
:103B200010BD2DE9F04781460E4614461D46DDE9DD
:103B30000887012142F21000FCF770FE012C09D128
:103B40004020724908801820C8700320887070488F
:103B5000FCF7CEFB012D09D180206C49088018208C
:103B6000C870032088706A48FCF7C2FBB8F1010FE7
:103B70000AD14FF48070654908801820C87003206E
:103B800088706348FCF7B4FB012F09D178025F49C4
:103B900008801820C870032088705D48FCF7A8FBD7
:103BA0005C48FDF787FDA9F101005B490880002012
:103BB0004880701E88800020C88008725548FDF734
:103BC000E4FD602055490880012048800420888059
:103BD00041F28830C880002008814FF480708881CD
:103BE000012C02D14B48FDF7E9FD012D03D14B49D2
:103BF0004848FDF71AFEB8F1010F03D1474945487F
:103C0000FDF75DFE012F03D144494248FDF79FFEB9
:103C100001214048FEF73FF801213E48FEF747F8F2
:103C2000BDE8F08710B504463B488480014639481A
:103C3000FDF7ABFD10BD10B504463848C480014601
:103C40003448FDF7BBFD10BD10B504463348C480B1
:103C500001463048FDF7E9FD10BD10B504462F4878
:103C6000C48001462B48FDF72AFE10BD10B504465E
:103C70002A48C48001462748FDF769FE10BD10B5EB
:103C80000446012C03D100202449088102E00220CF
:103C90002249088121491F48FDF790FD10BD10B54C
:103CA0000446012C03D100201C49088102E00220B7
:103CB0001A49088119491748FDF7B7FD10BD10B51D
:103CC0000446012C03D100201449088102E002209F
:103CD0001249088111490F48FDF7F1FD10BD10B5DB
:103CE0000446012C03D100200C49088102E0022087
:103CF0000A49088109490748FDF729FE10BD00005F
:103D0000000C004078080020CC0800207200002041
:103D1000001001400034014082080020DC0800202F
:103D200070B50546002405E0601CC4B2C82C01DD56
:103D3000002070BD0221C948FEF7F5FE0028F3D02F
:103D40002946C648FEF79CFE002400BF0121C34857
:103D5000FEF7E9FE0028F9D0601CC4B2C82C01DDD2
:103D60000020E6E7BD48FEF78DFEC0B2E1E708B5EA
:103D700001210803FCF752FD01210420FCF74EFD50
:103D8000E020ADF8000003208DF8020018208DF827
:103D900003006946B248FCF7ABFA0020B14908803D
:103DA0004FF48270488000208880C88008814FF4DA
:103DB00000704881102088810020C8810720088277
:103DC000A648FEF78FFD0121A448FEF728FEFF203C
:103DD000FFF7A6FF08BD10B50446A248848101463E
:103DE0009E48FEF77FFD01219C48FEF718FE10BD9E
:103DF00070B50546002405E0601CC4B2C82C01DD86
:103E0000002070BD02219848FEF78DFE0028F3D0F7
:103E100029469548FEF734FE002405E0601CC4B234
:103E2000C82C01DD0020ECE701218F48FEF77BFE66
:103E30000028F3D08C48FEF725FEC0B2E1E708B5B4
:103E400001210820FCF7EAFC01218803FCF7F3FCC0
:103E50004FF46040ADF8000018208DF803000320F7
:103E60008DF8020069468148FCF742FA4FF4604140
:103E70007E48FCF7E8FA00207D4908804FF4827004
:103E8000488000208880C88008814FF400704881F5
:103E9000102088810020C881072008827248FEF720
:103EA00021FD01217048FEF7BAFDFF20FFF7A0FFBA
:103EB00008BD10B504466E48848101466A48FEF785
:103EC00011FD01216848FEF7AAFD10BD70B5054639
:103ED000002405E0601CC4B2C82C01DD002070BDC8
:103EE00002216448FEF71FFE0028F3D029466148EE
:103EF000FEF7C6FD002405E0601CC4B2C82C01DD3D
:103F00000020ECE701215B48FEF70DFE0028F3D00E
:103F10005848FEF7B7FDC0B2E1E710B501210846E9
:103F2000FCF77CFC01215448FCF7B1FA012153480D
:103F3000FCF7ADFA10BD08B5FFF7EFFF012108202F
:103F4000FCF76CFC0121C803FCF775FC3820ADF8C8
:103F5000000018208DF8030003208DF80200694648
:103F60004248FCF7C5F938214048FCF76CFA0020BC
:103F7000434908804FF48270488000208880C880C0
:103F800008814FF400704881102088810020C8818A
:103F9000072008823748FEF7A5FC01213548FEF7C7
:103FA0003EFDFF20FFF792FF08BD10B504463448E0
:103FB000848101462F48FEF795FC01212D48FEF72C
:103FC0002EFD10BD70B5044600251CE014F0800FD6
:103FD00004D080212248FCF736FA03E080212048F3
:103FE000FCF733FA6006040E20211D48FCF72BFA7B
:103FF00040211B48FCF70DFA044320211848FCF728
:1040000024FA681CC5B2082DE0DB204670BD08B557
:1040100001210420FCF702FC2020ADF80000032061
:104020008DF8020010208DF8030069460C48FCF75B
:104030005FF98020ADF8000069460948FCF758F99F
:104040004020ADF8000048208DF803006946044880
:10405000FCF74EF9FF20FFF7B5FF08BD0030014027
:1040600000080140EC08002000380040000C01402E
:10407000FE080020003C0040000430000002300038
:104080001009002010B58021F648FEF7E2F818B1BB
:104090008021F448FEF7EEF810BD10B50121F1487B
:1040A000FEF7D7F830B10121EE48FEF7E3F8EEA0B5
:1040B0000FF08EFA10BD10B54021EA48FEF7C9F89E
:1040C00018B14021E748FEF7D5F810BD70B5044699
:1040D0000D461021E348FEF7BCF8002851D010210E
:1040E000E048FEF7C7F8E248007890BB0120E049BD
:1040F0000870DC48FEF797F8DE490880084600881B
:10410000DD49098888421ADDDA480088DA490988D9
:10411000401ADA490880DA480088DA4991FBF0F061
:10412000D649098890FBF1F02080D74800884FF4E9
:104130007A714843D149098890FBF1F02880CD4835
:104140000088CD4908800221C648FDF79DFF012067
:1041500070BDFFE7C648007801280FD10020C44990
:104160000870C048FEF75FF8C2490988401AC6497E
:1041700008800021BB48FDF787FF02E00020BC4912
:1041800008700020E4E770B504460D460821B548E4
:10419000FEF75FF8002851D00821B248FEF76AF810
:1041A000BA48007890BB0120B8490870AD48FEF7C6
:1041B00037F8B749088008460088B6490988884218
:1041C0001ADDB3480088B3490988401AB24908800B
:1041D000AB480088AB4991FBF0F0AF49098890FBF0
:1041E000F1F02080AD4800884FF47A714843AA4925
:1041F000098890FBF1F02880A5480088A54908802F
:1042000002219848FDF726FF012070BDFFE79F4877
:10421000007801280FD100209C4908709148FDF7D3
:10422000FFFF9B490988401A9C49088000218D485E
:10423000FDF710FF02E00020944908700020E4E739
:1042400070B504460D4604218648FEF702F80028A2
:1042500051D004218348FEF70DF89148007890BBB7
:1042600001208F4908707F48FDF7D7FF8D490880EE
:10427000084600888C49098888421ADD89480088E8
:1042800089490988401A894908807D4800887D4904
:1042900091FBF0F08549098890FBF1F0208084487B
:1042A00000884FF47A7148438049098890FBF1F007
:1042B00028807C4800887C49088002216948FDF7F5
:1042C000AFFE012070BDFFE77548007801280FD1CF
:1042D0000020734908706348FDF79FFF7149098802
:1042E000401A7349088000215E48FDF799FE02E0FC
:1042F00000206B4908700020E4E770B504460D46C5
:1043000002215848FDF7A5FF002851D00221554849
:10431000FDF7B0FF6748007890BB01206549087041
:104320005048FDF777FF64490880084600886349D4
:10433000098888421ADD6048008860490988401A67
:104340005F4908804E4800884E4991FBF0F05C4977
:10435000098890FBF1F020805A4800884FF47A7168
:1043600048435749098890FBF1F02880524800885B
:104370005249088002213B48FDF740FE012070BDF4
:10438000FFE74C48007801280FD100204949087008
:104390003448FDF73FFF48490988401A49490880D9
:1043A00000213048FDF72AFE02E000204149087054
:1043B0000020E4E710B544494448FFF79EFF444914
:1043C0004448FFF73DFF44494448FFF7DCFE4449B9
:1043D0004448FFF77BFE10BD70B504460D46102122
:1043E0008806FDF736FF00283AD010218806FDF731
:1043F00041FF3D48007890BB01203B490870800791
:10440000FDF711FF394908800846008838490988B6
:1044100088421ADD3548008835490988401A3549EF
:10442000088035480088174991FBF0F03149098828
:1044300090FBF1F02080314800884FF47A714843B6
:104440002C49098890FBF1F02880284800882849E9
:10445000088002214807FDF717FE012070BD4FE0DC
:1044600067E00000002C01400D0A2054494D310046
:104470009E000020A2000020A0000020A400002038
:104480007001002000A24A04A60000209400002031
:1044900098000020960000209A0000209C00002038
:1044A0008A0000208E0000208C0000209000002058
:1044B0009200002080000020840000208200002064
:1044C00086000020880000207E0100207C01002062
:1044D000820100208001002086010020840100204C
:1044E0008A01002088010020C6000020CA000020A8
:1044F000C8000020CC00002072010020CE00002067
:10450000FA480078012811D10020F84908704FF0CE
:104510008040FDF788FEF6490988401AF549088071
:1045200000214FF08040FDF7AFFD02E00020EF4991
:104530000870002070BD70B504460D460821C806FD
:10454000FDF787FE002853D00821C806FDF792FE2C
:10455000E948007890BB0120E74908708007FDF723
:104560005FFEE649088008460088E54909888842D8
:104570001ADDE2480088E2490988401AE1490880CA
:10458000E1480088E14991FBF0F0DE49098890FBA1
:10459000F1F02080DE4800884FF47A714843D94911
:1045A000098890FBF1F02880D4480088D44908801D
:1045B00002214807FDF74EFD012070BDFFE7CE4800
:1045C0000078012811D10020CB4908704FF08040BD
:1045D000FDF726FEC9490988401ACD490880002107
:1045E0004FF08040FDF736FD02E00020C249087020
:1045F0000020E2E770B504460D4604210807FDF7E8
:1046000028FE002853D004210807FDF733FEC148D7
:10461000007890BB0120BF4908708007FDF7FDFDC1
:10462000BD49088008460088BC49098888421ADDCF
:10463000B9480088B9490988401AB9490880B24880
:104640000088B24991FBF0F0B549098890FBF1F080
:104650002080B44800884FF47A714843B0490988F3
:1046600090FBF1F02880AC480088AC49088002211A
:104670004807FDF7D5FC012070BDFFE7A54800788D
:10468000012811D10020A34908704FF08040FDF7A8
:10469000C4FDA1490988401AA249088000214FF0B1
:1046A0008040FDF7BDFC02E000209A490870002020
:1046B000E2E770B504460D4602214807FDF7C9FD43
:1046C000002853D002214807FDF7D4FD9648007812
:1046D00090BB0120944908708007FDF79BFD93492A
:1046E0000880084600889249098888421ADD8F4868
:1046F00000888F490988401A8E49088082480088BE
:10470000824991FBF0F08B49098890FBF1F0208001
:10471000894800884FF47A7148438649098890FB9C
:10472000F1F02880814800888149088002214807EB
:10473000FDF764FC012070BDFFE77B48007801288D
:1047400011D10020784908704FF08040FDF762FDDC
:1047500076490988401A7849088000214FF0804046
:10476000FDF74CFC02E000206F4908700020E2E7F2
:1047700010B501218807FDF76CFD18B101218807EC
:10478000FDF778FD6D496E48FFF793FF6D496E4860
:10479000FFF730FF6D496E48FFF7CDFE6D496E485B
:1047A000FFF71AFE10BD70B504460D4610216B4888
:1047B000FDF74FFD002851D010216848FDF75AFD44
:1047C0006748007890BB0120654908706348FDF791
:1047D0002AFD6449088008460088634909888842A0
:1047E0001ADD6048008860490988401A5F490880DE
:1047F0005F480088454991FBF0F05C49098890FBCF
:10480000F1F020805B4800884FF47A7148435749A3
:10481000098890FBF1F028805248008852490880AE
:1048200002214E48FDF730FC012070BDFFE74C48E7
:10483000007801280FD10020494908704748FDF74A
:10484000F2FC48490988401A4A4908800021434837
:10485000FDF71AFC02E00020414908700020E4E75F
:1048600070B504460D4608213C48FDF7F2FC0028CF
:104870003AD008213948FDF7FDFC3F48007890BB4D
:1048800001203D4908703548FDF7CAFC3B490880C6
:10489000084600883A49098888421ADD3748008866
:1048A00037490988401A3749088031480088174934
:1048B00091FBF0F03349098890FBF1F020803248F9
:1048C00000884FF47A7148432E49098890FBF1F033
:1048D00028802A4800882A49088002211F48FDF7BD
:1048E000B9FB012070BD51E067E00000C600002068
:1048F000CA000020CE000020BC000020C000002024
:10490000BE000020C20000207201002000A24A0464
:10491000C4000020B2000020B6000020B400002037
:10492000B8000020BA000020A8000020AC00002041
:10493000AA000020AE000020B00000207E01002070
:104940007C010020820100208001002086010020DF
:10495000840100208A01002088010020000400401A
:10496000EE000020F2000020F0000020F400002003
:1049700074010020F6000020E4000020E800002080
:10498000E6000020EA000020EC000020F648007855
:1049900001280FD10020F4490870F448FDF740FCCD
:1049A000F3490988401AF34908800021EF48FDF7D0
:1049B00051FB02E00020EC490870002070BD70B58A
:1049C00004460D460421E948FDF743FC002851D078
:1049D0000421E648FDF74EFCE748007890BB012033
:1049E000E5490870E148FDF718FCE44908800846ED
:1049F0000088E349098888421ADDE0480088E049D8
:104A00000988401ADF490880DF480088DF4991FBA8
:104A1000F0F0DC49098890FBF1F02080DC48008848
:104A20004FF47A714843D749098890FBF1F0288008
:104A3000D2480088D24908800221CC48FDF7F0FA1C
:104A4000012070BDFFE7CC48007801280FD100207D
:104A5000C9490870C548FDF7E0FBC8490988401AF4
:104A6000CB4908800021C148FDF7DAFA02E00020B6
:104A7000C14908700020E4E770B504460D460221E4
:104A8000BA48FDF7E6FB002851D00221B748FDF7F0
:104A9000F1FBC048007890BB0120BE490870B348C4
:104AA000FDF7B8FBBC49088008460088BB49098867
:104AB00088421ADDB8480088B8490988401AB849C0
:104AC0000880B1480088B14991FBF0F0B4490988E9
:104AD00090FBF1F02080B34800884FF47A7148438E
:104AE000AF49098890FBF1F02880AB480088AB49BA
:104AF000088002219D48FDF781FA012070BDFFE783
:104B0000A448007801280FD10020A24908709748D6
:104B1000FDF780FBA0490988401AA24908800021BE
:104B20009248FDF76BFA02E000209A4908700020D5
:104B3000E4E710B501218D48FDF78BFB18B1012189
:104B40008A48FDF797FB98499848FFF795FF9849E1
:104B50009848FFF734FF98499848FFF781FE984935
:104B60009848FFF720FE10BD70B504460D46102191
:104B70009548FDF76EFB002851D010219248FDF7B3
:104B800079FB9248007890BB0120904908708E48CC
:104B9000FDF749FB8E490880084600888D49098841
:104BA00088421ADD8A4800888A490988401A8A4959
:104BB00008808A480088754991FBF0F08649098889
:104BC00090FBF1F02080864800884FF47A714843CA
:104BD0008149098890FBF1F028807D4800887D4953
:104BE000088002217848FDF74FFA012070BDFFE7E9
:104BF0007648007801280FD1002074490870724867
:104C0000FDF711FB72490988401A75490880002197
:104C10006D48FDF739FA02E000206C490870002069
:104C2000E4E770B504460D4608216748FDF711FB1F
:104C3000002851D008216448FDF71CFB6948007822
:104C400090BB0120674908705F48FDF7E9FA6649A3
:104C50000880084600886549098888421ADD62484C
:104C6000008862490988401A614908805B480088C9
:104C7000464991FBF0F05E49098890FBF1F02080F5
:104C80005C4800884FF47A7148435949098890FB81
:104C9000F1F02880544800885449088002214A488D
:104CA000FDF7D8F9012070BDFFE74E4800780128D4
:104CB0000FD100204B4908704348FDF7B1FA4A492B
:104CC0000988401A4B49088000213F48FDF7C2F986
:104CD00002E00020434908700020E4E770B5044674
:104CE0000D4604213848FDF7B4FA00283AD00421D3
:104CF0003548FDF7BFFA4048007890BB01203E4997
:104D000008703148FDF789FA3C4908800846008858
:104D10003B49098888421ADD3848008838490988A3
:104D2000401A384908802D480088184991FBF0F056
:104D30003449098890FBF1F02080334800884FF413
:104D40007A7148432F49098890FBF1F028802B485D
:104D500000882B49088002211B48FDF761F90120DA
:104D600070BD53E069E00000E40000200004004052
:104D7000E8000020EC000020DA000020DE00002027
:104D8000DC000020E00000207401002000A24A04A2
:104D9000E2000020D0000020D4000020D20000203B
:104DA000D6000020D80000207E0100207C010020D9
:104DB0008201002080010020860100208401002063
:104DC0008A01002088010020000800401601002010
:104DD0001A010020180100201C010020760100208B
:104DE0001E0100200C010020100100200E010020F7
:104DF0001201002014010020020100200601002001
:104E000004010020080100200A010020F648007873
:104E100001280FD10020F4490870F448FDF7FDF98E
:104E2000F3490988401AF34908800021EF48FDF74B
:104E3000F7F802E00020EC490870002070BD70B562
:104E400004460D460221E948FDF703FA002851D037
:104E50000221E648FDF70EFAE748007890BB0120F2
:104E6000E5490870E148FDF7D5F9E44908800846AE
:104E70000088E349098888421ADDE0480088E04953
:104E80000988401ADF490880DF480088DF4991FB24
:104E9000F0F0DC49098890FBF1F02080DC480088C4
:104EA0004FF47A714843D749098890FBF1F0288084
:104EB000D2480088D24908800221CC48FDF79EF8EC
:104EC000012070BDFFE7CC48007801280FD10020F9
:104ED000C9490870C548FDF79DF9C8490988401AB5
:104EE000CB4908800021C148FDF788F802E0002086
:104EF000C14908700020E4E710B50121BB48FDF767
:104F0000A8F918B10121B948FDF7B4F9C149C2485F
:104F1000FFF795FFC149C248FFF7E0FEC149C2480B
:104F2000FFF77FFEC149C248FFF71EFE10BD70B5F6
:104F300004460D461021BF48FDF78BF9002851D0DB
:104F40001021BC48FDF796F9BB48007890BB0120C2
:104F5000B9490870B748FDF766F9B84908800846AE
:104F60000088B749098888421ADDB4480088B449E6
:104F70000988401AB3490880B3480088A34991FBC7
:104F8000F0F0B049098890FBF1F02080AF4800882C
:104F90004FF47A714843AB49098890FBF1F02880BF
:104FA000A6480088A64908800221A248FDF76CF8AF
:104FB000012070BDFFE7A048007801280FD1002034
:104FC0009D4908709B48FDF72EF99C490988401AB5
:104FD0009E49088000219748FDF756F802E000201E
:104FE000954908700020E4E770B504460D46082195
:104FF0009048FDF72EF9002851D008218D48FDF783
:1050000039F99348007890BB01209149087089488C
:10501000FDF706F98F490880084600888E490988FF
:1050200088421ADD8B4800888B490988401A8B49D1
:10503000088085480088754991FBF0F08749098808
:1050400090FBF1F02080864800884FF47A71484345
:105050008249098890FBF1F028807E4800887E49CB
:10506000088002217348FCF7F5FF012070BDFFE7BF
:105070007748007801280FD10020754908706D48E5
:10508000FDF7CEF873490988401A75490880002158
:105090006848FCF7DFFF02E000206D49087000203F
:1050A000E4E770B504460D4604216248FDF7D1F8E7
:1050B000002851D004215F48FDF7DCF869480078EA
:1050C00090BB0120674908705A48FDF7A6F8664969
:1050D0000880084600886549098888421ADD6248C8
:1050E000008862490988401A61490880564800884A
:1050F000464991FBF0F05E49098890FBF1F0208071
:105100005C4800884FF47A7148435949098890FBFC
:10511000F1F028805448008854490880022145480D
:10512000FCF77EFF012070BDFFE74E4800780128A4
:105130000FD100204B4908703E48FDF76EF84A49F0
:105140000988401A4B49088000213A48FCF768FF5B
:1051500002E00020434908700020E4E770B50446EF
:105160000D4602213348FDF774F800283AD0022199
:105170003048FDF77FF84048007890BB01203E4959
:1051800008702C48FDF746F83C490880084600881E
:105190003B49098888421ADD38480088384909881F
:1051A000401A3849088028480088184991FBF0F0D7
:1051B0003449098890FBF1F02080334800884FF48F
:1051C0007A7148432F49098890FBF1F028802B48D9
:1051D00000882B49088002211648FCF70FFF0120A8
:1051E00070BD53E069E000000201002000080040AB
:1051F000060100200A010020F8000020FC00002029
:10520000FA000020FE0000207601002000A24A04DF
:10521000000100207E0100207C010020820100208E
:105220008001002086010020840100208A010020E6
:1052300088010020000C00403E01002042010020B7
:105240004001002044010020780100204601002098
:105250003401002038010020360100203A010020EE
:105260003C0100202A0100202E0100202C010020FA
:105270003001002032010020200100202401002004
:10528000220100202601002028010020FE4800788D
:1052900001280FD10020FC490870FC48FCF7BAFF38
:1052A000FB490988401AFB4908800021F748FCF7B0
:1052B000A5FE02E00020F4490870002070BD1CB576
:1052C0000121F248FCF7C5FF50B30121EF48FCF77C
:1052D000D1FFF1480088401CEF490880084600884B
:1052E000EE490860EC480088182819DB0020EA49DC
:1052F000088000900346024640F6B83101904820ED
:10530000FEF70FFC4FF47A70FDF7ECFE00200090E2
:1053100001231A4640F6B83101904820FEF701FCFF
:10532000DF49E048FFF71AFFDF49E048FFF7B9FE21
:10533000DF49E048FFF758FEDF49E048FFF7F7FD97
:105340001CBD0EB50121DE48FCF783FF002844D0C8
:105350000121DB48FCF78EFFDA48007800B3DA4819
:10536000DA49DB4ADB4BCDE900210290DA4ADB491E
:10537000DB4802F071FBDB480268DB480168DB4870
:10538000006801F0A0FBDA48007850B1D9480388E2
:10539000D9480288D9480188D948008801F02CFBF7
:1053A00006E0D848038802880188008801F024FBC1
:1053B000D5480088B0F5167F0ADBD4480188D4A010
:1053C0000EF006F90020D1490880CF49088004E09A
:1053D000CD480088401CCC4908800EBD10B5012185
:1053E000CD48FCF736FF88B10121CB48FCF742FFDE
:1053F000CA480088B0F5C87F03DD0020C74908808F
:1054000004E0C6480088401CC449088010BD10B59F
:105410000121C348FCF71DFF30B10121C048FCF752
:1054200029FFC0A00EF0D4F810BD70B504460D469B
:105430001021BB48FCF70DFF002851D01021B848BF
:10544000FCF718FFB948007890BB0120B7490870F5
:10545000B348FCF7E8FEB649088008460088B5491D
:10546000098888421ADDB2480088B2490988401A82
:10547000B1490880B1480088B14991FBF0F0AE49CC
:10548000098890FBF1F02080AE4800884FF47A71D3
:105490004843A949098890FBF1F02880A448008876
:1054A000A449088002219E48FCF7EEFD012070BD52
:1054B000FFE79E48007801280FD100209B49087023
:1054C0009748FCF7B0FE9A490988401A9D49088020
:1054D00000219348FCF7D8FD02E0002093490870B2
:1054E0000020E4E770B504460D4608218C48FCF71F
:1054F000B0FE002851D008218948FCF7BBFE924835
:10550000007890BB0120904908708548FCF788FE20
:105510008E490880084600888D49098888421ADD2E
:105520008A4800888A490988401A8A49088083483D
:105530000088834991FBF0F08649098890FBF1F0DF
:105540002080854800884FF47A7148438149098852
:1055500090FBF1F028807D4800887D490880022179
:105560006F48FCF777FD012070BDFFE776480078B3
:1055700001280FD10020744908706948FCF750FEDB
:1055800072490988401A7449088000216448FCF770
:1055900061FD02E000206C4908700020E4E770B56E
:1055A00004460D4604215E48FCF753FE002851D006
:1055B00004215B48FCF75EFE6848007890BB012040
:1055C000664908705648FCF728FE65490880084679
:1055D00000886449098888421ADD61480088614969
:1055E0000988401A6049088054480088544991FB52
:1055F000F0F05D49098890FBF1F020805B4800885D
:105600004FF47A7148435849098890FBF1F028809B
:10561000534800885349088002214148FCF700FDA7
:10562000012070BDFFE74D48007801280FD1002010
:105630004A4908703A48FCF7F0FD49490988401A80
:105640004A49088000213648FCF7EAFC02E00020C5
:10565000424908700020E4E770B504460D46022177
:105660002F48FCF7F6FD00280CD002212C48FCF74F
:1056700001FE3F48007820B901203D4908702848C4
:1056800078E0A6E0BCE0000020010020000C004013
:1056900024010020280100207A000020680000205A
:1056A0007E0100207C01002082010020800100207A
:1056B00086010020840100208A010020880100204A
:1056C00000100040180000204C000020480000207E
:1056D0003C00002044000020380000204000002052
:1056E000340000205800002054000020500000200A
:1056F0002800002062000020600000205E000020E2
:105700005C000020240000207C0000202C000020F1
:105710002025640D0A000000001400407E000020D7
:10572000003401400D0A2054494D38006601002024
:105730006A010020680100206C0100207A0100202D
:1057400000A24A046E0100205C01002060010020DC
:105750005E0100206201002064010020520100204F
:105760005601002054010020580100205A01002059
:1057700048010020FCF74EFDF949088008460088E2
:10578000F849098888421ADDF5480088F5490988F2
:10579000401AF5490880F5480088F54991FBF0F07A
:1057A000F149098890FBF1F02080F24800884FF41D
:1057B0007A714843EC49098890FBF1F02880E84869
:1057C0000088E84908800221EB48FCF717FC01201B
:1057D00070BDEA48007801280FD10020E749087021
:1057E000E548FCF717FDDE490988401AE1490880C1
:1057F0000021E148FCF702FC02E00020DF490870CC
:105800000020E5E710B5DE49DE48FFF725FFDE4959
:10581000DE48FFF7C4FEDE49DE48FFF763FEDE49DF
:10582000DE48FFF702FE10BD10B54021D248FCF75C
:1058300010FD18B14021D048FCF71CFD10BD10B57B
:105840008021CD48FCF705FD18B18021CA48FCF73E
:1058500011FD10BD70B588B005460E4614460121F5
:105860000C20FAF7DBFF01210846FAF7D7FF0121E8
:10587000C802FAF7D3FFCA480580012C0DD12002D7
:10588000ADF81C0004208DF81F0003208DF81E00C9
:1058900007A9C448FAF72CFD2FE0022C0DD12002F5
:1058A000ADF81C0004208DF81F0003208DF81E00A9
:1058B00007A9BC48FAF71CFD1FE0032C0ED14FF4DA
:1058C0008060ADF81C0004208DF81F0003208DF8C7
:1058D0001E0007A9B348FAF70BFD0EE0042C0CD10B
:1058E0006002ADF81C0004208DF81F0003208DF825
:1058F0001E0007A9AB48FAF7FBFCADF81460681E60
:1059000080B2ADF810000020ADF81600ADF812001E
:1059100004A9A548FBF739FF012C03D10020ADF8FD
:10592000040010E0022C03D10420ADF804000AE0CA
:10593000032C03D10820ADF8040004E0042C02D1AC
:105940000C20ADF804000020ADF806000120ADF8F1
:1059500008000020ADF80A00ADF80C0001A992483B
:10596000FCF7EFF8012C05D1012203218E48FCF74A
:10597000ADF916E0022C05D1012205218A48FCF779
:10598000A5F90EE0032C05D1012209218648FCF778
:105990009DF906E0042C04D1012211218248FCF774
:1059A00095F901218048FCF776F908B070BD70B513
:1059B00088B005460E46144601210846FAF73BFF1B
:1059C00001210420FAF72AFF78480580012C0DD127
:1059D0000120ADF81C0004208DF81F0003208DF875
:1059E0001E0007A96F48FAF783FC2DE0022C0DD1A9
:1059F0000220ADF81C0004208DF81F0003208DF854
:105A00001E0007A96748FAF773FC1DE0032C0CD1B0
:105A10000420ADF81C008DF81F0003208DF81E0037
:105A200007A96048FAF764FC0EE0042C0CD10820AA
:105A3000ADF81C0004208DF81F0003208DF81E0017
:105A400007A95848FAF754FCADF81460681E80B2F4
:105A5000ADF810000020ADF81600ADF8120004A952
:105A60004FF08040FBF791FE012C03D10020ADF8F0
:105A7000040010E0022C03D10420ADF804000AE079
:105A8000032C03D10820ADF8040004E0042C02D15B
:105A90000C20ADF804000020ADF806000120ADF8A0
:105AA00008000020ADF80A00ADF80C0001A94FF085
:105AB0008040FCF746F8012C05D101220321900714
:105AC000FCF704F916E0022C05D101220521880714
:105AD000FCF7FCF80EE0032C05D101220921880710
